:020000040800F2
:1000000040040020D9000008950C0008910C00085D
:1000100000000000000000000000000000000000E0
:10002000000000000000000000000000810D00083A
:1000300000000000000000001D0D00085D0E00081B
:10004000EB000008EB000008EB000008EB000008E4
:10005000EB000008EB000008EB000008EB000008D4
:10006000EB000008EB000008EB000008EB000008C4
:10007000EB000008EB000008EB000008EB000008B4
:10008000EB000008EB000008EB000008EB000008A4
:10009000EB000008EB000008EB000008EB00000894
:1000A000EB000008EB000008EB000008EB00000884
:1000B000EB000008EB000008D9030008EB00000883
:1000C0000448854600F016F800480047B10F0008C4
:1000D000C046C0464004002004488047044800470A
:1000E000FEE7FEE7FEE7FEE7FEE7FEE7610E00083B
:1000F000C1000008064C0125064E05E0E36807CC68
:100100002B430C3C98471034B442F7D3FFF7DCFF85
:1001100094100008B41000080246002013460B405B
:10012000002B01D0012000E00020704710B5012114
:10013000480600F015FE00210120400600F010FEE8
:1001400010BD000010B50021837A01229A401146AB
:10015000334A126801231A43314B1A601A46D26996
:100160008A43DA61027B002A14D11A46D2688A4394
:10017000DA60C288120443881A43837ADB00284C71
:100180001B191A648288120403881A43837ADB00DD
:100190001B195A64027B012A15D1214AD2680A43ED
:1001A0001F4BDA600288120443881A43837ADB000B
:1001B0001B4C1B191A6482881204C3881A43837A61
:1001C000DB001B195A64C27A002A05D1144A52680E
:1001D0008A43134B5A6004E0114A52680A43104B99
:1001E0005A600289002A04D10D4A52698A430C4B95
:1001F0005A610289012A04D1094A52690A43084B0B
:100200005A61427B012A04D1054AD2690A43044B50
:10021000DA61034A126852085200014B1A6010BD9D
:10022000006600400EB50121480400F079FD0E2261
:100230000B210920C00600F0D4FC0E220C2109205D
:10024000C00600F0CEFC0120C002009002216846EA
:1002500001710121C17169460920C00600F05CFCF2
:100260000120000300900221684601710021817184
:100270000321417169460920C00600F04DFC0EBD06
:1002800070B504460025524840692040002872D0CD
:10029000FF210131601A8C426FD010DC082C40D055
:1002A00006DC012C28D0022C2DD0042C73D131E097
:1002B000102C3DD0202C42D0402CF7D146E07F229C
:1002C0001202811A904276D00DDCFF3801380028E6
:1002D0005AD0FF38FF38023800285ED00121890249
:1002E000401A6FD160E00120C003081A35D0012107
:1002F0000904401A66D137E0354988683549FFF767
:100300000BFF054660E03249C8680321FFF704FF90
:10031000054659E02E49C8680821FFF7FDFE05464D
:1003200052E02B49C8681021FFF7F6FE05464BE066
:10033000274908690321FFF7EFFE054644E02449F9
:1003400008690821FFF7E8FE05463DE020490869F5
:100350001021FFF7E1FE054636E01D4948680821F7
:10036000FFF7DAFE05462FE0194948681021FFF72C
:10037000D3FE054628E028E0FFE7154988690121FA
:10038000FFF7CAFE05461FE0114988690221FFF701
:10039000C3FE054618E015E00DE00D49886904210B
:1003A000FFF7BAFE05460FE0094988697021FFF79B
:1003B000B3FE054608E0064948680421FFF7ACFE95
:1003C000054601E0002500BF00E00025284670BD7D
:1003D000006400400101010000B585B00220FFF774
:1003E0004FFF00282AD0002000900190002168468D
:1003F00001728172C174C17201736946002000F0FC
:10040000F3F90F490198884214D16846007A04280C
:1004100010D16846807A02280CD16846007B694674
:10042000C97A090208430749884203D101200649D5
:10043000086002E000200449086000BF05B000BD6C
:1004400034120000CADE000000000020002905D0A0
:10045000054A52690243044B5A6104E0024A526958
:100460008243014B5A6170470064004010B5014659
:1004700000200022544B1B680224A343524C2360EB
:1004800023461B68012423434F4C236000E0521C89
:100490004D4B5B68DB07DB0F002B02D14B4B9A42C5
:1004A000F5D1494B5B68DB07DB0F002B01D1002046
:1004B00089E08B79012B06D1434B1B6880242343B1
:1004C000414C236005E0404B1B688024A3433E4C15
:1004D0002360CB79012B06D13B4B1B68402423437F
:1004E000394C236005E0384B1B684024A343364C4D
:1004F00023600B7A012B06D1334B1B682024234346
:10050000314C236005E0304B1B682024A3432E4C64
:1005100023604B7A012B06D12B4B1B6810242343FD
:10052000294C236005E0284B1B681024A343264C6C
:1005300023608B7A012B06D1234B1B6808242343AD
:10054000214C236005E0204B1B680824A3431E4C6C
:100550002360CB7A012B06D11B4B1B680424234359
:10056000194C236005E0184B1B680424A343164C68
:1005700023608B789B07CC78240623430C792404D2
:1005800023434C79240523430C88641E23430E4CDB
:10059000E36123461B685B085B002360002200E0E8
:1005A000521C094B5B68DB07DB0F002B02D0074BAB
:1005B0009A42F5D1044B5B68DB07DB0F002B01D0BF
:1005C000002000E0012010BD00640040FFFF00009B
:1005D00010B58CB0002400F05EFBFFF7A7FD09A862
:1005E00000F0A8F9002108A88172C172017341735B
:1005F0008173C173012181710021C17106210172D2
:100600000521417204216846818409A8FFF72EFF65
:100610000121684681770021C177012108A8017076
:10062000002168468182C182018341838183012147
:1006300008A8417005A8FFF785FD01210220FFF7FA
:1006400005FF0020009015480190042168460172C2
:100650000021417202218172DE21C172CA2101731F
:1006600000F078F9FF200E49086000BF00E0641C2C
:100670000B480068FF2802D10A488442F7D3094892
:10068000844202D100200649086000210220FFF7C1
:10069000DDFE03480068C0B20CB010BD341200008B
:1006A00000000020FF0F000001460020002904D1B7
:1006B000064AD2689007800F07E0012904D1034A57
:1006C00012699007800F00E000207047006400402E
:1006D00030B591B000240025FFF728FD0EA800F0EA
:1006E00029F9002108A88177C17710A8017041700D
:1006F0008170C170012108A881760021C17607218F
:100700000177062141770E21684601870EA8FFF781
:10071000ADFE002108A88174C1740121017500217A
:100720006846018541858185C1850186012108A82A
:1007300041750AA8FFF706FD1120059000200690DC
:10074000002168464177017702218177CA21C1776C
:10075000FE2105A8017300F0FDF8054600BF00E08A
:10076000641C284600F07CF9012802D01C48844211
:10077000F6D1002400E0641C0020FFF795FF01285B
:1007800002DA17488442F6D1002000900021684622
:1007900001728172C17201736946002000F024F871
:1007A0000098112802D0002011B030BD6846007AB0
:1007B000002801D00020F7E76846807A022801D09F
:1007C0000020F1E76846C07A00026946097B0843C9
:1007D0000449884201D00020E6E70120E4E7000058
:1007E000FFFF0000FECA0000002848D14F4A126BEC
:1007F00004231A400A720A7A002A04D14B4A126B67
:10080000520D0A6003E0494A126BD2084A60474A17
:10081000126B02231A404A72444A526B1207120F9B
:100820008A72424A526B1204120ECA743F4A926B89
:10083000CA723E4A926B1204130E0B733B4A926BC0
:100840001202130E4B73394A926B120E8A73374A97
:10085000D26BCA73354AD26B1204130E0B74334A2F
:10086000D26B1202130E4B74304AD26B120E8A7482
:100870002F4AD26820231A432D4BDA6055E02B4AC9
:100880004032126804231A400A720A7A002A05D1FB
:10089000264A40321268520D0A6004E0234A403270
:1008A0001268D2084A60214A4032126802231A4074
:1008B0004A721E4A403252681207120F8A721B4A4D
:1008C000403252681204120ECA74184A40329268BA
:1008D000CA72164A403292681204130E0B73134AFE
:1008E000403292681202130E4B73104A40329268E3
:1008F000120E8A730D4A4032D268CA730B4A4032D4
:10090000D2681204130E0B74084A4032D2681202E5
:10091000130E4B74054A4032D268120E8A74044A90
:10092000126920231A43024B1A6170478065004008
:100930000064004000218171C171017241728172B5
:10094000C1728170C17003210171022141710121C5
:100950000180704710B5014600203F4A926801238C
:100960009B061A409A4200D112E03B4A926801234A
:10097000DB061A409A4201D1012009E0364A92680A
:1009800001231B071A409A4201D1022000E00420F3
:10099000042860D00201314BD2181278D207D20F4E
:1009A00003012E4C1B191A600A7A002A0BD10A88FF
:1009B00052054B7A1A4303011B191B681A430301A2
:1009C0001B191A600DE04A68D2000B7A1A434B7A61
:1009D0001A430301214C1B191B681A4303011B19FD
:1009E0001A608A7A1207120F8A7202011B4BD21800
:1009F0005268120912010301184C1B195A600201B6
:100A00002346D21852688B7A1A4303011B195A6085
:100A10008A7B12064B7B1B041A430B7B1B021A4377
:100A2000CB7A1A4303011B199A608A7C12064B7C0D
:100A30001B041A430B7C1B021A43CB7B1A43030192
:100A40001B19DA6002012346D218126801231A43E7
:100A500003011B191A6010BD00640040806500404E
:100A600001460022002904D0012908D0022912D110
:100A70000BE022488068224B184002460DE01F48D8
:100A80008068204B1840024607E01C4880681E4BD7
:100A90001840024601E0002200BF00BF1B4BD01AE5
:100AA0009A421BD008DC002A14D0194810180028DC
:100AB00012D002281CD115E0FF38FF380238002878
:100AC00012D0144BC01800280AD001235B04C01AAE
:100AD0000ED10BE002220DE000220BE0002209E023
:100AE000002207E0012205E0012203E0012201E0EB
:100AF000002200BF00BFD0B2704700000064004079
:100B000003000004000300080000031000010008B7
:100B1000FFFFFFFB0003FFF7F0B5002200230024D6
:100B200000BF5BE0012595402B460D681D402C461B
:100B30009C4252D10D79012D02D00D79022D16D192
:100B4000856857000326BE40B54385604D79560041
:100B5000B540866835438560456801269640B543B3
:100B6000456045688E799640B6B235434560056864
:100B700057000326BE40B54305600D795600B540C9
:100B8000066835430560C56857000326BE40B54377
:100B9000C560CD795600B540C6683543C5600D7A4D
:100BA000012D04D1056B0E683543056303E0056B29
:100BB0000E68B54305634D79042D0AD18568570049
:100BC0000326BE4035438560456B0E68354345635B
:100BD00003E0456B0E68B5434563521C102AA1D350
:100BE000F0BDF0B5002300244D07EE0E1546B540CC
:100BF0002B46CD10012D0BD1456A4E07F70E0F265F
:100C0000BE40B5434562456A1D432C4644620AE036
:100C1000056A4E07F70E0F26BE40B5430562056A0A
:100C20001D432C460462F0BD3EB50446A1000F4AA8
:100C30005058012100F074F860000D49085A0090E6
:100C400001216846017100218171C1710321417147
:100C5000A100084A50586946FFF75EFF600004494A
:100C6000085AA100034A515888613EBD201000086F
:100C700018100008080000204100034A515A820061
:100C8000024B9A5891627047181000080800002023
:100C900000BFFEE7704708B51E21684601700021BD
:100CA00041700121817000F001F808BD00218278B7
:100CB000002A27D0184A03231B02D21803789B105E
:100CC0009B00D15802789207D30EFF229A400B4620
:100CD0009343194642789207120E03789B07DB0E66
:100CE0009A4011430C4A03231B02D21803789B102D
:100CF0009B00D1500278D306DB0E01229A40064BAE
:100D00001A6007E00278D306DB0E01229A40024BFC
:100D100080331A607047000000E100E07047000077
:100D2000002905D0054A52690243044B5A6104E088
:100D3000024A52698243014B5A61704700100240D7
:100D4000002905D0054AD2690243044BDA6104E068
:100D5000024AD2698243014BDA61704700100240B7
:100D6000002905D0054A12690243044B1A6104E0C8
:100D7000024A12698243014B1A6170470010024017
:100D8000704710B500F002F810BD00000CB500204F
:100D9000019000902E48806A0121090408432C49E3
:100DA000886200BF2A48806A0121490408400090F7
:100DB0000198401C01900098002803D12549019812
:100DC0008842EFD12248806A012149040840002866
:100DD00002D00120009001E000200090009801283E
:100DE00035D11D480068102108431B49086008469A
:100DF0000068C008C0000860084600680221084377
:100E0000154908601248C03840681149C039486027
:100E100008464068091508430D49C03948600C4828
:100E2000806A802108430A4988620846806AC008AF
:100E3000C00088620846806A02210843044988622B
:100E400000BF0348806A382108401028F9D10CBD42
:100E5000C0100240FFFF0000002002407047000069
:100E600010B541480068012108433F490860084621
:100E700040683E4908403C494860084600683C4993
:100E80000840394908600846006801218904884300
:100E9000354908600846006B364908403249086306
:100EA0000846406B40084000486300208860324993
:100EB00008612D48C069490508432B49C8612F487E
:100EC0002F49C8602F48C8600846006BFF210902FF
:100ED00088432D49C96AFF2212021140084328495C
:100EE00008630846006B000A00022749898DC9B2D1
:100EF0000843234908630846406B000B000322495E
:100F0000098D0905090D08431D4948630846006A13
:100F1000000B00031C49898C0905090D0843184979
:100F200008620846806A000A00021749097F0843E0
:100F3000134988620846C06A000A00021249C9695A
:100F40001140090A08430E49C8620846406B49141B
:100F500008430B4948630C48806B000C0B49C8617F
:100F6000FFF70FFF10BD0000001002400CF8FF005B
:100F7000FFFFF6FEECFFFCFF802002408519000019
:100F80004070004029040000C0F7FF1F001102401C
:100F900002E008C8121F08C1002AFAD17047704742
:100FA000002001E001C1121F002AFBD170470000A0
:100FB000FFF738F901214806FFF7C2FE0020FFF7CE
:100FC00033FE0120FFF730FE0220FFF72DFE032045
:100FD000FFF72AFEFFF77CFB0E49087008460078F1
:100FE000002803D00020FFF747FE02E00220FFF7B1
:100FF00043FEFFF7EDFA074908700846007800281D
:1010000003D00320FFF738FE02E00120FFF734FE93
:1010100000BFFEE7040000200004000800100400E8
:101020000000080000000800000008000000100098
:1010300000200001000100024000800001000000CB
:101040000000080000000400000008000000080084
:10105000000008000000080000000200002000015D
:1010600000010002400080000100020102020202B1
:10107000000D08080906070007070707070705000E
:101080000040000000000200000002000002000416
:10109000090A0101B410000800000020400000000F
:1010A000900F0008F4100008400000200004000029
:1010B000A00F000800000000000000000008004829
:1010C0000008004800080048000C004800080048DC
:1010D00000040048000800480008004800080048D4
:1010E00000080048000000480038014000000048A7
:0410F00000000048B4
:04000005080000C12E
:00000001FF
