:020000040800F2
:10000000500E0020E5010008D30B0008D30B0008B8
:1000100000000000000000000000000000000000E0
:10002000000000000000000000000000650E000855
:100030000000000000000000D50B0008690E000859
:10004000F7010008F7010008F7010008F7010008B0
:10005000F7010008F7010008F7010008F7010008A0
:10006000F7010008F7010008F7010008F701000890
:10007000F7010008F7010008F7010008F701000880
:10008000F7010008F7010008F7010008F701000870
:10009000F7010008F7010008F7010008F701000860
:1000A000F7010008F7010008F7010008F701000850
:1000B000F7010008F7010008F7010008F701000840
:1000C00000F002F800F062F812A030C808382418D6
:1000D0002D18AC4201D100F059F80FCCA246AB4626
:1000E0000CA730CF2D1B083F3F197C427F1E544484
:1000F0002D090426F441641EAC4201D300F046F8F9
:100100000126334200D0FB1A3343984754465D46DC
:10011000DFE700003014000050140000103A02D352
:1001200078C878C1FAD8520701D330C830C101D598
:1001300004680C6070470000704700000023002432
:1001400000250026103A01D378C1FBD8520700D30E
:1001500030C100D50B60704710B5642902D100F0A2
:1001600087F810BD732902D100F0FCF910BD002002
:1001700010BD1FB50098019900F043FA00F01AF97C
:100180001FBD10B5002000F06FFA10BD00F098FA06
:100190001146FFF7EEFF01F0ADF800F0CAFA03B424
:1001A000FFF7EFFF03BC00F081FA000070B50546D1
:1001B0000C46164602E00FCC0FC5103E102EFAD2A8
:1001C000082E02D303CC03C5083E042E07D301CC6E
:1001D00001C5361F03E021782970641C6D1C761E52
:1001E000F9D270BD0748804707480047FEE7FEE7A1
:1001F000FEE7FEE7FEE7FEE704480549054A064B31
:1002000070470000790E0008C10000085008002067
:10021000500E0020500A0020500A002070B50C46F5
:100220000546012A05D02878800600D5EA69002312
:1002300002E0012305E05B1C934202D2E05C00284F
:10024000F9D1A869E618C01AA861286AC0182862FE
:100250002846C046C04604E06A682078A968641C45
:100260009047B442F8D32846C046C04670BD00004F
:10027000F7B5002575291068009914A611D0C0465D
:10028000C046002802DA404211A608E00099096839
:100290008A0701D50FA602E0490704D50EA601255D
:1002A00001E0C046C046009F0024243704E000F06F
:1002B00072F930313955641C0028F8D12B4632468A
:1002C0002146009800F0E3F8FEBD000000000000A9
:1002D0002D0000002B0000002000000010B50B4690
:1002E0000146184600F042F910BDF8B5042A2CD397
:1002F000830712D00B78491C0370401C521E8307E1
:100300000BD00B78491C0370401C521E830704D08D
:100310000B78491C0370401C521E8B079B0F05D0A5
:10032000C91ADF002023DE1B08C90AE0FFF73EFFE1
:10033000F8BD1D4608C9FD401C46B4402C4310C002
:10034000121F042AF5D2F308C91A521EF0D40B78F2
:10035000491C0370401C521EEAD40B78491C0370E0
:10036000401C012AE4D409780170F8BD01E004C002
:10037000091F0429FBD28B0701D50280801CC90705
:1003800000D00270704700290BD0C30702D0027062
:10039000401C491E022904D3830702D50280801C19
:1003A000891EE3E70022EEE70022DFE7704770478F
:1003B0007047000008487CB57844009007487844AE
:1003C000009C0546019004E020460168081880471B
:1003D000241DAC42F8D17CBDA8110000A61100007C
:1003E00070B5064600F0ECF8056830460B30C408DE
:1003F000E400B44201D8002070BD68682A46002895
:1004000018D00168A14211D30B46214608318B4216
:1004100008D3436801194B6003681B1B0B605160D4
:10042000046001E041685160001D70BD02464068F3
:100430000028E6D12146284600F0CEF80028DCD17D
:1004400070BD70B50446051F00F0BAF80068002CB6
:100450001AD0446801E020466468002C01D0AC4208
:10046000F9D301680A18AA4204D12A6805468918F6
:10047000016000E0456028684119A14205D161682A
:10048000696021684018286070BD6C6070BDFFB560
:1004900004460D4681B0243000902168880604D5BA
:1004A0001022E0699143216000E00120A84201DDB3
:1004B000471B00E000270498A1697A191018081A50
:1004C000A0612078C00602D42046C046C04600265F
:1004D00008E003986268A168805D9047206A401C2C
:1004E000761C206204988642F3DB2078C0060AD589
:1004F0002046C046C04606E06268A16830209047AA
:10050000206A401C206238467F1E0028F4DC07E089
:1005100000986268A168405D9047206A401C206294
:1005200028466D1E0028F3DC2046C046C0462078D1
:10053000000602D5022005B0F0BD0120FBE710B592
:100540004369002B02D0C046C04601E0FFF766FEBB
:10055000012010BD1278014624310A7000224A7031
:100560000122ECE711680022D243E8E7F8B507461C
:1005700015460E461020FFF733FF040009D06760D0
:10058000A660E56000F020F80168216004600020AA
:10059000F8BD0120F8BD01468008081A02091018AC
:1005A000020A1018020C1018C0088200121852001B
:1005B000891A01E0401C0A390A29FBD27047000061
:1005C000004870471000002000487047400000209D
:1005D000704770477047704738B504460A46002098
:1005E0006946C046C046002805D00246204600990C
:1005F00000F085F8012038BD10B5012000F0A1F809
:1006000010BDF8B5C046C046054600200C460C207B
:10061000C0460646A819A0420DD9324669460020B8
:10062000C046C046070001D100F08BF80098A042F8
:1006300000D00546C419FFF7C3FFF61D0746056045
:10064000F008C0004619284600F008F8B44204D06B
:1006500031463868A21B00F052F8F8BD0021016055
:10066000416070470C207047F8B50646FFF7ACFFB5
:100670000090054615E0002E02D0E068B0420FD190
:10068000206828600098A16807686068884720464D
:10069000FFF7D7FE00980068B84202D00098E8E75C
:1006A00025462C68002CE6D1F8BD00000149182031
:1006B000ABBEFEE72600020000487047080000209D
:1006C0007546FFF7F9FFAE46050069465346C00878
:1006D000C000854618B020B5FFF78EFD60BCB64659
:1006E00000260027C0C5C0C5C0C5C0C5C0C5C0C59F
:1006F000C0C5C0C5403D490849008D46704710B58A
:100700000346406801E003464068002801D0884263
:10071000F9D31868C3188B4206D0CB1CD808C00088
:10072000001D411A521A0146081D0A60FFF789FE92
:1007300010BD10B50446C046C0462046FFF72FFD49
:1007400010BD10B500F00AF800F002F810BD7047B7
:1007500010B5002801D0FFF7A9FF10BD10B5012882
:1007600005D0002103A000F021F8012010BD09A14F
:10077000F8E7000053494752544D454D3A204F7514
:1007800074206F662068656170206D656D6F727989
:10079000000000003A2048656170206D656D6F7241
:1007A0007920636F727275707465640070B5054668
:1007B0000C460A2000E06D1C00F012F8002D06D057
:1007C00028780028F7D102E0641C00F009F8002C1A
:1007D00002D020780028F7D10A2000F001F870BD7F
:1007E00008B5694608700320ABBE08BDF0B58BB0F4
:1007F0000124A004214600F0EFF96006214600F034
:10080000F9F91B4D09210E22284600F0CEF92002ED
:1008100008AEF0800027377108902846314600F076
:100820006FF960020890134809902846314600F09D
:1008300067F900F023F805AC204600F0F7F8E780F0
:100840006780278167816120C000A080022020800E
:10085000204600F073F808490870FF21023101A812
:10086000818101970297039700F014F80BB0F0BD57
:1008700000040048020300010000002010B501211F
:100880004C06204600F0C4F90021204600F0C0F9D3
:1008900010BD0000F0B581B027490B680122134359
:1008A0000B60857A1346AB40CC699C43CC61DF4337
:1008B000067B012E0ED0002E1FD1CE6800973E4041
:1008C000CE60ED004E194788C4882404E4193464CE
:1008D00006460BE00097CC681C43CC60ED004C1939
:1008E000468807883F04BE192664861D4C19358842
:1008F0008688360475196564009F4D68C47A002C9B
:1009000001D01D4300E03D404D600589012D04D01C
:10091000002D05D14D693D4001E04D691D434D61FC
:10092000407B012802D1C8691843C8610868904318
:10093000086001B0F0BDC04600660040F0B5394A1D
:100940001168022399431160116801231943116052
:10095000354C254600216D1E0E464E415768FF0757
:1009600001D1002EF6D15568ED0758D08179491E86
:100970004D424D41E90115688026B5436918116063
:10098000C179491E4D424D41A90115684026B54324
:1009900069181160017A491E4D424D41690115687F
:1009A0002026B54369181160417A491E4D424D41D8
:1009B000290115681026B54369181160817A491E0E
:1009C0004D424D41E90015680826B543691811608C
:1009D000C17A491E4D424D41A90015680426B54310
:1009E0006918116081788907C5782D060D43017952
:1009F0000904691845792D050D430088401E2843D8
:100A0000D0611068984310600020641E4041516816
:100A1000C90701D00028F7D150688343194608461A
:100A2000F0BDC04600640040FFFF00000021C1800F
:100A3000418001814181024981800121018070470B
:100A40000302000070B52C4B1968490100220029EF
:100A5000114603D5002A18D0084670BD196809014F
:100A60000BD4012109071B680B405A425A41002B45
:100A700008D00221002AEFD107E001210022002A3C
:100A8000EAD102E00421002AE6D10B011B4D5C599A
:100A9000012214405C515B19067A002E03D0456890
:100AA000ED00354301E005686D05467A2E43264387
:100AB0001E60847A0F252C405E68AE4335195D6058
:100AC000857B2D06467B36047519067B3602AD19EB
:100AD000C67AAD199D60857C2D06467C3604751955
:100AE000067C3602AD19C67BAD19DD6084721868CC
:100AF00010431860084670BD0864004080650040DF
:100B0000F0B582B00B68DA430092002425460193C9
:100B100007E0426B009E32404263A41C6D1C202CF7
:100B200041D00126AE403342F7D00F797B1E012B16
:100B300012D80323A34082689A4382604A79A24074
:100B40008368134383604268B24342608A79AA4053
:100B500092B24368134343600326A6400268B2433F
:100B60000260A74002683A430260C268B243C260B2
:100B7000CA79A240C3681343C3600A7A012A04D128
:100B8000026B019B1A43026304E0026B009B1A4054
:100B90000263019B4A79042ABBD182683243826096
:100BA000426B1A43B8E702B0F0BDB0B54B07DB0E9D
:100BB0000F249C400725A943082901D0202100E0EB
:100BC00024214558A54345509A4043581343435068
:100BD000B0BD704770470000054A002903D0116876
:100BE0000143116070471168814311607047C0462E
:100BF00014100240054A002903D011680143116016
:100C000070471168814311607047C0461C10024054
:100C1000054A002903D0116801431160704711682B
:100C2000814311607047C04610100240054A0029F8
:100C300003D011680143116070471168814311604E
:100C40007047C04618100240F0B585B00126310447
:100C50000091774F2C3F39680906764C764D15D4B4
:100C60002B462C3B196809078A0F022A214617D305
:100C7000032A14D019688902090F8A1C1968009B7D
:100C8000194200D0C5E07349514309E0396889062B
:100C9000490F042903D8890069A2515800E0674927
:100CA0000496016029462C390A681206120F6A4E12
:100CB000B25C03680293D340436009684905490F59
:100CC000715CCB4083602968C90600D5029CC46072
:100CD000032103913A681201920F1A46009C14D026
:100CE00003998E063A683240049989068A42514A2D
:100CF0000BD039683140049AD2069142029A04D04E
:100D000039683140B1421A4600D102610499CF03DB
:100D1000296889071A4611D02968039A11400129C8
:100D2000029A0BD02968039A114002293A4605D04D
:100D30002968039A114003293E4A00D14261039970
:100D40000E0429688903890F1A4610D0296831409A
:100D5000A142029A0BD029683140049A5204914270
:100D60003A4604D029683140B142324A00D182610A
:100D700001972F4F396831421A4610D039683140F7
:100D8000A142029A0BD039683140049A5204914230
:100D9000019A04D039683140B142264A00D1C2617B
:100DA00039680903890F16D003998E0439683140D8
:100DB000049A920491421E49029B0CD0096831406A
:100DC000049AD20491421A49019B04D00968314027
:100DD000B142184B00D10362103D29688905890F83
:100DE00015D0039909022A680A40049C23029A42FA
:100DF000019A0BD02A680A4063029A4201D1174A2D
:100E000004E02A680A408A4201D1154A426205B0CC
:100E1000F0BD291F09683B6862430F230B40591C32
:100E20000446104600F08AFA01462046014C37E796
:100E30001411024000127A0030100240007E560366
:100E4000008000007E9A0000007E5603809FD5003F
:100E500000127A0000093D00321500087E9A000059
:100E600090D003007047000002480168491C0160EF
:100E70007047C04648080020F0B584B04E4802686C
:100E800001210A43026042684C4B134043600268F0
:100E90004B4B134003608A04036893430360026B67
:100EA000484B13400363426B8A4342630023019320
:100EB0008360454A13600A07C4691443C461434C04
:100EC0002546283D424A2A608E02009629362E6029
:100ED000FF273D02221F1368AB433E4E707C000289
:100EE000C0181060B843337CC018106020683A4ABC
:100EF0001040F368394F3B401F18276020461438D4
:100F000003681340B268354E3240D218019B02602C
:100F100020460C382F4E326802704803384332683E
:100F20002060083C100A2070F08B2D4C6063039306
:100F3000029308042268024322604E042068304075
:100F400002900398401C03900298002804D1284680
:100F5000FF30039A8242F1D12068304201D10293DE
:100F600000E002910298012823D11E480168102256
:100F70000A4302600721C94302680A40026002680E
:100F800002231A4302600C4A506850605068009D6A
:100F90002843506020688022024322602068084075
:100FA0002060206818432060206838210140102903
:100FB000FAD104B0F0BDC046001002400CF8FF00AA
:100FC000FFFFF6FEECFFFCFF902002407470004033
:100FD00085190000DCF7FF1F00F0FFFFFF0F000086
:100FE000E81002400020024070B58AB00546012496
:100FF00060042146FFF7F0FDA0032146FFF716FE2F
:101000000020069004900390029001950C2005901A
:101010000921CD0628462246FFF7C7FD0A212846AA
:101020002246FFF7C2FD0D4808906002079007AE08
:1010300028463146FFF764FDA00207902846314656
:10104000FFF75EFD334D01A9284600F011F8284650
:10105000214600F005F80AB070BDC0460203000149
:101060004A1E9141026801239A435118016070475A
:10107000F0B58DB00D46044600680121019188430A
:1010800020600320010362688A43A96811436160FC
:1010900021681E4A0A4069681143EA680A432969BF
:1010A000114321600002A168814368690843A06080
:1010B00002AE3046FFF7C8FD1548844201D0082033
:1010C00000E0182013498C4200D1142036582068C3
:1010D000000400D576002F683046394600F02EF91E
:1010E0004743F11B019AD2032B685B08994200D356
:1010F000401C2168114204D0074901400007400FFD
:10110000401880B2E0600DB0F0BDC046F3E9FFFFCB
:101110000044004000380140F0FF00000178002941
:1011200009D0054A13681B06FCD5D160431C4178E1
:1011300000291846F6D170471C38014070B5134D90
:10114000284600F0C4F81248124C29462246FFF700
:10115000C5F8114D284600F06FF810482946224680
:10116000FFF7BCF80E4800F04FF80E4D0026284659
:10117000314600F04FF80C4829462246FFF7AEF8FA
:101180000A480B494180067070BDC04668000020C7
:10119000DD1200080000000878050020C1120008D8
:1011A0003C080020300800201F12000844080020DE
:1011B000FF07000010B586B001AB9A7204241C81B1
:1011C000029000200190002A03D001A80B30FFF705
:1011D0008CF801A8FFF736FC06B010BD00280DD032
:1011E0000749084A4A6000238B6005230B600B689F
:1011F000DB03FCD504230B60401EF3D17047C046CF
:1012000010E000E0C0DA00000021C1708170417080
:101210000170704700220260426001727047B0B5F1
:1012200004460068002805D0856900F05EF8002DAE
:101230002846F9D12046B0BD10B504465520C0005F
:10124000002121522018142202810122120642603C
:10125000817030212046FFF7A7F8C02011492150A6
:10126000A02111486050802160502146A0310F4AD2
:101270008A61086188602146803188610C4A0A6170
:1012800088600C49A1670C492167A0662066A065AB
:101290000A492165A0642064A16325482063204693
:1012A00010BDC04656F41D1856F4EC1C56F41A1026
:1012B00056F4121856F40A1056F4081856F4011889
:1012C0005521C9000022425241188A7070474F21AF
:1012D00009010022425241188A7070474F210901CA
:1012E0000022425241188A70704780B5FFF7A9F872
:1012F00080BD000082B00C4801900C480090FFF7C0
:1013000075FAE1204002FFF76FFE094C09A5694616
:1013100008222046FFF74EFF2846FFF7FFFE7D20FC
:10132000C000FFF75BFFF2E70506070801020304B0
:1013300056F4261831323334350D0A0043088B42F7
:101340001AD3002203098B4279D3030A8B425ED35E
:10135000030B8B4242D3030C8B4227D30902FF229B
:1013600012BA030C8B4202D31212090203D0030BF0
:101370008B4233D31AE0D3E0411A8041401C7047BE
:1013800003460B4371D443088B42F5D30022030973
:101390008B4254D3030A8B4239D3030B8B421DD3A8
:1013A000030C8B4202D394466EE0090AC30B8B42B6
:1013B00001D3CB03C01A5241830B8B4201D38B0361
:1013C000C01A5241430B8B4201D34B03C01A524106
:1013D000030B8B4201D30B03C01A5241C30A8B4249
:1013E00001D3CB02C01A5241830A8B4201D38B0234
:1013F000C01A5241430A8B4201D34B02C01A5241D8
:10140000030A8B4201D30B02C01A5241CDD2C30949
:101410008B4201D3CB01C01A524183098B4201D3C5
:101420008B01C01A524143098B4201D34B01C01AB0
:10143000524103098B4201D30B01C01A5241C30828
:101440008B4201D3CB00C01A524183088B4201D397
:101450008B00C01A524143088B4201D34B00C01A83
:101460005241411A524110007047CA0F00D0494200
:10147000031000D34042534000229C4603098B4294
:101480002DD3030A8B4212D38901FC2212BA030A1C
:101490008B420CD3890192118B4208D3890192119E
:1014A0008B4204D3890137D0921100E08909C30926
:1014B0008B4201D3CB01C01A524183098B4201D325
:1014C0008B01C01A524143098B4201D34B01C01A10
:1014D000524103098B4201D30B01C01A5241C30888
:1014E0008B4201D3CB00C01A524183088B4201D3F7
:1014F0008B00C01A5241D9D243088B4201D34B0012
:10150000C01A5241411A00D2014652411046634668
:101510005B1000D34042704763465B1000D34042EB
:1015200001B50021004201D0C9430846C046C0466B
:1015300002BD0000000001020304010203040607CB
:1015400008090000681500080000002008000000DD
:101550001C0100087015000808000020480E00005B
:101560003C010008D9FBFFFFFF0000000000000065
:04000005080000C12E
:00000001FF
