:020000040800F2
:1000000038140020750200080920000809200008A3
:1000100000000000000000000000000000000000E0
:10002000000000000000000000000000C1220008E5
:10003000000000000000000051200008C32200085A
:10004000870200088702000887020008870200086C
:1000500087020008591E000887020008631E000876
:10006000870200088702000887020008870200084C
:10007000870200088702000887020008870200083C
:10008000870200085D240008870200088702000834
:10009000870200088702000887020008870200081C
:1000A000870200088702000887020008D925000897
:1000B000B1260008870200082D1E000887020008EC
:1000C00000F002F800F0C6F812A030C80838241872
:1000D0002D18AC4201D100F0BDF80FCCA246AB46C2
:1000E0000CA730CF2D1B083F3F197C427F1E544484
:1000F0002D090426F441641EAC4201D300F0AAF895
:100100000126334200D0FB1A3343984754465D46DC
:10011000DFE700008C3000009C30000070470000DA
:100120000023002400250026103A01D378C1FBD813
:10013000520700D330C100D50B60704710B56E294F
:1001400002D100F067FC10BD702902D100F0B7FDAC
:1001500010BD662902D102F085FF10BD652902D1CC
:1001600002F080FF10BD672902D102F07BFF10BDB5
:10017000612902D102F07EFF10BD03681B0A01D382
:1001800080231943692902D100F0CCF810BD6429FD
:1001900002D100F0C7F810BD752902D100F0C2F8F5
:1001A00010BD6F2902D100F035FD10BD782902D1B4
:1001B00000F072FD10BDE92902D100F0D1FC10BDA4
:1001C000E42902D100F0CCFC10BDF52902D100F0E9
:1001D000C7FC10BDEF2902D100F028FD10BDF829A1
:1001E00002D100F067FD10BD0368DB0901D3802355
:1001F0001943632902D100F049FC10BD732902D1D3
:1002000000F04CFC10BDE32902D101F0A2F910BDB1
:10021000F32902D101F0A5F910BD002010BD1FB5D2
:100220000098019900F0A3FD01F00EFA04000020EF
:10023000002102F001FF401C60600020002102F05C
:10024000E5FEE06000F0E8FA1FBD10B5002001F007
:10025000ADF910BD01F0D0F91146FFF7E0FF02F053
:10026000E7FC01F07FFD03B4FFF7EFFF03BC01F0F3
:1002700087FD00000748804707480047FEE7FEE784
:10028000FEE7FEE7FEE7FEE704480549054A064BA0
:1002900070470000C5220008C1000008380C00208B
:1002A0003814002038100020381000201CB50C46EF
:1002B000064B7B4469460090204600F0C4FB044690
:1002C0000020694600F0D2FB20461CBDB7070000A5
:1002D00070B50C460546012A05D02878800600D561
:1002E000EA69002302E0012305E05B1C934202D28D
:1002F000E05C0028F9D1A869E618C01AA861286A4C
:10030000C0182862284600F0F4FA04E06A682078F1
:10031000A968641C9047B442F8D3284600F0FFFA5D
:1003200070BD0000F7B5002575291068009914A666
:1003300011D000F005FB002802DA404211A608E0C7
:10034000009909688A0701D50FA602E0490704D57C
:100350000EA6012501E000F0FCFA009F00242437DE
:1003600004E000F0CEFC30313955641C0028F8D18F
:100370002B4632462146009800F0F4FAFEBD0000FC
:10038000000000002D0000002B00000020000000F5
:10039000F3B50446002081B020622046E16888471A
:1003A000002872D0252802D06268A168ABE0594FBE
:1003B00000267F442046E16888472028054608DB60
:1003C000312D06D2781920380078002801D0064354
:1003D000F0E7B00701D5042086430020E06107461E
:1003E000A0612A2D0AD0284602F008FE002827D056
:1003F000B8000019303D0090856119E00298BA00FC
:10040000121902C8916102902046E1688847012FC5
:10041000054617D1E06900281FDA202086431CE03A
:1004200000980A2180694843009940193038886152
:100430002046E1688847054602F0E0FD0028EFD13C
:10044000012F0AD02E2D08D12046E16888470546A5
:10045000202006437F1C022FC3DBA069002803DA9B
:100460004042A06101200643F00701D010208643DE
:100470006C2D0BD0682D09D04C2D3CD06A2D38D076
:10048000742D38D07A2D36D016E040E0E1682F4642
:1004900020468847B842054609D16C2F29D0012053
:1004A0008002E168064320468847054604E06C2F39
:1004B0001DD0FF2001300643002D28D028464138AA
:1004C000192803D80120C0020643203520462660A3
:1004D0002946029A1646FFF731FE002810D001285F
:1004E0000BD0F61DF008C0000830029055E7402000
:1004F000E1E78020D5E70020D3E7361D02964CE7E0
:1005000062682846A1689047206A401C44E7206A38
:10051000FEBD0000CE2C000010B50B46014618466B
:1005200000F0DAFB10BD01E004C0091F0429FBD272
:100530008B0701D50280801CC90700D0027070476C
:1005400000290BD0C30702D00270401C491E0229AB
:1005500004D3830702D50280801C891EE3E70022B2
:10056000EEE70022DFE7000082078B079A423FD1C7
:1005700070B5920F0AD0032402780B78401C491CF6
:10058000002A33D09A4231D12042F5D1214EF401D4
:1005900004C808C9951B9543254018D19A420FD12C
:1005A00004C808C9951B9543254010D19A4207D12C
:1005B00004C808C9951B9543254008D19A42E7D045
:1005C00012BA1BBA01209A4200D2404270BD12BA40
:1005D0001BBA2DBA18241000E0401900E140401A5F
:1005E00005D12E00E64002D1083CF4D1D01A70BDEE
:1005F00002780B78401C491C002A09D09A4207D186
:1006000002780B78401C491C002A01D09A42EFD096
:10061000D01A704701010101002203098B4273D3F4
:10062000030A8B4258D3030B8B423CD3030C8B42FF
:1006300021D312E003460B437FD4002243088B42B0
:1006400074D303098B425FD3030A8B4244D3030B59
:100650008B4228D3030C8B420DD30902FF2212BA1E
:10066000030C8B4202D31212090265D0030B8B429A
:1006700019D300E0090AC30B8B4201D3CB03C01A84
:100680005241830B8B4201D38B03C01A5241430B5F
:100690008B4201D34B03C01A5241030B8B4201D34F
:1006A0000B03C01A5241C30A8B4201D3CB02C01ABA
:1006B0005241830A8B4201D38B02C01A5241430A32
:1006C0008B4201D34B02C01A5241030A8B4201D321
:1006D0000B02C01A5241CDD2C3098B4201D3CB01C8
:1006E000C01A524183098B4201D38B01C01A524177
:1006F00043098B4201D34B01C01A524103098B427B
:1007000001D30B01C01A5241C3088B4201D3CB0065
:10071000C01A524183088B4201D38B00C01A524148
:1007200043088B4201D34B00C01A5241411A00D2F8
:1007300001465241104670475DE0CA0F00D0494261
:10074000031000D3404253409C46002203098B42D1
:100750002DD3030A8B4212D38901FC2212BA030A59
:100760008B420CD3890192118B4208D389019211DB
:100770008B4204D389013AD0921100E08909C30960
:100780008B4201D3CB01C01A524183098B4201D362
:100790008B01C01A524143098B4201D34B01C01A4D
:1007A000524103098B4201D30B01C01A5241C308C5
:1007B0008B4201D3CB00C01A524183088B4201D334
:1007C0008B00C01A5241D9D243088B4201D34B004F
:1007D000C01A5241411A00D20146524110466346A6
:1007E0005B1001D34042002B00D54942704763465D
:1007F0005B1000D3404201B50449002802DC491CCB
:10080000084000E00846C046C04602BDFFFFFF7F2B
:10081000704770477047000008487CB578440090E6
:1008200007487844009C0546019004E02046016892
:1008300008188047241DAC42F8D17CBDBC2A0000BA
:10084000BA2A000070B5064600F070FA0568304616
:100850000B30C408E400B44201D8002070BD6868C1
:100860002A46002818D00168A14211D30B46214620
:1008700008318B4208D3436801194B6003681B1B86
:100880000B605160046001E041685160001D70BD63
:10089000024640680028E6D12146284600F052FA78
:1008A0000028DCD170BD70B50446051F00F03EFA8B
:1008B0000068002C1AD0446801E020466468002CCF
:1008C00001D0AC42F9D301680A18AA4204D12A68BF
:1008D00005468918016000E0456028684119A14279
:1008E00005D16168696021684018286070BD6C603E
:1008F00070BD70B5044685690068C10601D5302613
:1009000000E02026C00707D070BD62683046A168AD
:100910009047206A401C20626D1EF6D570BD70B5F0
:10092000044685690078C00707D170BD6268A16878
:1009300020209047206A401C20626D1EF6D570BDB5
:1009400009684A0501D540B27047C905FCD500B217
:10095000704709684A0501D5C0B27047C905FCD582
:1009600080B27047FFB504460D4681B02430009038
:100970002168880604D51022E0699143216000E0D7
:100980000120A84201DD471B00E000270498A1696F
:100990007A191018081AA0612078C00602D42046DF
:1009A000FFF7A7FF002608E003986268A168805D52
:1009B0009047206A401C761C206204988642F3DB34
:1009C0002078C0060AD52046FFF793FF06E062684C
:1009D000A16830209047206A401C206238467F1E64
:1009E0000028F4DC07E000986268A168405D904749
:1009F000206A401C206228466D1E0028F3DC204639
:100A0000FFF78DFF2078000602D5022005B0F0BD6B
:100A10000120FBE711680268006A530501D50870E0
:100A200009E0D30501D5088005E0130602D5C217F9
:100A300005C100E0086001207047000001694A1C00
:100A400002610878704700B58FB0029100210591CE
:100A50000549019379440391114604906846FFF7D4
:100A600097FC0FB000BD0000E5FFFFFF0A681070A3
:100A7000521C0A60704710B54369002B02D0C04673
:100A8000C04601E0FFF724FC012010BD12780146AA
:100A900024310A7000224A700122ECE7116800221A
:100AA000D243E8E7F7B50446154686B02B487844AC
:100AB000002703C83E460090019111E007986A465E
:100AC0007100415A02A800F050FD411C07D0217866
:100AD000890603D5E269391891420ED83F18761C71
:100AE0002078800602D5E069B84206DDAE42E5DB3B
:100AF00007987100405A0028E0D1A069C01BA0618E
:100B00002046FFF7F6FE154878445A3803C800908F
:100B10000020019116E041006A460798415A02A858
:100B200000F023FD0590401C0AD0002505E0626816
:100B300002A8A168405D90476D1C05988542F6D3D8
:100B40000498401CB0420490E5DB206AC019206282
:100B50002046FFF7E4FE09B0F0BD0000E6250000E6
:100B6000F7B5D21D0025D20815A6D200F52905CA71
:100B700011D0002A05DA00214042914111A60A460F
:100B800008E0009909688B0701D50FA602E0490724
:100B900001D50EA601251146009F0024243704E04C
:100BA00000F018F930323A55641C02460A43F7D176
:100BB0002B46324621460098FFF7D4FEFEBD0000CA
:100BC000000000002D0000002B00000020000000AD
:100BD00070B504460021243408E05507D2086D0F93
:100BE000303565545D072A43DB08491C15461D4313
:100BF000F3D10468002310A2250708D520252C4036
:100C00000C4304D0C46901230CA2641EC461FFF725
:100C1000A9FE70BD10B5044621461068FFF799FE85
:100C2000002302462046FFF7D3FF10BDD21DD10896
:100C3000C9000CC9CCE70000000000003000000033
:100C4000F8B50F460188090502D5224C7C4402E024
:100C5000204C7C440E3405460021243508E016075C
:100C60001209360FA65D6E541E0732431B09491C3C
:100C700016461E43F3D1224604780023240705D5E7
:100C8000702F06D0002901D002231132FFF76AFE2F
:100C9000F8BD01231032F9E770B504460D46214630
:100CA0001068FFF756FE0023024629462046FFF74C
:100CB000C7FF70BDD21DD308DB000CCBC0E730B43A
:100CC000036820241268234303600823C36130BCF7
:100CD0000023B5E750240000F8B5074615460E4638
:100CE0001020FFF7AFFD040009D06760A660E56043
:100CF00000F020F80168216004600020F8BD0120A8
:100D0000F8BD01468008081A02091018020A1018D6
:100D1000020C1018C008820012185200891A01E053
:100D2000401C0A390A29FBD270470000004870476E
:100D300008000020004870473800002070477047C6
:100D40007047704738B504460A4600206946C046D9
:100D5000C046002805D002462046009900F078FCE5
:100D6000012038BD10B5012001F004F810BDF8B520
:100D7000C046C046054600200C460C20C04606462C
:100D8000A819A0420DD9324669460020C046C04687
:100D9000070001D100F0EEFF0098A04200D0054608
:100DA000C419FFF7C3FFF61D07460560F008C00031
:100DB0004619284600F008F8B44204D03146386895
:100DC000A21B00F045FCF8BD0021016041607047A6
:100DD0000C2070470B4670B502468907800808430F
:100DE00019469D08141AA941250908070543080951
:100DF0002C194841250A01060D43010A2C194141CD
:100E0000200C0D0428430D0C00194D410021401900
:100E10004D41C00869070843E908840F8D00254348
:100E2000840024184D4124196D41121BAB4107E089
:100E30000925ED432C11521963410024401C6141E6
:100E40001C460A250026551BB441F1D270BD000096
:100E5000FFB50C461E468FB003CA089009914F009B
:100E60007D0D00D16D1E002108460020C0460321E3
:100E7000099A89050840002A03DA82008018400890
:100E80000840800D01280A9002DD0020C0430A902E
:100E9000089807430DD0F048F04928184843071434
:100EA000189800281DD07542291E1DDD0A9842425F
:100EB0001BE01898012802D00020302104E0002017
:100EC000F24305E02154401CB042FBDB30460022D7
:100ED000189B002121540F998B600A60486013B061
:100EE000F0BDBD1B6D1CDFE70A9A002900DA6942DC
:100EF0000BA800F00BFC0BAB07CB03AB07C30899A7
:100F0000099800F06FFC6B4607C30146D4480918E6
:100F1000002D00910BDDD24903980A9A49424018EE
:100F2000002303A90390684600F0CCFE08E0039973
:100F30000A9A0023081803A90390684600F06CFE83
:100F40006B4607C30004000C03D00020C0434108D7
:100F500000E01046189A002A03D00022009215469D
:100F60001EE0751E05D4FFF735FF303262556D1E49
:100F7000F9D501220843079602D000227F1C04E025
:100F80002078302801D100227F1E002A069787D0C2
:100F90001EE0112D07DAFFF71DFF303262556D1C80
:100FA00002460A43F5D1084303D00098002819D01F
:100FB0000EE00021681E05E0235C625C635422544D
:100FC000401E491C8142F7DBA81B401E0795069076
:100FD000079A18990020A0540F98079B069A8160E1
:100FE0000CC07CE711260020189059E7D21DF0B5FF
:100FF0000D460446D10893B0C90003C90C900D9169
:1010000001F0E6FF02460D98C00F01D02D2007E049
:101010002068810701D52B2002E04007C00F400166
:10102000032A0F9001D0072A05DB034629462046F4
:1010300000F028FB0EE12078800601D5E76900E08A
:1010400006272846652D04D0662814D0672D69D15F
:101050002DE00020112F009001DB112300E07B1C0C
:101060000CAA03A910A8FFF7F3FE11990026109807
:101070007D1C0E9142E001203B460CAAC0070B905C
:101080000120009003A910A8FFF7E2FE119D12981D
:101090001099002600280E9501D1781C0D18781B98
:1010A00002D446427D1C761EE81B00903AE0012FD8
:1010B00000DA01270020112F009001DD112300E04C
:1010C0003B460CAA03A910A8FFF7C2FE11993D46A2
:1010D000109800260E91217809070BD40E99A94289
:1010E00000DA0D4603A9012D04DD4A19203AD27F0A
:1010F000302A06D0B84201DA011D04DA012100913C
:101100000FE06D1EEFE7002802DC86192D1A03E0C0
:10111000411CA94200DD0D46801B401C00900120AF
:10112000C0070B902078000705D40098A84202DB86
:101130000020C043009069460020C8720B9801212E
:1011400002AF0337C907884225D0022010902B2018
:1011500011900B9800280BDA40420B902D20119033
:1011600006E00B98FFF7CDFD30317F1E0B903970F4
:101170001099481E00291090F3DC0B980028F0D13C
:1011800011987F1E38702088000501D5452000E0A9
:1011900065207F1E387001A8C01BC01D0B900F98E2
:1011A000002800D0012041190098C01709180B9899
:1011B0000818A169081A401EA0612078C00602D450
:1011C0002046FFF796FB0F98002805D06268A168BB
:1011D0009047206A401C20622078C00625D5204612
:1011E000FFF787FB21E0002E07DB0E98B04204DDFD
:1011F00003A86268805DA16802E06268A16830208F
:101200009047206A761C401C20620098401E0028EF
:1012100000900AD100F018FAC06862680168405C6A
:10122000A1689047206A401C206228466D1E002855
:10123000D9DC07E062683878A1687F1C9047206A93
:10124000401C20620B99481E00290B90F2DC2046BE
:10125000FFF765FB032042E601FCFFFF104D000095
:10126000E1DFFFFFD21DF0B504460D46D0088DB07A
:10127000C000466807683146384601F0A9FE0246BC
:10128000F00F01D02D2307E02068810701D52B2323
:1012900002E04007C00F43016846002B037001D0F5
:1012A000012000E00020032A0A9001D0072A04DB75
:1012B0002946204600F0E6F92DE12078800601D489
:1012C0000D2500E0E5697000400D0D2D01904BDA11
:1012D000300D00210B9008460020C04603218905EF
:1012E0000840002E05DA82008018C20F1018401046
:1012F00008408015012801DD0020C043A90000231B
:10130000182906D39C460A460123183A1B07D340E6
:1013100003E001221205CA4094460C31202902D371
:101320003A46203900E032468A40002802DD002A91
:1013300006D119E0002817D10121C9078A4213D329
:10134000194663467F185E41002806D10120C00778
:10135000824202D1084687439E430B98310D814259
:1013600002D00198401C01902088000502D57149E7
:10137000794402E06F49794419396B460A98302262
:101380001A540A980A7C401C1A54401C0A9001986E
:10139000002801DC302000E031201872019A012081
:1013A000002A02D0644BD21804E072003A4302D003
:1013B000614A521C0192002D02DC2278120703D5EB
:1013C0006A462E20507202200022864694460CE087
:1013D00032033601120F6D1E8B5C02AA1354624653
:1013E000521C401C9446052A01DA002DF0DC002234
:1013F00002AE08E03B0F3F01CB5C521C6D1E335424
:10140000401C082A01DA002DF4DC23689A0601D575
:1014100011E0401E704504DD3218203AD27F302A98
:10142000F7D0002807DD3218203AD27F2E2A02D1C9
:101430001A0700D4401E002D03DD3E223254401C0A
:101440006D1E497C31540199401C002906DA2D217A
:10145000471C315401984042019003E02B21471C66
:10146000315401987D21C900884206DBFFF7E2F87C
:101470003030F0557F1C019101E0642808DB0198B1
:101480006421FFF7D7F83030F0557F1C019101E05F
:101490000A2806DB01980A21FFF7CCF83030F05516
:1014A0007F1C01980A21FFF7C5F83031F1550A98E1
:1014B000A1697F1C7A191018081AA0612078C0064B
:1014C00002D42046FFF715FA216A6E460A980818DA
:1014D000206204E062683078A168761C90470A9820
:1014E000401E0A90401CF5D12078C00602D5204647
:1014F000FFF7FFF902AE09E03078761C3E280DD0E8
:101500006268A1689047206A401C20627F1EF3D267
:101510002046FFF704FA0DB00320F0BD206A401901
:10152000206203E06268A168302090476D1EEDD311
:10153000F8E70000671D000001FCFFFF10B54369DC
:10154000002B02D0C046C04601E0FFF7ABFA0120F5
:1015500010BD12880146243182840022C2840122F7
:10156000ECE711680022D243E8E7F8B516460C46CE
:10157000054600F061F80368FF200230C05C0128D6
:1015800007D0FF2C0FD8185D00280CD001202C703C
:10159000F8BDFF333246214608331868C71828467D
:1015A0000023B847F8BD0020C043F8BDF8B5064693
:1015B000FFF7C0FB0090054615E0002E02D0E06862
:1015C000B0420FD1206828600098A1680768606861
:1015D00088472046FFF767F900980068B84202D0B4
:1015E0000098E8E725462C68002CE6D1F8BD0000FD
:1015F00000487047000000207546FFF7F9FFAE462F
:10160000050069465346C008C000854618B020B59D
:10161000FEF73AFE60BCB64600260027C0C5C0C52E
:10162000C0C5C0C5C0C5C0C5C0C5C0C5403D4908CE
:1016300049008D467047000010B500F005F8001D08
:1016400010BD00BFF51900000048704720000020C1
:1016500010B50346406801E003464068002801D009
:101660008842F9D31868C3188B4206D0CB1CD8081F
:10167000C000001D411A521A0146081D0A60FFF7FA
:1016800012F910BDF8B51F46044601230068DB02BD
:10169000032601461840072A05DB002801D017A5BC
:1016A00006E017A504E0002801D016A500E016A565
:1016B000102081432160A069C01E002FA06101D0CD
:1016C000401EA0612046FFF714F9002F09D03846CC
:1016D0006268A1689047206A401C2062C01C20629A
:1016E00006E0206AFAE762682878A1686D1C9047D6
:1016F000761EF8D22046FFF712F9F8BD4E414E0093
:101700006E616E00494E4600696E6600F7B516467A
:101710008AB0334878446C4603467C33C06F5A68BD
:101720009B680DC42E487844763003AC0DC80DC4B8
:101730003720C001081837211B30FEF77BFF054614
:101740000C46803D1B3C02D56442012000E0002095
:101750000027099010E0E0070CD00C2020497843C6
:10176000794432464C3941186846012300F054FA56
:101770006B4607C364107F1C002CECD1184F7F44CC
:101780002E3F16E0E80712D02001C0190EC80691BE
:10179000089307920068F04201D1981908903246E8
:1017A000012306A903A800F037FA03AB07C36D10A5
:1017B000641C002DE6D10998002806D032466946FF
:1017C000012303A800F07EFA05E0012332466946B2
:1017D00003A800F021FA0A9B07C30DB0F0BD00007A
:1017E000D8190000034640000A4610B5400D0BD042
:1017F0000121C9070F24A40200191C036408214316
:10180000540D2143D20207E000210120F2E7D40F5A
:10181000490021435200401E0029F8DADB0FDB07A4
:10182000184310BDFFB50D46144685B04868516891
:1018300001F0B5FB00910190A868A16801F0AFFB31
:1018400002910390A868616801F0A9FB029A12183E
:101850008242029201D2012000E00020019A0B187E
:10186000D2180028019202D08A4202D903E08A42AB
:1018700001D2012000E0002000990818009068685B
:10188000A16801F08CFB029A12188242029201D2E6
:10189000012000E00020019A0B18D21800280192C4
:1018A00002D08A4202D903E08A4201D2012000E03C
:1018B000002000990818009028682168400049001D
:1018C000400849084018FA49471814E001994000B7
:1018D000C90F08430090019802994000C90F0843BE
:1018E0000190029803994000C90F084302900398A1
:1018F00040007F1E039000980028E7DA089800282F
:1019000001D0EC4E00E00026B74201DA012000E0F1
:101910000020002804902AD0F71BF806C00E15D02E
:10192000029B2021091A039A8B401A430392029AC0
:10193000019BC2408B401A430292019A009BC24015
:101940008B4000991A430192C14000917B110DD048
:101950006F460320C11A03D500218200B95003E06D
:101960008A008100BA587A50401EF3D53746039852
:101970000299002800D00120014308980291002814
:1019800008460CD0002800D001200199019A490591
:1019900008430121D20AC902D202019200E00121CA
:1019A0000E9B0122D207012B02D0002B03D013E0A3
:1019B000002807D120E0904204D890420CD1019B2E
:1019C0000B4209D0019B5918019105D10099491C7E
:1019D000009101D17F1C009200280DD010210846F3
:1019E0000020C0460498002806D00F98002803D095
:1019F000082108460020C04628682168019B009AFB
:101A00004840C10F0598C90739430EC009B0F0BD61
:101A1000FFB587B0099A089808995368926840689A
:101A2000896896460022039317469446089A1268DE
:101A30005300099A5B081268520052089A1A9E4B8A
:101A4000D4180A9A002A01D0352200E040220692DA
:101A50000022012315460492DB07059324E0002DA4
:101A600005D175460346039E4D1BB34109D3754608
:101A70006646039B491B049D9841059B7519AC461E
:101A80005F4163463B4308D0059B049EDD07760813
:101A90002E435B080496059301E0521E641EC50F99
:101AA000ED0749184041521C069B9A42D7DB002D96
:101AB00004D17546039A6B1A824101D203200CE0CF
:101AC000039A0B466B404240134303D0014303D0BB
:101AD000012002E0022000E0002061460191002187
:101AE000009702910A99002905D0614640020143FE
:101AF000704B019102E08007002302909C4201DAC2
:101B0000012000E0002007003AD01A1BD006C00ECA
:101B100015D0029D2021019C091AC5408C40254307
:101B2000029C8C4000D001242543019C0295009D1D
:101B3000C4408D4000992C430194C1400091541140
:101B40001DD06D460221002202290CD10320001B6A
:101B500007E0002804DB8600AE59002E00D00122E9
:101B6000401C0328F5DB081B02D588002A5004E03E
:101B70008000285810438A00A850491EE3D51C460F
:101B80000A98002802980CD0002800D00120019962
:101B9000019A490508430121D20AC902D2020192E1
:101BA00000E00121109B0122D207012B02D0002B63
:101BB00003D013E0002807D11FE0904204D89042E0
:101BC0000CD1019B0B4209D0019B5918019105D101
:101BD0000099491C009101D1641C009200280CD08E
:101BE000102108460020C046002F06D0119800287A
:101BF00003D0082108460020C04608980999019A98
:101C0000009B006809684840C10F0798C907214335
:101C100082600AC00BB0F0BD00B585B001930092A0
:101C20000A460146002302A8FFF7FCFD02A807C8E8
:101C300005B000BDFFB50A461F4685B00799019360
:101C400001230091014602A8FFF7ECFD02990398D9
:101C5000049ECA0F4900D20700920F22490892023F
:101C60008C1A0021002800DB0C46450013486D0843
:101C7000844214D3079A002A04DA441E0026104D29
:101C8000F64302E004460D460E46102108460020A9
:101C9000C046002F03D0042108460020C04620057E
:101CA000E90A0843009908436905F20A1143ADE6C1
:101CB00002C0FFFF013C0000FF3F0000FF070000E3
:101CC000FFFFFF7F00B585B0019300920A460146F1
:101CD000002302A8FFF79CFE02A807C8A8E7FFB5EB
:101CE0000A461F4685B007990193012300910146DA
:101CF00002A8FFF78DFE02990398049ECA0F4900BF
:101D0000D20700920F22490892028C1A0021002863
:101D100000DB0C46450011486D08844214D3079A35
:101D2000002A04DA441E00260D4DF64302E0044664
:101D30000D460E46102108460020C046002F03D055
:101D4000042108460020C0462005E90A08430099FE
:101D500008436905F20A114358E60000FF07000036
:101D6000FFFFFF7F10B50446C046C0462046FEF781
:101D70007AFA10BD10B500F011F800F008F810BDA7
:101D800001491820ABBEFEE726000200704710B5DF
:101D9000002801D0FFF7F4FF10BD000010B50128A6
:101DA00005D0002103A000F021F8012010BD09A1F9
:101DB000F8E7000053494752544D454D3A204F75BE
:101DC00074206F662068656170206D656D6F727933
:101DD000000000003A2048656170206D656D6F72EB
:101DE0007920636F727275707465640070B5054612
:101DF0000C460A2000E06D1C00F012F8002D06D001
:101E000028780028F7D102E0641C00F009F8002CC3
:101E100002D020780028F7D10A2000F001F870BD28
:101E200008B5694608700320ABBE08BD80B5002028
:101E300000F004F8012000F001F880BD05490028F9
:101E400002D0012804D1091D096803200840704709
:101E5000002070470C64004080B5012000F008F8B5
:101E600080BD80B50120400300F002F880BD000075
:101E7000014908607047C04614040140F0B587B0BE
:101E80000E460D68E943049100240223059501964E
:101E90000BE08168039A11438160416B29434163E0
:101EA0001B1DA41C102C00D196E001221746A74050
:101EB0003D4249D0069203939B1E03219940029113
:101EC000CA4335463679711E012912D881681140FE
:101ED000816069799940009282680A438260416812
:101EE000B9434160A979A14089B242680A4342607E
:101EF000009A0168114001609E4001683143016011
:101F0000C1681140C160E9799940C2680A43C26062
:101F1000026B297A01292E4603D004990A40059DB7
:101F200001E0059D2A43039B02637179042906D1D0
:101F30008168029A11438160416B294302E0416B41
:101F4000049A1140069A4163611C8A401542A7D049
:101F5000069203229A400392D5433279571E012FED
:101F600014D887682F40876077799F4086683E4302
:101F700086604668069FBE434660019EB6798E40E5
:101F800016490E4041683143019E41600168294075
:101F900001609A40016811430160C1682940C16035
:101FA000F1799940C2680A43C260016B327A012A12
:101FB00007D0049A1140059D01637179042907D166
:101FC00067E7059D294301637179042900D160E722
:101FD000416B049A114062E707B0F0BDFEFF0000BC
:101FE000B0B54B07DB0E0F249C400725A9430829F9
:101FF00001D0202100E024214558A54345509A40B6
:10200000435813434350B0BD70470000F0B50E492C
:1020100002788378002B0FD0FC2313400B4C1D5902
:102020009607F60EFF27B740BD4340788001C0B247
:10203000B0402843185100E080311F2002400120A9
:1020400090400860F0BDC04600E100E000E400E020
:1020500070470000054A002903D011680143116050
:1020600070471168814311607047C04614100240E8
:10207000054A002903D011680143116070471168B7
:10208000814311607047C0461C100240054A002978
:1020900003D01168014311607047116881431160DA
:1020A0007047C04618100240F0B585B001221104F7
:1020B0000291764F2C3F39680906754C754D039295
:1020C00014D42B462C3B19680907890F022917D312
:1020D000032914D019688902090F8A1C1968029B08
:1020E000194200D0C2E0724C544309E039688906B5
:1020F000490F042903D8890068A2545800E0664CAF
:1021000004602A462C3A11680906090F694B5E5C87
:102110002146F140416012685205520F9A5C2B68CB
:10212000DB065B4B00D52346D1408160C3600322B0
:1021300004923B681B019B0F0B4614D0049A960631
:102140003B683340039A92069342514B0BD03A6856
:102150003240039BDB069A42234604D03A68324061
:10216000B2420B4600D10361039AD7032A68920753
:102170000B4611D02A68049B1A40012A23460BD033
:102180002A68049B1A40022A3B4605D02A68049B11
:102190001A40032A3E4B00D14361049A16042A6870
:1021A0009203920F0B4611D02A683240029B9A424A
:1021B00023460BD02A683240039B5B049A423B467D
:1021C00004D02A683240B242314B00D1836101977A
:1021D0002E4F3A6832420B4611D03A683240029B89
:1021E0009A4223460BD03A683240039B5B049A42E2
:1021F000019B04D03A683240B242254B00D1C36102
:102200003A681203920F039B12D004998E04396826
:1022100031409A04914221460AD039683140DA04AB
:102220009142019904D039683140B142184900D136
:102230000162103D29688905890F15D004990902AA
:102240002A680A401C461B029A42019A0BD02A684F
:102250000A4063029A4201D1174A04E02A680A4000
:102260008A4201D1154A426205B0F0BD291F0968B2
:102270003B68074B5A430F230B40591C0646104638
:1022800000F092FD044630463AE7C0461411024081
:1022900000127A0030100240007E560300800000D9
:1022A0007E9A0000007E5603809FD50000127A00BF
:1022B00000093D00843100087E9A000090D00300A0
:1022C00070477047F0B584B05748021F136801216A
:1022D0000B43009113600368544C1C400460136866
:1022E000534C1C4014608B0414689C431460C36AF4
:1022F000504C1C40C462036B8B4303630023019367
:1023000043604D4C23600C078569254385614B4D27
:102310002C46283C4A4E26604A4E2660FF273C0247
:102320002B1F1968A1434848467C36027118196072
:10233000B9430746067C891919602968434B19403F
:10234000C668434F3E4077182F60294614390E68FF
:102350001E403D4B9B683E4803409B190B6029463D
:102360000C39394E33680B70009B590339431F46B3
:1023700033682960083D190A2970F18B354B596380
:10238000019903910D460291390413680B431360C0
:102390007E041168314002910399491C039102990E
:1023A000002904D12146FF31039B8B42F1D11168F2
:1023B000314205D102951C480299012905D030E02F
:1023C00002971948029901292BD123490A68102341
:1023D00013430B600A6807239A430A600A680A607D
:1023E00001680160016801601A4B196880229143FD
:1023F000196001680322914301600168394301605B
:1024000002680C210A40042A0BD002680A40042A00
:1024100007D002680A40042A03D002680A40042A4E
:10242000EED104B0F0BDC046041002400CF8FF002D
:10243000FFFFF6FEECFFFCFF9020024074700040AE
:102440008519000029040000DCF7FF1F00F0FFFFE2
:10245000FF0F0000E81002400020024010B5594C68
:102460000121204600F054F8002807D004480168F4
:10247000491C01600121204600F038F810BDC0461B
:10248000340C0020F0B585B0102001242146FFF760
:10249000EFFD02AE304600F099F80027B7723781A1
:1024A0001148039007200290464D2846314600F01F
:1024B00051F82846214600F019F8284621462246C0
:1024C00000F030F82021284600F03AF8284621464E
:1024D00000F010F801A88470477011210170FFF717
:1024E00095FD05B0F0BDC046E7030000134A4A4021
:1024F000026170470268002903D001210A4302608B
:10250000704702490A4002607047C046FEFF000063
:1025100002690A40531E9A41C0680840411E884122
:1025200010407047002A03D0C2680A43C260704757
:10253000024A5140C2680A40C2607047FFFF000073
:102540004268034B1340436042680A43426070474D
:102550008FFF000010B5036801229407A04205D048
:10256000164CA04202D0164CA0420CD17024A343BA
:102570004C881C43134B984209D003231B029C43F5
:102580000B89234304E01C460E4B9842F5D12346A9
:102590009BB203604B68C3620B8883620A4BC3180B
:1025A0000A24E341072B06D814469C40E1231C4231
:1025B00001D0897A0163426110BDC046002C014000
:1025C000000400400010004000D4FEBF0021018143
:1025D0008172CA4306C07047B0B582B0C54C0821AD
:1025E000204600F0FAF8002809D0E06901A9088027
:1025F000606A088001980821204600F0DFF86E4DDF
:102600002046294600F0EEF8002809D0204600F0C8
:1026100075F9C0B200F08EF92046294600F0D0F8D6
:1026200002B0B0BD70B58AB00546012460042146F1
:10263000FFF710FDA0032146FFF728FD00200690BC
:1026400004900390029001950C2005900921CD067D
:1026500028462246FFF7C4FC0A2128462246FFF7F7
:10266000BFFC544808906002079007AE28463146E8
:10267000FFF704FCA002079028463146FFF7FEFB57
:102680009C4D01A9284600F0DBF84B49284622461C
:1026900000F0BDF868468470022141701B21017072
:1026A000FFF7B4FC2846214600F08FF80AB070BD51
:1026B00070B582B08E4C0821204600F08EF80028BC
:1026C00009D0E06969460880606A0880009808219E
:1026D000204600F073F8384D2046294600F082F875
:1026E000002815D0204600F00FF901A908700878DD
:1026F00000F00EF97D20C100064A535A5E1C565266
:10270000D1188000019A0A542046294600F058F852
:1027100002B070BD88050020F0B58BB005460124DD
:10272000660430462146FFF795FC30462146FFF708
:102730009FFC0020079005900490039002950C20C8
:1027400006900920C60602250327304629463A4648
:10275000FFF746FC304639463A46FFF741FC15483C
:1027600009900420089008AF30463946FFF786FBF1
:102770000820089030463946FFF780FB5C4E02A9DE
:10278000304600F05DF80C4F3046394600F018F83E
:1027900030463946224600F03AF801A88470457068
:1027A0001C210170FFF732FC3046214600F00DF885
:1027B0000BB0F0BD02030001050105000162704786
:1027C000090C01228A40026270474A1E9141026848
:1027D00001239A43511801607047C0690840411EA7
:1027E000884170470A0AD3B2012B024605D0022B5A
:1027F00001D1021D01E002460832CBB21268DA4074
:10280000090CC369CB40134001201840704710B534
:10281000CCB20123090AC9B2032909D0022900D187
:10282000001DA340002A07D001681943016010BDB4
:102830000830A340002AF7D101689943016010BD18
:10284000F0B58BB00D46044600680127B843206000
:102850000320010362688A43A9681143616021680B
:10286000224A0A4069681143EA680A432969114308
:1028700021600002A168814368690843A0606E4638
:102880003046FFF711FC1A48844204D00820194949
:102890008C4204D004E0182016498C4200D1142048
:1028A00036582068000400D576002D683046294649
:1028B00000F07AFA29464143711AFA036B089942EB
:1028C00006D22168114207D180B2E0600BB0F0BDA2
:1028D000401C21681142F7D0074901400007400F12
:1028E000401880B2E0600BB0F0BDC046F3E9FFFFD6
:1028F0000044004000380140F0FF0000416A0148F8
:1029000008407047FF010000406AC0B270470000F5
:1029100007490A68120608D40A68120605D40A682C
:10292000120602D40A681206F3D5C8607047C04682
:102930001C38014014490A68120608D40A681206B5
:1029400005D40A68120602D40A681206F3D5C860D4
:102950007047C0460178002914D00B4A04E0D160CA
:10296000581C597800290DD0034610680006F6D48B
:1029700010680006F3D410680006F0D41068000652
:10298000F3D5ECE77047C0461C440040F0B581B079
:10299000E24D284600F03AF91148124C29462246E9
:1029A000FDF7BAFD104D284600F078F80F4829468B
:1029B0002246FDF7B1FD0E4F381D00F056F83D469A
:1029C0000C3500262846314600F055F809482946BE
:1029D0002246FDF7A1FD084878803E7001B0F0BDA9
:1029E0001B2C00080000000878090020292B000893
:1029F00060000020812A0008FF070000F0B581B0C8
:102A0000024604780020002C03D00B7800931D06AA
:102A100005D101B0F0BD5478521C002CF9D0009BB8
:102A2000DDB2E4B2AC42F6D10024009D165DEDB2F9
:102A3000AE42F0D10D196F78002F13D016197378AC
:102A4000BB42E8D1AF78002F0CD0B378BB42E2D1C3
:102A5000EF78002F06D0F378BB42DCD12D79241D0E
:102A6000002DE3D1104601B0F0BD0021C17081708E
:102A7000417001707047002202604260017270472D
:102A8000B0B504460068002805D0856900F0CCF890
:102A9000002D2846F9D12046B0BD000010B50446EF
:102AA0005520C00000212152201814220281012249
:102AB00012064260817030212046FDF752FDC02091
:102AC00011492150A02111486050802160502146B9
:102AD000A0310F4A8A61086188602146803188618F
:102AE0000C4A0A6188600C49A1670C492167A066FD
:102AF0002066A0650A492165A0642064A163094895
:102B00002063204610BDC04656F41D1856F4EC1C38
:102B100056F41A1056F4121856F40A1056F40818FF
:102B200056F4011856F426185521C90000224252C5
:102B300041188A707047000080B5054941587D20D2
:102B400080006E4A1018FFF759FF411E884180BD72
:102B5000FC040000B0B504467D2080000A49081836
:102B6000FB214900FDF7FBFC084801684A1C026094
:102B70009F20C500635906A00CA200F0E7F8605939
:102B8000FFF7E8FEB0BDC04688050020300C0020ED
:102B90005B696E666F2025645D5B25735D3A7365C6
:102BA0006E64636D642025730D0A000053656E64C6
:102BB000436D6400F0B582B04F2424010419A57858
:102BC0001E2D21D0089D0095079D019527781C2575
:102BD0007D4340193525ED0000274755A678761C22
:102BE000A67040190776009D45614774019D0574E4
:102BF000001D0EC02078401CC1B289224A43110B2F
:102C00001E224A43801A207002B0F0BD4F210901F4
:102C10000022425241188A7070474F210901002258
:102C2000425241188A70704780B5FDF73CFE80BD66
:102C300080B500F005F800F03DF8002080BD0000F0
:102C4000B0B582B0FFF71EFCE12044022046FFF73A
:102C5000E9FC2046FFF760FD002003210091019070
:102C60000E4C0FA10FA2C8232046FFF7A3FF0E486A
:102C7000205C00280DD00D4820180D49615C1C22F5
:102C80004A43A1183522D20089181CC91CC03CC96E
:102C90003CC00248FFF75EFF02B0B0BD78000020E4
:102CA00041540D004F4B0000F2040000F4040000FA
:102CB000F104000082B0104F104C174D174E03E086
:102CC0001CA02A4600F042F83968481C38607D2074
:102CD000C200A35A80002018009009A02A4600F0E4
:102CE00035F83046FFF728FF39684A1C3A6000285B
:102CF000E6D00BA0E5E7C046300C00208805002098
:102D00005B696E666F2025645D5B25735D3A2564A3
:102D10002C2025730D0A0000943100087800002053
:102D20005B696E666F2025645D5B25735D3A737524
:102D3000630D0A005B696E666F2025645D5B257319
:102D40005D3A6661696C0D0A0000000083B0B0B5A1
:102D500091B0044615A80EC015AA009201AD2846F0
:102D60002146FDF7A3FA2878002815D001AB0D49BC
:102D700004E0C860531C507800280DD01A460B6838
:102D80001B06F6D40B681B06F3D40B681B06F0D4A5
:102D90000B681B06F3D5ECE711B0B0BC01BC03B067
:102DA0000047C0461C38014043088B421AD300221A
:102DB00003098B4279D3030A8B425ED3030B8B4208
:102DC00042D3030C8B4227D30902FF2212BA030C11
:102DD0008B4202D31212090203D0030B8B4233D36E
:102DE0001AE0D3E0411A8041401C704703460B4370
:102DF00071D443088B42F5D3002203098B4254D38C
:102E0000030A8B4239D3030B8B421DD3030C8B4235
:102E100002D394466EE0090AC30B8B4201D3CB0365
:102E2000C01A5241830B8B4201D38B03C01A52410B
:102E3000430B8B4201D34B03C01A5241030B8B420D
:102E400001D30B03C01A5241C30A8B4201D3CB02F8
:102E5000C01A5241830A8B4201D38B02C01A5241DD
:102E6000430A8B4201D34B02C01A5241030A8B42E0
:102E700001D30B02C01A5241CDD2C3098B4201D3F8
:102E8000CB01C01A524183098B4201D38B01C01A76
:102E9000524143098B4201D34B01C01A52410309ED
:102EA0008B4201D30B01C01A5241C3088B4201D39C
:102EB000CB00C01A524183088B4201D38B00C01A49
:102EC000524143088B4201D34B00C01A5241411A70
:102ED000524110007047CA0F00D04942031000D37E
:102EE0004042534000229C4603098B422DD3030AE3
:102EF0008B4212D38901FC2212BA030A8B420CD3F3
:102F0000890192118B4208D3890192118B4204D31B
:102F1000890137D0921100E08909C3098B4201D39E
:102F2000CB01C01A524183098B4201D38B01C01AD5
:102F3000524143098B4201D34B01C01A524103094C
:102F40008B4201D30B01C01A5241C3088B4201D3FB
:102F5000CB00C01A524183088B4201D38B00C01AA8
:102F60005241D9D243088B4201D34B00C01A52417F
:102F7000411A00D201465241104663465B1000D30D
:102F80004042704763465B1000D3404201B50021C8
:102F9000004201D0C9430846C046C04602BDF8B54C
:102FA000040C8BB2264682B25E43104658430D0C89
:102FB000370C360400218019164679416E43370CD0
:102FC00036048019264679416E438919F8BD000000
:102FD0004900CA020243100000D004204A0D01D06B
:102FE00001221043044A490D914201D102210843B4
:102FF000012800D105207047FF07000030380A285B
:1030000001D20120704700207047000010B5002950
:103010000AD00878002807D005487844FDF7A4FABC
:10302000002801D0002010BD0248784410BD0000E7
:10303000960100008E01000010B500290AD0087822
:10304000002807D005487844FDF78EFA002801D003
:10305000002010BD0248784410BD00008601000029
:103060007E01000003B402487844844603BC6047F4
:1030700081DFFFFF03B402487844844603BC604705
:10308000E9E1FFFF0400000800000000000000026A
:10309000000100001000000000000000000000001F
:1030A000303132333435363738394142434445467E
:1030B0004030580030313233343536373839616278
:1030C00063646566403078003031323334353637EA
:1030D0003839616263646566787000303132333448
:1030E0003536373839414243444546585000000090
:1030F00002400000000000A00000000005400000A9
:10310000000000C8000000000C4000000000409CCF
:1031100000000000194000000020BCBE00000000BC
:1031200034400000BFC91B8E00000004B540000001
:10313000504BCFD06607E2CF010000006C41000089
:103140003E8251AADFEEA73401000000D942000000
:10315000DCB5A0E23A301F97FFFFFFFFB445000047
:10316000FD25A0C8E9A3C14FFFFFFFFFFF3F0000FF
:103170000000008000000000FF3F00000000008011
:10318000000000000000000001020304010203042B
:10319000060708096D61696E5F7461736B0000005A
:1031A000E032000800000020381400002001000870
:1031B0001C00000043000000F8FFFFFF0C000000AF
:1031C0000E0000000F0000002E00000010010000A3
:1031D00043000000F8FFFFFF0040404040404040F7
:1031E00040404141414141404040404040404040DA
:1031F000404040404040404040050202020202027E
:1032000002020202020202020220202020202020CC
:1032100020202002020202020202909090909090E0
:10322000101010101010101010101010101010109E
:103230001010101002020202020288888888888812
:1032400008080808080808080808080808080808FE
:103250000808080802020202400000000000000006
:10326000000000000000000000000000000000005E
:10327000000000000000000000000000000000004E
:10328000000000000000000000000000000000003E
:10329000000000000000000000000000000000002E
:1032A000000000000000000000000000000000001E
:1032B000000000000000000000000000000000000E
:1032C00000000000000000000000000000000000FE
:1032D000000000000000000000000000B1F6FFFF49
:04000005080000C12E
:00000001FF
