:020000040800F2
:10000000480E002091010008790B0008790B0008C8
:1000100000000000000000000000000000000000E0
:100020000000000000000000000000004D0E00086D
:100030000000000000000000C10B00084F0E000887
:10004000A3010008A3010008A3010008A301000800
:10005000A3010008C9090008A3010008D30900088A
:10006000A3010008A3010008A3010008A3010008E0
:10007000A3010008A3010008A3010008A3010008D0
:10008000A301000809100008A3010008A30100084B
:10009000A3010008A3010008A3010008A3010008B0
:1000A000A3010008A3010008A301000865110008CE
:1000B000A3010008A301000875080008A3010008B7
:1000C00000F002F800F054F812A030C808382418E4
:1000D0002D18AC4201D100F04BF80FCCA246AB4634
:1000E0000CA730CF2D1B083F3F197C427F1E544484
:1000F0002D090426F441641EAC4201D300F038F807
:100100000126334200D0FB1A3343984754465D46DC
:10011000DFE70000E4150000F41500007047000060
:100120000023002400250026103A01D378C1FBD813
:10013000520700D330C100D50B60704710B5642959
:1001400002D100F06BF810BD732902D100F09EF9C6
:1001500010BD002010BD1FB50098019900F0E5F911
:1001600000F0BCF81FBD10B5002000F011FA10BD62
:1001700000F034FA1146FFF7EEFF01F0ACF900F0A1
:1001800066FA03B4FFF7EFFF03BC00F06FFA00005C
:100190000748804707480047FEE7FEE7FEE7FEE71F
:1001A000FEE7FEE704480549054A064B7047000094
:1001B000510E0008C100000848080020480E002029
:1001C000480A0020480A002070B50C460546012A5E
:1001D00005D02878800600D5EA69002302E00123D3
:1001E00005E05B1C934202D2E05C0028F9D1A869CB
:1001F000E618C01AA861286AC01828622846C046B6
:10020000C04604E06A682078A968641C9047B4423C
:10021000F8D32846C046C04670BD0000F7B500259B
:1002200075291068009914A611D0C046C046002850
:1002300002DA404211A608E0009909688A0701D550
:100240000FA602E0490704D50EA6012501E0C0462D
:10025000C046009F0024243704E000F030F930311C
:100260003955641C0028F8D12B46324621460098A7
:1002700000F0A1F8FEBD0000000000002D0000000D
:100280002B0000002000000010B50B460146184668
:1002900000F000F910BD01E004C0091F0429FBD2E1
:1002A0008B0701D50280801CC90700D002707047FF
:1002B00000290BD0C30702D00270401C491E02293E
:1002C00004D3830702D50280801C891EE3E7002245
:1002D000EEE70022DFE770477047704708487CB5BB
:1002E0007844009007487844009C0546019004E05B
:1002F0002046016808188047241DAC42F8D17CBD17
:10030000241400002214000070B5064600F0ECF83A
:10031000056830460B30C408E400B44201D8002020
:1003200070BD68682A46002818D00168A14211D320
:100330000B46214608318B4208D3436801194B60B4
:1003400003681B1B0B605160046001E04168516051
:10035000001D70BD024640680028E6D121462846AF
:1003600000F0CEF80028DCD170BD70B50446051F42
:1003700000F0BAF80068002C1AD0446801E020466A
:100380006468002C01D0AC42F9D301680A18AA4273
:1003900004D12A6805468918016000E04560286894
:1003A0004119A14205D1616869602168401828603F
:1003B00070BD6C6070BDFFB504460D4681B0243041
:1003C00000902168880604D51022E06991432160DD
:1003D00000E00120A84201DD471B00E0002704984F
:1003E000A1697A191018081AA0612078C00602D4F1
:1003F0002046C046C046002608E003986268A1680F
:10040000805D9047206A401C761C206204988642DA
:10041000F3DB2078C0060AD52046C046C04606E079
:100420006268A16830209047206A401C20623846EC
:100430007F1E0028F4DC07E000986268A168405D38
:100440009047206A401C206228466D1E0028F3DC7D
:100450002046C046C0462078000602D5022005B0DE
:10046000F0BD0120FBE710B54369002B02D0C04668
:10047000C04601E0FFF7A8FE012010BD127801463A
:1004800024310A7000224A700122ECE71168002230
:10049000D243E8E7F8B5074615460E461020FFF7A9
:1004A00033FF040009D06760A660E56000F020F823
:1004B0000168216004600020F8BD0120F8BD0146FC
:1004C0008008081A02091018020A1018020C1018E5
:1004D000C008820012185200891A01E0401C0A3933
:1004E0000A29FBD27047000000487047080000202E
:1004F00000487047380000207047704770477047C9
:1005000038B504460A4600206946C046C046002861
:1005100005D002462046009900F07FF8012038BD42
:1005200010B5012000F09BF810BDF8B5C046C046DC
:10053000054600200C460C20C0460646A819A042DD
:100540000DD9324669460020C046C046070001D199
:1005500000F085F80098A04200D00546C419FFF7C6
:10056000C3FFF61D07460560F008C000461928467F
:1005700000F008F8B44204D031463868A21B00F0FD
:100580004CF8F8BD00210160416070470C207047B5
:10059000F8B50646FFF7ACFF0090054615E0002EC3
:1005A00002D0E068B0420FD1206828600098A168AE
:1005B0000768606888472046FFF7D7FE0098006804
:1005C000B84202D00098E8E725462C68002CE6D116
:1005D000F8BD000000487047000000207546FFF796
:1005E000F9FFAE46050069465346C008C00085467F
:1005F00018B020B5FFF7D6FD60BCB6460026002730
:10060000C0C5C0C5C0C5C0C5C0C5C0C5C0C5C0C5C2
:10061000403D490849008D46704710B50346406883
:1006200001E003464068002801D08842F9D31868E9
:10063000C3188B4206D0CB1CD808C000001D411A3D
:10064000521A0146081D0A60FFF78FFE10BD10B553
:100650000446C046C0462046FFF793FD10BD10B5C6
:1006600000F012F800F009F810BD00000149182050
:10067000ABBEFEE726000200704710B5002801D08F
:10068000FFF7F4FF10BD000010B5012805D00021D0
:1006900003A000F021F8012010BD09A1F8E7000037
:1006A00053494752544D454D3A204F7574206F665B
:1006B0002068656170206D656D6F727900000000C3
:1006C0003A2048656170206D656D6F727920636FA7
:1006D000727275707465640070B505460C460A2028
:1006E00000E06D1C00F012F8002D06D028780028DC
:1006F000F7D102E0641C00F009F8002C02D0207849
:100700000028F7D10A2000F001F870BD08B569464D
:1007100008700320ABBE08BDF0B58BB00124A00467
:10072000214600F04FFA6006214600F059FA1D4FAD
:1007300008210E263846324600F00AFA09213846CA
:10074000324600F005FA08AEF47102253571200238
:1007500008903846314600F049F90027B771124831
:10076000B080600208900F48314600F03FF900F079
:100770001FF805AC204600F01BF9E7806780278151
:1007800067810A48A0802580204600F07BF8FF2181
:10079000023101A8818101970297039700F014F8B4
:1007A0000BB0F0BD00040048020300000706000083
:1007B00010B501214C06204600F020FA0021204609
:1007C00000F01CFA10BD0000F0B581B028490B689C
:1007D000012213430B60857A1346AB40CC699C43DE
:1007E000CC61DF43067B012E0ED0002E1FD1CE68D8
:1007F00000973E40CE60ED004E194788C48824041F
:10080000E419346406460BE00097CC681C43CC60C6
:10081000ED004C19468807883F04BE192664861DE2
:100820004C1935888688360475196564009F4D68B3
:10083000C47A002C09D01D434D600589012D09D0D3
:10084000002D0AD14D693D4006E03D404D600589CF
:10085000012DF5D14D691D434D61407B012802D129
:10086000C8691843C86108689043086001B0F0BDCA
:100870000066004080B5002000F08CF8012000F0F8
:1008800089F880BD70B50146404A1068022398433C
:10089000106013680120034313603D4B1C465568EC
:1008A000ED070CD15568ED0709D15568ED0706D164
:1008B0005568ED0703D1251F002C2C46EFD1546855
:1008C000E40701D1002070BD8C79641E654265414A
:1008D000EC0115688026B5432C191460CC79641E90
:1008E00065426541AC0115684026B5432C1914607A
:1008F0000C7A641E654265416C0115682026B5437B
:100900002C1914604C7A641E654265412C011568EF
:100910001026B5432C1914608C7A641E654265411B
:10092000EC0015680826B5432C191460CC7A641EB7
:1009300065426541AC0015680426B5432C19146066
:100940008C78A407CD782D0625430C7924042C1926
:100950004D792D0525430988491E2943D161116828
:10096000814311605168C9070CD05168C90709D08B
:100970005168C90706D05168C90703D0191F002B59
:100980000B46EFD15168884370BDC04600640040FB
:10099000FCFF00000549002802D0012804D1091DF0
:1009A0000968032008407047002070470C6400402D
:1009B0000021C18041800181418102498180012162
:1009C000018070470302000080B5012000F008F8A4
:1009D00080BD80B50120400300F002F880BD00001A
:1009E000014908607047C04614040140F0B587B063
:1009F0000E460D68E94304910024022305950196F3
:100A00000BE08168039A11438160416B2943416384
:100A10001B1DA41C102C00D196E001221746A740F4
:100A20003D4249D0069203939B1E032199400291B7
:100A3000CA4335463679711E012912D881681140A2
:100A4000816069799940009282680A4382604168B6
:100A5000B9434160A979A14089B242680A43426022
:100A6000009A0168114001609E40016831430160B5
:100A7000C1681140C160E9799940C2680A43C26007
:100A8000026B297A01292E4603D004990A40059D5C
:100A900001E0059D2A43039B02637179042906D175
:100AA0008168029A11438160416B294302E0416BE6
:100AB000049A1140069A4163611C8A401542A7D0EE
:100AC000069203229A400392D5433279571E012F92
:100AD00014D887682F40876077799F4086683E43A7
:100AE00086604668069FBE434660019EB6798E408A
:100AF00016490E4041683143019E4160016829401A
:100B000001609A40016811430160C1682940C160D9
:100B1000F1799940C2680A43C260016B327A012AB6
:100B200007D0049A1140059D01637179042907D10A
:100B300067E7059D294301637179042900D160E7C6
:100B4000416B049A114062E707B0F0BDFEFF000060
:100B5000B0B54B07DB0E0F249C400725A94308299D
:100B600001D0202100E024214558A54345509A405A
:100B7000435813434350B0BD70470000F0B50E49D1
:100B800002788378002B0FD0FC2313400B4C1D59A7
:100B90009607F60EFF27B740BD4340788001C0B2EC
:100BA000B0402843185100E080311F20024001204E
:100BB00090400860F0BDC04600E100E000E400E0C5
:100BC00070470000054A002903D0116801431160F5
:100BD00070471168814311607047C046141002408D
:100BE000054A002903D0116801431160704711685C
:100BF000814311607047C0461C100240054A00291D
:100C000003D011680143116070471168814311607E
:100C10007047C04610100240054A002903D01168F1
:100C20000143116070471168814311607047C046ED
:100C300018100240F0B585B0012211040291764FE0
:100C40002C3F39680906754C754D039214D42B4618
:100C50002C3B19680907890F022917D3032914D0DF
:100C600019688902090F8A1C1968029B194200D071
:100C7000C2E0724C544309E039688906490F0429DF
:100C800003D8890068A2545800E0664C04602A46E4
:100C90002C3A11680906090F694B5E5C2146F14048
:100CA000416012685205520F9A5C2B68DB065B4B61
:100CB00000D52346D1408160C360032204923B6883
:100CC0001B019B0F0B4614D0049A96063B683340D9
:100CD000039A92069342514B0BD03A683240039BE1
:100CE000DB069A42234604D03A683240B2420B46B1
:100CF00000D10361039AD7032A6892070B4611D0EB
:100D00002A68049B1A40012A23460BD02A68049BB8
:100D10001A40022A3B4605D02A68049B1A40032A3F
:100D20003E4B00D14361049A16042A689203920F45
:100D30000B4611D02A683240029B9A4223460BD0C0
:100D40002A683240039B5B049A423B4604D02A68DF
:100D50003240B242314B00D1836101972E4F3A6845
:100D600032420B4611D03A683240029B9A422346E7
:100D70000BD03A683240039B5B049A42019B04D03B
:100D80003A683240B242254B00D1C3613A6812033F
:100D9000920F039B12D004998E04396831409A0453
:100DA000914221460AD039683140DA0491420199D2
:100DB00004D039683140B142184900D10162103D78
:100DC00029688905890F15D0049909022A680A4003
:100DD0001C461B029A42019A0BD02A680A40630201
:100DE0009A4201D1174A04E02A680A408A4201D196
:100DF000154A426205B0F0BD291F09683B68074BE0
:100E00005A430F230B40591C0646104600F070FB56
:100E1000044630463AE7C0461411024000127A00F8
:100E200030100240007E5603008000007E9A0000D1
:100E3000007E5603809FD50000127A0000093D0015
:100E4000E61600087E9A000090D0030070477047B5
:100E5000F0B585B05548021F136801210B4301917D
:100E600013600368524C1C4004601368514C1C40D2
:100E700014608B0414689C431460C36A4E4C1C407D
:100E8000C462036B8B4303630023029343604B4CA8
:100E900023600C07856925438561494D2C46283C14
:100EA000484E2660484E2660FF273C022B1F1968DB
:100EB000A143464E767C360271181960B943434F00
:100EC0003E7C891919602968414B1940FE68414FE1
:100ED0003E40711800912960294614390E681E4061
:100EE0003A4B9B683B409B19019E0B6029460C398D
:100EF000364B1B680B707103009B1943029F334BE9
:100F00001B682960083D190A29703049C98B324B8A
:100F1000596304970397116835463143116011688E
:100F200002230B4003930499491C0491039900295F
:100F300004D12146FF31049B8B42F0D1116889070F
:100F400004D403970399012904D02DE00395039954
:100F5000012929D121490A68102313430B600A682B
:100F600007239A430A600A680A6001680160016801
:100F70000160194B196880229143196001680322AE
:100F8000914301600168016001680907890F0BD076
:100F900001680907890F07D001680907890F03D085
:100FA00001680907890FEFD105B0F0BD04100240B8
:100FB0000CF8FF00FFFFF6FEECFFFCFF9020024064
:100FC000747000408519000029040000DCF7FF1F41
:100FD00000F0FFFFFF0F0000E81002400020024079
:100FE00010B55B4C0121204600F058F8002807D0CE
:100FF00004480168491C01600121204600F03CF8CA
:1010000010BDC0464408002080B5FFF7E9FF80BD51
:1010100070B584B0102001242146FFF7E1FD01AE38
:10102000304600F099F80020B072308111480290EB
:1010300007200190464D2846314600F051F82846D9
:10104000214600F019F828462146224600F030F8E3
:101050002021284600F03AF82846214600F010F8F2
:10106000684684700321417011210170FFF786FDED
:1010700004B070BDE7030000134A4A4002617047A4
:101080000268002903D001210A4302607047024927
:101090000A4002607047C046FEFF000002690A4035
:1010A000531E9A41C0680840411E88411040704755
:1010B000002A03D0C2680A43C2607047024A514006
:1010C000C2680A40C2607047FFFF00004268034BDD
:1010D0001340436042680A43426070478FFF00003C
:1010E00010B5036801229407A04205D0164CA04217
:1010F00002D0164CA0420CD17024A3434C881C4350
:10110000134B984209D003231B029C430B892343B2
:1011100004E01C460E4B9842F5D123469BB2036077
:101120004B68C3620B8883620A4BC3180A24E341ED
:10113000072B06D814469C40E1231C4201D0897A33
:101140000163426110BDC046002C01400004004014
:101150000010004000D4FEBF002101818172CA430B
:1011600006C07047B0B5764C304D2046294600F099
:101170006EF800280ED0204600F0E6F80649087008
:1011800000F0E6F82021204600F052F820462946DB
:1011900000F050F8B0BDC0464008002070B58AB0DD
:1011A0000546012460042146FFF70CFDA0032146FB
:1011B000FFF732FD00200690049003900290019505
:1011C0000C2005900921CD0628462246FFF7C0FCD9
:1011D0000A2128462246FFF7BBFC1348089060020C
:1011E000079007AE28463146FFF700FCA0020790A3
:1011F00028463146FFF7FAFB514D01A9284600F079
:1012000045F80A492846224600F026F868468470C8
:10121000022141701B210170FFF7B0FC28462146D6
:1012200000F00DF80AB070BD0203000105010500D1
:1012300001627047090C01228A40026270474A1E0F
:101240009141026801239A43511801607047C069B7
:101250000840411E8841704710B5CCB20123090AED
:10126000C9B2032909D0022900D1001DA340002AD8
:1012700007D001681943016010BD0830A340002A5F
:10128000F7D101689943016010BD0000F0B58BB043
:101290000D46044600680127B8432060032001037F
:1012A00062688A43A968114361602168224A0A4042
:1012B00069681143EA680A43296911432160000201
:1012C000A168814368690843A0606E463046FFF715
:1012D000B1FC1A48844204D0082019498C4204D039
:1012E00004E0182016498C4200D11420365820689A
:1012F000000400D576002D683046294600F0F8F845
:1013000029464143711AFA036B08994206D22168B3
:10131000114207D180B2E0600BB0F0BD401C2168E3
:101320001142F7D0074901400007400F401880B232
:10133000E0600BB0F0BDC046F3E9FFFF00440040A1
:1013400000380140F0FF0000406AC0B27047000062
:1013500007490A68120608D40A68120605D40A6802
:10136000120602D40A681206F3D5C8607047C04658
:101370001C380140F0B581B0134D284600F099F8B3
:101380001248134C29462246FEF77EFF114D28468F
:1013900000F042F8104829462246FEF775FF0F4F2D
:1013A000381D00F021F83D460C3500262846314610
:1013B00000F020F80A4829462246FEF765FF094852
:1013C00078803E7001B0F0BD78000020C1140008A4
:1013D0000000000888050020A51400086000002017
:1013E000FF130008FF0700000021C17081704170E9
:1013F0000170704700220260426001727047B0B510
:1014000004460068002805D0856900F060F8002DCA
:101410002846F9D12046B0BD10B504465520C0007D
:10142000002121522018142202810122120642605A
:10143000817030212046FEF74CFFC0201149215019
:10144000A02111486050802160502146A0310F4AF0
:101450008A61086188602146803188610C4A0A618E
:1014600088600C49A1670C492167A0662066A065C9
:101470000A492165A0642064A163094820632046CD
:1014800010BDC04656F41D1856F4EC1C56F41A1044
:1014900056F4121856F40A1056F4081856F40118A7
:1014A00056F426185521C9000022425241188A706C
:1014B00070474F2109010022425241188A7070473B
:1014C0004F2109010022425241188A70704780B5AD
:1014D000FEF74BFF80BD80B5FFF7BAFCFFF71CF9A4
:1014E000FFF796FDE1204002FFF758FE002080BD87
:1014F00043088B421AD3002203098B4279D3030A93
:101500008B425ED3030B8B4242D3030C8B4227D317
:101510000902FF2212BA030C8B4202D312120902F3
:1015200003D0030B8B4233D31AE0D3E0411A80413E
:10153000401C704703460B4371D443088B42F5D3DC
:10154000002203098B4254D3030A8B4239D3030B85
:101550008B421DD3030C8B4202D394466EE0090AE2
:10156000C30B8B4201D3CB03C01A5241830B8B4276
:1015700001D38B03C01A5241430B8B4201D34B035F
:10158000C01A5241030B8B4201D30B03C01A5241C4
:10159000C30A8B4201D3CB02C01A5241830A8B4249
:1015A00001D38B02C01A5241430A8B4201D34B0232
:1015B000C01A5241030A8B4201D30B02C01A524196
:1015C000CDD2C3098B4201D3CB01C01A524183094A
:1015D0008B4201D38B01C01A524143098B4201D384
:1015E0004B01C01A524103098B4201D30B01C01AAF
:1015F0005241C3088B4201D3CB00C01A5241830829
:101600008B4201D38B00C01A524143088B4201D355
:101610004B00C01A5241411A524110007047CA0F84
:1016200000D04942031000D34042534000229C4660
:1016300003098B422DD3030A8B4212D38901FC226A
:1016400012BA030A8B420CD3890192118B4208D340
:10165000890192118B4204D3890137D0921100E0A5
:101660008909C3098B4201D3CB01C01A52418309B6
:101670008B4201D38B01C01A524143098B4201D3E3
:101680004B01C01A524103098B4201D30B01C01A0E
:101690005241C3088B4201D3CB00C01A5241830888
:1016A0008B4201D38B00C01A5241D9D243088B42DE
:1016B00001D34B00C01A5241411A00D20146524197
:1016C000104663465B1000D34042704763465B1090
:1016D00000D3404201B50021004201D0C943084671
:1016E000C046C04602BD0000000001020304010222
:1016F00003040607080900000C170008000000207A
:0C170000480E0000200100086DFCFFFFF7
:04000005080000C12E
:00000001FF
