:020000040800F2
:10000000A0040020D90000086309000815090008B1
:1000100000000000000000000000000000000000E0
:10002000000000000000000000000000910C00082B
:100030000000000000000000B5090008350D0008B0
:10004000EB000008EB000008EB000008EB000008E4
:10005000EB000008A5060008EB00000805070008F3
:10006000EB000008EB000008EB000008EB000008C4
:10007000EB000008EB000008EB000008EB000008B4
:10008000EB000008EB000008EB000008EB000008A4
:10009000EB000008EB000008EB000008EB00000894
:1000A000EB000008EB000008EB000008EB00000884
:1000B000EB000008EB00000821030008EB0000083B
:1000C0000448854600F02CF800480047011000085D
:1000D000C046C046A00400200448804704480047AA
:1000E000FEE7FEE7FEE7FEE7FEE7FEE7390D000864
:1000F000C100000830B50B46014600202022012433
:1001000009E00D46D5409D4205D31D469540491B4B
:100110002546954040191546521E002DF1DC30BD94
:10012000064C0125064E05E0E36807CC2B430C3C4A
:1001300098471034B442F7D3FFF7C6FFD410000835
:10014000F4100008F0B58BB00121480400F034FC35
:1001500009200E220B21C00600F05EFB09200E22B2
:100160000C21C00600F058FB0120C00208900226B6
:1001700008A806710125C571092008A9C00600F06C
:10018000F7FA2803089008A8067100248471032751
:100190004771092008A9C00600F0EAFA1E21684646
:1001A00001774477857707A800F0DCFB012148063A
:1001B00000F010FC00F04CF804A800F00DFA6846BE
:1001C0008475C47506948474C474082101754775D8
:1001D000068204A800F000F968468472C5720573AF
:1001E0001749018044808480C4800481457300F0F5
:1001F0003BF868468572C5720573124901804480D8
:100200008480C4800581457300F02EF80F480E49A4
:1002100001604460447204728572FF2124311430FD
:10022000016045604472047285720121022000F071
:10023000C5F80121102000F0C1F80BB0F0BD00009E
:1002400020640000602400002103000078000020EA
:1002500010B501214C06204600F0CAFB00212046C3
:1002600000F0C6FB10BD000010B5827A01231946CC
:1002700091402A4A14681C431460D3698B43D361AC
:10028000037B002B12D1D3688B43D360C38844888F
:100290001B042343847AE400A4182364838804881D
:1002A0001B042343847AE400A4186364037B012BBA
:1002B00012D1D3680B43D360038844881B042343C3
:1002C000847AE400A41823648388C4881B0423432D
:1002D000847AE400A4186364C37A002B06D05368C0
:1002E0000B4353600389002B04D006E053688B4313
:1002F0005360F7E753698B4353610389012B02D1A4
:1003000053690B435361407B012802D1D0690843F4
:10031000D061106840084000106010BD00660040C9
:1003200070B5002000F0D8F8134D00280DD0134907
:10033000002000F0E3F8114CE07A00F0ECFAE07AEB
:1003400028700FA114A000F0C9FD012000F0C4F82E
:1003500000280FD009490120143100F0CFF8074CD4
:100360001434E07A00F0D7FAE07A28700DA10AA0E0
:1003700000F0B4FD70BD000000000020500000201F
:100380004649464F30203A204D73672072656365B9
:1003900069766564000000000D0A202573200D0AAF
:1003A000000000004649464F31203A204D73672037
:1003B000726563656976656400000000054A00297E
:1003C00003D05169014351617047516981435161C3
:1003D000704700000064004010B500223C490B68E3
:1003E0000224A3430B600B68012423430B60394BA9
:1003F00000E0521C4C68E40701D19A42F9D14A68E6
:10040000D2073ED084798022012C3CD00C689443E2
:100410000C60C4794022012C39D00C6894430C60E4
:10042000047A2022012C36D00C6894430C60447A64
:100430001022012C33D00C6894430C60827A08247B
:10044000012A30D00A68A2430A60C47A0422012C2F
:100450002DD00C6894430C608278C47892072406EF
:10046000224304792404224344790088240522434A
:10047000401E0243CA61086840084000086000202E
:100480001AE0002010BD0C6814430C60C1E70C6832
:1004900014430C60C4E70C6814430C60C7E70C6895
:1004A00014430C60CAE70A6822430A60CDE70C686F
:1004B00014430C60D0E7401C4A68D20701D0984230
:1004C000F9D14868C00701D0002010BD012010BD3F
:1004D00000640040FFFF000001460020064A00299A
:1004E00005D0012902D110698007800F7047D068BC
:1004F0008007800F704700000064004070B504253D
:100500000223334A202400282CD0324806682E408B
:100510000E72002E58D00568ED084D6005681D402C
:100520004D7243681B071B0F8B7243681B0ACB7409
:100530008368CB7283681B0A0B7383681B0C4B7335
:1005400083681B0E8B73C368CB73C3681B0A0B7461
:10055000C3681B0C4B74C068000E8874106920437C
:10056000106170BD1B484038066B2E400E72002E85
:1005700026D0056BED084D60056B1D404D72436B39
:100580001B071B0F8B72436B1B0ACB74836BCB72E5
:10059000836B1B0A0B73836B1B0C4B73836B1B0EE0
:1005A0008B73C36BCB73C36B1B0A0B74C36B1B0CBA
:1005B0004B74C06B000E8874D0682043D06070BD4F
:1005C000056B6D0D0D60D7E705686D0D0D60A5E736
:1005D00000640040C065004000218171C17101725A
:1005E00041728172C1728170C17003210171022157
:1005F000417101210180704730B5002227498B6885
:100600005B010AD48A68120101D5012205E08968DC
:10061000C90001D5022200E00422042A35D0204975
:10062000130159180B78DB07DB0F0B60047A002CE1
:100630002DD023434568447AED002C4323430B60BF
:10064000837A1B071B0F83724B681B091B014B60CE
:10065000847A23434B60847BC37A24062343447B00
:10066000057B24042D022C4323438B60847CC37BB5
:1006700024062343447C007C2404000204432343D7
:10068000CB600868012318430860104630BD447AE7
:1006900023430488640523430B60D1E700640040D2
:1006A0008065004010B50D4C2078042801D1002051
:1006B00020702078401CC0B2207000F02CF908494E
:1006C0002078C8720846FFF797FF06A10AA000F03D
:1006D00005FC012000F046F810BD000000000020DD
:1006E0008C0000204D534731203A207472616E73A4
:1006F0006D697465640000000D0A202573200D0AE1
:100700000000000010B50D4C2078022801D2052011
:1007100020702078401EC0B2207000F0FCF808491C
:100720002078C8720846FFF767FF06A10AA000F00C
:10073000D5FB0120400300F015F810BD000000209B
:10074000780000204D534730203A207472616E7358
:100750006D697465640000000D0A202573200D0A80
:10076000000000000149486170470000000401409A
:10077000F0B500220327012393400C681C409C42E3
:1007800039D10C79012C01D0022C13D18668540088
:100790003D46A540AE4386604D79A540846825431B
:1007A000856044689C43446043688C799440A4B25B
:1007B00023434360056853003C469C40A5430560C5
:1007C0000D7906689D4035430560C568A543C56041
:1007D000CD799D40C3681D43C5600B7A012B0ED0B7
:1007E000036B0D68AB4303634B79042B0CD0436B55
:1007F0000C68A3434363521C102ABCD3F0BD036BA7
:100800000D682B430363EFE7836823438360436BE7
:100810000C6823434363EEE710B54B07DB0E9A40A9
:10082000CC080F219940012C06D0036A8B43036248
:10083000016A1143016210BD436A8B434362416AFE
:100840001143416210BD0000F3B583B00546234952
:10085000AC002248091D005909590843012100F044
:10086000ABF81E480121001F005900F0CFF81B48CB
:100870001B4E0A38425D801E415D3059FFF7CCFFA8
:100880001648371D0938425D801E415D3859FFF713
:10089000C3FF12486D000838405B009002206A4692
:1008A00010710120507100219171D0713059694649
:1008B000FFF75EFF0948801F405B0090385969468A
:1008C000FFF756FF351F2859049900F0B1FA28594F
:1008D000012100F0A1FA05B0F0BD00006010000891
:1008E00008000020034A4100515A034A8000105872
:1008F000816170477E10000810000020034A41000B
:10090000515A034A80001058816270477E100008D7
:1009100010000020FEE710B504460020FFF7E2FFBC
:100920000120FFF7DFFF0220FFF7DCFF0320FFF7C6
:10093000D9FF012C09D0022C0BD0032C0DD0042C94
:1009400002D10320FFF7DAFF10BD0020FFF7D6FF2A
:1009500010BD0120FFF7D2FF10BD0220FFF7CEFF30
:1009600010BD704730B5827801240178002A16D076
:100970008B080E4A9B009A1813688907C90EFF2539
:100980008D40AB434578AD072D0E8D401D4315605E
:100990000078C006C00E84400548046030BDC8061B
:1009A000C00E844002488030046030BD00E400E0A6
:1009B00000E100E070470000054A002903D05169BA
:1009C0000143516170475169814351617047000093
:1009D00000100240054A002903D0D1690143D161CA
:1009E0007047D1698143D161704700000010024017
:1009F000054A002903D0116901431161704711694B
:100A0000814311617047000000100240054A00292F
:100A100003D091690143916170479169814391616C
:100A20007047000000100240F8B50446904FB86AC5
:100A30000006C00F01268F498F4DF603002802D013
:100A400001283AD049E08A4AC03A50680C2318403D
:100A5000002807D0042807D0082807D00C282AD05F
:100A600025603AE0256038E0256036E050680F21C7
:100A700089040840516801231B041940800C801C24
:100A800000290ED0D16A0907090F491CBA6A1B1246
:100A90001A40002A09D0784A5043FFF72BFB206008
:100AA0001BE076494843206017E0734A5043FFF744
:100AB00021FB206011E021600FE0B86A382210406D
:100AC00010282BD004DC002823D0082804D122E0F1
:100AD000182825D0202826D021606549C0394868CB
:100AE000F02210400009664A135C20680246DA4092
:100AF000944662604A6807231B021A40120A604B40
:100B00009B5C6246DA40A2600B6BDB060DD4E560AD
:100B10000CE02660E1E75B482060DEE72160DCE76F
:100B200059482060D9E72560D7E7E060BB6A1B0120
:100B30009B0F0FD0BB6A1B019B0F012B0CD0BB6A14
:100B40001B019B0F022B09D0BB6A1B019B0F032BC0
:100B500006D006E0226104E0256102E0206100E0A9
:100B600022610B6B9B070ED00B6B9B079B0F012B1E
:100B70000BD00B6B9B079B0F022B08D00B6BDB433F
:100B80009B0706D006E0626104E0606102E06661F6
:100B900000E065610B6B9B039B0F0FD00B6B9B03FE
:100BA0009B0F012B0CD00B6B9B039B0F022B09D0CF
:100BB0000B6B9B039B0F032B06D006E0A26104E0A6
:100BC000A06102E0A66100E0A561294B40335F69A6
:100BD000BF03BF0F0FD05F69BF03BF0F012F0CD042
:100BE0005F69BF03BF0F022F09D05F69BF03BF0F4B
:100BF000032F06D006E0E26104E0E06102E0E66176
:100C000000E0E5615F693F03BF0F0FD05A6912032F
:100C1000920F012A0CD058690003800F022809D0D6
:100C200058690003800F032806D006E0226204E022
:100C3000206202E0266200E02562086A8005800FDB
:100C400010D0086A8005800F01280CD0086A800542
:100C5000800F022809D0086A8005800F032801D17F
:100C60000A486062F8BD6662F8BD06486062F8BD79
:100C7000C0100240007E560300127A0000093D00B9
:100C80003C0000207E9A0000809FD50090D0030099
:100C9000704710B500F002F810BD00001CB500232D
:100CA000019300932148816A012212041143816259
:100CB0005100541E826A0A400092019A521C01920D
:100CC000009A002A02D1019AA242F3D1816A8903D3
:100CD00002D50121009100E000930099012924D15F
:100CE00013490A6810231A430A600A68D208D2001E
:100CF0000A600A6802231A430A600C49C0394A682C
:100D00004A604A680C1522434A60816A8022114376
:100D10008162816AC908C9008162816A194381625E
:100D2000816A8906490F0229FAD11CBDC010024010
:100D3000002002407047000070B52D480168012274
:100D40001143016041682B4A1140416001682A4A01
:100D50001140016001680122920491430160016B1E
:100D6000264A11400163416B490849004163002153
:100D70008160234A1161C16902041143C1612248A3
:100D80002049C1602149C1602149FF24036B24022D
:100D9000CA6AA343144023431B0A1B02D2B2134363
:100DA0000363426B130B0A8D1B031205120D1343D1
:100DB000026A8C8C120B12032405240D224302625A
:100DC000826A140A8A8B2402D5B22C438462C46AD4
:100DD0001204240A2402120E1443C4624214134360
:100DE0004363886B0B49000CC861FFF752FF70BD6D
:100DF000001002400CF8FF00FFFFF6FEECFFFCFFC6
:100E00008020024085190000407000402904000045
:100E1000C0F7FF1F00110240002904D00168012221
:100E2000114301607047016849084900016070473B
:100E300030B58BB004460D46206840084000206065
:100E40006068032109038843A96801436160206841
:100E50001C490840EA68696811432A690243114342
:100E60002160A06803210902884369690143A160E8
:100E70006846FFF7D9FD1448844201D1059805E082
:100E80001248844201D1069800E0029821680904C2
:100E900004D540002968FFF72DF902E02968FFF723
:100EA00029F92A6852088A4200D8401C216809049E
:100EB00004D50107490F064A1040084380B2E0609C
:100EC0000BB030BDF3E9FFFF0038014000440040A3
:100ED000F0FF0000C905C90D816270470FB410B55D
:100EE00003A9044B044A029800F017F810BC08BC90
:100EF00004B01847ED0F00084C00002002E008C8BD
:100F0000121F08C1002AFAD170477047002001E083
:100F100001C1121F002AFBD17047FFB581B0054601
:100F2000002706E025280AD0049A039990476D1CF3
:100F30007F1C28780028F5D1384605B0F0BD002286
:100F400069786D1C10462E2913D1697804226D1C16
:100F50002A2909D102996D1C01C9029109E00A23CD
:100F60005843303808186D1C29780B46303B092B44
:100F7000F5D92B78002BDFD0632B07D0732B10D043
:100F8000049A1846039990477F1C2DE002996C46FD
:100F90000B782370091D0291002161706E460121BA
:100FA00004E0029940C902910021C94352070AD5C1
:100FB000002400E0641C84420DDA8C42FADB325DCE
:100FC000002AF7D107E0002400E0641C8C42FCDB1F
:100FD000305D0028F9D13F1904E03078049A761C7E
:100FE00003999047641EF8D26D1CA2E738B50446F9
:100FF0006846047069460320ABBE204638BD000039
:1010000086B0E12040020090002001900290039001
:1010100005900C20049069460020FFF715FCFFF7AF
:1010200091F80B4C61212046FFF754FF62212046C6
:10103000FFF750FF63212046FFF74CFF6421204655
:10104000FFF748FF65212046FFF744FFEAE700006D
:1010500000380140090A01010002000400400000BC
:101060000000020000000200020102020202000D64
:101070000808090607000707070707070500000417
:101080000008001004000000000008000000080034
:101090000000080000001000002000010001000214
:1010A0004000800001000000000008000000040073
:1010B0000000080000000800000008000000080010
:1010C000000002000020000100010002400080003A
:1010D00001000000F4100008000000205000000093
:1010E000FC0E0008441100085000002050040000CD
:1010F0000C0F00080000000000380140000000480C
:1011000000000048000800480008004800080048A7
:10111000000C00480008004800040048000800488F
:101120000008004800080048000800480000004887
:10113000000000000102030401020304060708097D
:0411400000000000AB
:04000005080000C12E
:00000001FF
