:020000040800F2
:1000000060040020D50000084D090008110900080F
:1000100000000000000000000000000000000000E0
:10002000000000000000000000000000150A0008A9
:100030000000000000000000A1090008810A00087B
:10004000E7000008E7000008E7000008E7000008F4
:10005000E7000008BD060008E7000008C106000828
:10006000E7000008E7000008E7000008E7000008D4
:10007000E7000008E7000008E7000008E7000008C4
:10008000E7000008E7000008E7000008E7000008B4
:10009000E7000008E7000008E7000008E7000008A4
:1000A000E7000008E7000008E7000008E700000894
:1000B000E7000008E7000008B5030008E7000008B3
:1000C0000348854600F014F800480047F50B000887
:1000D000600400200448804704480047FEE7FEE72C
:1000E000FEE7FEE7FEE7FEE7850A0008C10000081C
:1000F0001CB5094800900948019005460126009C5E
:1001000005E0E36807CC33430C3C98471034AC421D
:10011000F7D3FFF7D9FF0000980D0008B80D0008CD
:100120002D4988421ADC411E1F2932D879440979A9
:1001300049008F440F4B4B404B4B4B444B4B4B4B6D
:100140004B4B4B4B4B4B4B4B4B4B4B4B4B4B4B4BFF
:100150004B4B4B3C22489649416070471F498842AF
:100160000ADC01214A02904219D08A02904216D03C
:10017000C902884216D029E00121CA03904211D059
:100180000A0490421FD0490488421FD1144810210C
:100190001BE040281BD001210902884216D11048DB
:1001A000042112E00E480021416104210DE00C48B9
:1001B0000821C16070470A480821816070470848DB
:1001C000102181607047064808210160704704488B
:1001D0001021C1607047C046FF010000FF7F000092
:1001E0000464004010B501214C06204600F0F6FBE7
:1001F0000021204600F0F2FB10BD0000F0B581B0F8
:1002000027490B68012213430B60857A1346AB40E4
:10021000CC699C43CC61DF43067B012E0ED0002EBF
:100220001FD1CE6800973E40CE60ED004E19478842
:10023000C4882404E419346406460BE00097CC68B3
:100240001C43CC60ED004C19468807883F04BE195A
:100250002664861D4C1935888688360475196564B0
:10026000009F4D68C47A002C01D01D4300E03D4042
:100270004D600589012D04D0002D05D14D693D400B
:1002800001E04D691D434D61407B012802D1C869E1
:100290001843C86108689043086001B0F0BDC046CB
:1002A0000066004010B501463F4A101F0368002059
:1002B0000B4200D154E0FF2900DD2BE0491E3F290D
:1002C00000D94DE07944097949008F441F534955BD
:1002D0004949494E4949494949494957494949497B
:1002E00049494949494949494949494C494949497B
:1002F000494949494949494949494949494949496E
:1003000049494949494949494949494A103A1168BD
:10031000274839E0254B99420BDD7B4B994216DC8F
:100320000123DC02A1422DD0DB03994218D1143AFB
:1003300009E001231C02A1422FD05C02A1422FD070
:100340009B0299420CD110684007C00F10BD0123D9
:100350001C04A1421CD05B04994201D1143A05E06F
:1003600010BD083A02E0083A13E00C3A1068C006E3
:10037000C00F10BD0C3A02E00C3A0AE0083A1168CE
:10038000032001E0116870200840411E884110BD23
:10039000143A10680007C00F10BD1068184010BD57
:1003A00010688007C00F10BD18640040FF070000F0
:1003B0000101010010B50220FFF774FF002817D0DB
:1003C0000420FFF7ADFE00200A4C214600F09EF805
:1003D0002068094988420BD1207A002808D1A07AE8
:1003E000012805D1E07A00F095FAE07A0349087017
:1003F00010BDC04634000020210300003000002062
:10040000054A002903D01168014311607047116843
:10041000814311607047C04614640040F0B5394A0A
:100420001168022399431160116801231943116077
:10043000354C254600216D1E0E464E415768FF077C
:1004400001D1002EF6D15568ED0758D08179491EAB
:100450004D424D41E90115688026B5436918116088
:10046000C179491E4D424D41A90115684026B54349
:1004700069181160017A491E4D424D4169011568A4
:100480002026B54369181160417A491E4D424D41FD
:10049000290115681026B54369181160817A491E33
:1004A0004D424D41E90015680826B54369181160B1
:1004B000C17A491E4D424D41A90015680426B54335
:1004C0006918116081788907C5782D060D43017977
:1004D0000904691845792D050D430088401E2843FD
:1004E000D0611068984310600020641E404151683C
:1004F000C90701D00028F7D1506883431946084640
:10050000F0BDC04600640040FFFF000070B5344AF3
:10051000344B002808D09868042404400C72986872
:100520000DD1400D08600CE0184608380468042519
:1005300025400D7204682AD1640D0C6029E0C008C2
:1005400048609D68DC68D8681E69CE721E69360AEC
:100550000E731E69360C4E731E69360E8E735E69FD
:10056000CE735E69360A0E745E69360C4E745B6932
:100570001B0E8B7402232B404B720F2323408B7274
:10058000000AC874506820210143516070BDE4081E
:100590004C600568181F046800681E68CE721E68EB
:1005A000360A0E731E68360C4E731E68360E8E7336
:1005B0005E68CE735E68360A0E745E68360C4E74E2
:1005C0005B681B0E8B7402232B404B720F2323405E
:1005D0008B72000AC874106820210143116070BD3D
:1005E0000C640040B86500400021C1804180018159
:1005F000418102498180012101807047030200008E
:1006000070B52C4B1968490100220029114603D509
:10061000002A18D0084670BD196809010BD40121C1
:1006200009071B680B405A425A41002B08D002218F
:10063000002AEFD107E001210022002AEAD102E0DE
:100640000421002AE6D10B011B4D5C590122144004
:100650005C515B19067A002E03D04568ED003543E6
:1006600001E005686D05467A2E4326431E60847AB4
:100670000F252C405E68AE4335195D60857B2D06E5
:10068000467B36047519067B3602AD19C67AAD195C
:100690009D60857C2D06467C36047519067C3602E5
:1006A000AD19C67BAD19DD608472186810431860FF
:1006B000084670BD08640040806500407047000037
:1006C00080B5034801210170480300F003F880BDA4
:1006D00031000020014908607047C0461404014001
:1006E00010B582791549002A1CD002680B68934323
:1006F0000B604B6893434B6003790B431C681443B6
:100700001C6002688B6893438B60CB689343CB601B
:10071000407910280DD1886810438860C86810435C
:10072000C86010BD02790A430068116881431160F6
:1007300010BD084301681143016010BD0004014071
:10074000F0B582B00B68DA4300920024254601938D
:1007500007E0426B009E32404263A41C6D1C202CBB
:1007600041D00126AE403342F7D00F797B1E012BDA
:1007700012D80323A34082689A4382604A79A24038
:100780008368134383604268B24342608A79AA4017
:1007900092B24368134343600326A6400268B24303
:1007A0000260A74002683A430260C268B243C26076
:1007B000CA79A240C3681343C3600A7A012A04D1EC
:1007C000026B019B1A43026304E0026B009B1A4018
:1007D0000263019B4A79042ABBD18268324382605A
:1007E000426B1A43B8E702B0F0BDB0B54B07DB0E61
:1007F0000F249C400725A943082901D0202100E0AF
:1008000024214558A54345509A404358134343502B
:10081000B0BD000070B584B0044685000948405959
:10082000012100F0BFF8600011490C5A01940648FC
:1008300002900E4E705901A9FFF782FF7059846132
:1008400004B070BD800D0008010300008100074A5C
:1008500051584000064A105A886170478100034A87
:1008600051584000024A105A886270471C0000200C
:10087000900D0008F0B589B00291044686001D482D
:1008800080590125294600F08DF82846294600F0B8
:10089000B3F806A90027CF710F71620016480192C4
:1008A000805A069015488059FFF74AFF02980128A0
:1008B0001DD11348005D1349095D00F0ADF804A88F
:1008C0008571012C01D80C2100E0082141710771CC
:1008D0000D49019A895A0491FFF702FF03A8857018
:1008E000032141700949095D017000F031F809B038
:1008F000F0BDC046300D0008620D00080000002069
:10090000770D0008700D00084C0D00085A0D000806
:10091000FEE7000010B504460020FFF797FF012016
:10092000FFF794FF0220FFF791FF0320FFF78EFFF0
:10093000601EC1B2032906D8C006000E0249C1409C
:10094000C8B2FFF78BFF10BD010203007047000023
:1009500070B501788278002A15D0FC220A400D4B30
:10096000D4588D07ED0EFF26AE40B4434078800189
:10097000C0B2A8402043D0501F2008400121814030
:100980000548016070BD1F200140012088400349D7
:10099000086070BD00E400E000E100E080E100E0FC
:1009A00070470000054A002903D011680143116017
:1009B00070471168814311607047C04614100240AF
:1009C000054A002903D0116801431160704711687E
:1009D000814311607047C0461C100240054A00293F
:1009E00003D01168014311607047116881431160A1
:1009F0007047C04610100240054A002903D0116814
:100A00000143116070471168814311607047C0460F
:100A1000181002407047000010B58B08032B23D834
:100A20008907090F0F228A407B441B795B009F4492
:100A3000011C0A13114B1C6894431C608840196800
:100A40000143196010BD0D4B9C6894439C60884025
:100A500099680143996010BD084BDC689443DC60E1
:100A60008840D9680143D96010BD044B5C68944349
:100A70005C60884059680143596010BD080001401E
:100A800070470000F0B584B04E48026801210A4367
:100A9000026042684C4B1340436002684B4B13406A
:100AA00003608A04036893430360026B484B13405E
:100AB0000363426B8A434263002301938360454A88
:100AC00013600A07C4691443C461434C2546283D9A
:100AD000424A2A608E02009629362E60FF273D0288
:100AE000221F1368AB433E4E707C0002C01810609A
:100AF000B843337CC018106020683A4A1040F3684D
:100B0000394F3B401F1827602046143803681340B4
:100B1000B268354E3240D218019B026020460C3834
:100B20002F4E326802704803384332682060083C18
:100B3000100A2070F08B2D4C60630393029308041D
:100B40002268024322604E042068304002900398DD
:100B5000401C03900298002804D12846FF30039AD5
:100B60008242F1D12068304201D1029300E002912B
:100B70000298012823D11E48016810220A4302600E
:100B80000721C94302680A400260026802231A432F
:100B900002600C4A506850605068009D28435060C5
:100BA000206880220243226020680840206020687C
:100BB000184320602068382101401029FAD104B080
:100BC000F0BDC046001002400CF8FF00FFFFF6FE2B
:100BD000ECFFFCFF9020024074700040851900007B
:100BE000DCF7FF1F00F0FFFFFF0F0000E8100240DE
:100BF000002002408CB000242046FFF70BFE0125A8
:100C00002846FFF707FE02200090FFF703FE0320AF
:100C1000FFF700FE20462946FFF72CFE2046FFF78F
:100C20001DFE68042946FFF7BDFE0920C7060B21FB
:100C30000E2638463246FFF7D8FD0C21384632469C
:100C4000FFF7D3FD09AEF57100983071E802099005
:100C500038463146FFF774FDB4712848B080280348
:100C6000099038463146FFF76BFD08A8857044703F
:100C70001E210170FFF76CFE68062946FFF7A0FEF3
:100C8000FFF7B0FA05AE3046FFF7AEFCF480748093
:100C9000348174816120C000B0800098308030467B
:100CA000FFF7BCFBFF21023101A88181019402946E
:100CB0000394FFF7A3FA124F124821C7BD703C807E
:100CC00000982946083FFFF79BFB0F4D2C700F4EF5
:100CD00034700BE03078401C3070C0B2FFF71AFE61
:100CE0003078F8723846FFF78BFC2C702878002893
:100CF000FCD030780428EDD13470EBE7020300001B
:100D000048000020210300003100002030000020B6
:100D100002E008C8121F08C1002AFAD170477047C4
:100D2000002001E001C1121F002AFBD17047000022
:100D30000000080000000400000008000000080097
:100D40000000080000000800000002000020000170
:100D500000010002400080000100070707070707A5
:100D60000500002000010001000240008000010099
:100D70000D08080906070002010202020200000035
:100D8000000008000000080000000800000010003B
:100D90000004000800100400B80D00080000002046
:100DA00030000000100D0008E80D000830000020A1
:100DB00030040000200D000800080048000400482E
:100DC00000080048000800480008004800080048E3
:100DD00000000048000800480008004800080048DB
:080DE000000C004800000000B7
:04000005080000C12E
:00000001FF
