:020000040800F2
:10000000B818002079020008756C0008B167000874
:10001000716C00089522000881790008000000003A
:1000200000000000000000000000000069720008ED
:10003000B922000800000000E56C0008C172000849
:10004000930200089302000893020008C16F0008A1
:10005000930200089302000893020008930200082C
:10006000930200089302000893020008930200081C
:10007000A9220008930200089302000893020008D6
:1000800093020008930200089302000893020008FC
:1000900093020008992200089302000893020008C6
:1000A00093020008930200089302000893020008DC
:1000B000930200089302000861730008930200088D
:1000C00093020008930200089302000893020008BC
:1000D00093020008930200089302000893020008AC
:1000E00093020008256D00089302000800F002F852
:1000F00000F0B3F814A696E8000CB244B344DA4515
:1001000001D100F0AAF8BAE80F000FA696E8300077
:10011000A5EB040504EB0607AAEB0704A7F101070A
:100120004FEA15154FEA3414A4F10104AC4201D38F
:1001300000F093F813F0010F18BFFB1A43F001030E
:1001400000F001F8DBE71847C09F0000E09F0000C7
:10015000103A24BF78C878C1FAD8520724BF30C8F3
:1001600030C144BF04680C60704700007047000055
:100170000023002400250026103A28BF78C1FBD8B0
:10018000520728BF30C148BF0B6070476E2900F08E
:10019000BF82702900F01384662909F069866529F9
:1001A00009F06686672909F06386612909F062868D
:1001B00003681B0A28BF41F08001692900F06C82A6
:1001C000642900F06982752900F066826F2900F0C9
:1001D000A183782900F0DF83E92900F03B83E4293B
:1001E00000F03883F52900F03583EF2900F09E8375
:1001F000F82900F0DE830368DB0928BF41F08001A5
:10020000632901F07F81732901F08481E32901F0E2
:100210008F81F32901F09481002070471FB59DE87C
:10022000030000F005FD01F0B7FA040000200021F2
:1002300009F05CFB401C60600020002109F040FBDD
:10024000E06001F085F900F001F91FBD10B5002054
:1002500001F049FA01F0E5F910BD01F06FFA11461D
:10026000FFF7DCFF08F0ECFE01F01EFD03B4FFF722
:10027000EDFF03BC01F058FA0948804709480047E0
:10028000FEE7FEE7FEE7FEE7FEE7FEE7FEE7FEE746
:10029000FEE7FEE704480549054A064B70470000A3
:1002A0005D730008ED000008B8120020B8180020A7
:1002B000B8140020B81400200FB4044910B503AAE4
:1002C000029800F057FA10BC5DF814FBF40000200F
:1002D0000FB41CB5084B06AA7B44694600900598EC
:1002E00000F02FFA04460020694600F03DFA20464F
:1002F0001CBC5DF814FB00008D0400000B46014699
:10030000184600F02BBC30B505460B462A4613F8BC
:10031000014B12F8010B08B1A042F8D01CB1002823
:1003200002D06D1CF1E7284630BD032A40F2308030
:1003300010F0030C00F0158011F8013BBCF1020F26
:10034000624498BF11F801CB00F8013B38BF11F8A7
:10035000013BA2F1040298BF00F801CB38BF00F8BE
:10036000013B11F0030300F01084083AC0F008804C
:1003700051F8043B083A51F804CBA0E80810F5E71F
:10038000121D5CBF51F8043B40F8043BAFF3008002
:10039000D20724BF11F8013B11F801CB48BF11F877
:1003A000012B24BF00F8013B00F801CB48BF00F847
:1003B000012B70474FF000020429C0F0128010F0AA
:1003C000030C00F01B80CCF1040CBCF1020F18BF31
:1003D00000F8012BA8BF20F8022BA1EB0C0100F0C4
:1003E0000DB85FEAC17C24BF00F8012B00F8012B97
:1003F00048BF00F8012B70474FF0000200B51346CC
:1004000094469646203922BFA0E80C50A0E80C5034
:10041000B1F12001BFF4F7AF090728BFA0E80C50E5
:1004200048BF0CC05DF804EB890028BF40F8042BDE
:1004300008BF704748BF20F8022B11F0804F18BF4B
:1004400000F8012B704770477047704708487CB52B
:100450007844009007487844009C0546019004E0E9
:100460002046016808448047241DAC42F8D17CBD79
:10047000009E0000FE9D000070B5064600F0B8FB2F
:10048000056806F10B0020F00704B4429CBF002071
:1004900070BD2B466A68BAB11068A04210D304F14F
:1004A000080188423CBF5068586007D35168101952
:1004B00041601168091B016058601460101D70BD17
:1004C00013465268002AE7D12146284600F09CFBDB
:1004D0000028DED170BD70B50446051F00F088FB12
:1004E0000068002C14BF446870BD002C18BFAC42DB
:1004F0003CBF20466468F8D301680A18AA4218BFB6
:10050000456003D12A6805461144016028684119F5
:10051000A1421CBF6C6070BD6168696021680844BD
:10052000286070BD2DE9F04791460C46804600F0EA
:100530005FFB0768604234EA000001D1042C02D25C
:100540000520BDE8F087601E40F0070609F10B00AA
:1005500020F007054D4539D93B467A6882B31468C7
:10056000101D404206EA000C644525D9A4EB0C009E
:10057000854221D8BCF1000F0BD0104601686244BF
:10058000A1EB0C01116041685160C0F800C05860D7
:100590000346116805F10800814205D35019491B33
:1005A000016015605860034652F8040F586000203F
:1005B000C8F80020BDE8F08713465268002ACED163
:1005C0002946384600F020FB0028C5D10620BDE8AA
:1005D000F08770B5044685690068C10601D53026EC
:1005E00000E02026C00707D070BDD4E901213046C5
:1005F0009047206A401C20626D1EF6D570BD70B514
:10060000044685690078C00707D170BDD4E901218F
:1006100020209047206A401C20626D1EF6D570BDD8
:1006200009684A0501D540B27047C905FCD500B23A
:10063000704709684A0501D5C0B27047C905FCD5A5
:1006400080B2704770B50C460546012A05D028785F
:10065000800600D5EA69002302E0012305E05B1C67
:10066000934202D2E05C0028F9D1A869E618C01ACA
:10067000A861286A184428622846FFF7AAFF04E008
:10068000D5E9012114F8010B9047B442F8D328466C
:10069000FFF7B5FF70BD00002DE9F04106460024CC
:1006A00010687529314616A510D0FFF7B9FF00284C
:1006B00002DA404213A507E031688A0701D512A586
:1006C00002E0490704D511A5012401E0FFF7B1FFBD
:1006D00000210A2206F1240709E0B0FBF2FCB0FB7E
:1006E000F2F302FB1C00303078541846491C0028F5
:1006F000F3D123462A463046BDE8F04100F012BB54
:10070000000000002D0000002B0000002000000071
:1007100011680268006A530501D508700AE0D30524
:1007200001D5088006E0130603D5C217C1E900020F
:1007300000E008600120704701694A1C02610878E6
:10074000704700B58FB0CDE9013100210591054911
:100750007944CDE903101146684600F03BF90FB02B
:1007600000BD0000E5FFFFFF0A6802F8010B0A6008
:1007700070470000074B70B50D467B44FFF7E1FF63
:100780000446284600F0E0FE10B14FF0FF3070BD87
:10079000204670BD259100002DE9FF5F15468A4671
:1007A0000446DFF8AC80F8440027D8E900103E4644
:1007B000CDE9001010E03AF816106A4602A800F0E1
:1007C00063FF411C07D02178890603D5E2693918F7
:1007D00091420DD80744761C2078800602D5E06946
:1007E000B84205DDAE42E6DB3AF816000028E2D159
:1007F000A069C01BA0612046FFF7EBFED8E90010FE
:10080000CDE90010002017E03AF818106A4602A857
:1008100000F03AFFB0F1FF3F81460BD000250DF10B
:10082000080B05E0D4E901211BF8050090476D1C79
:100830004D45F7D308F10100B0428046E4DB206A61
:10084000384420622046FFF7DAFEBDE8FF9F000033
:10085000CE9600002DE9F0418046D21D22F007021D
:100860000025D2E90002F52915A614D0011E72F167
:10087000000106DA0023D0EB030063EB020211A6AD
:1008800008E0D8F800108B0701D50FA602E0490751
:1008900001D50EA601251146002408F1240704E025
:1008A00000F0FBF930323A55641C50EA0102F7D1EE
:1008B0002B46324621464046BDE8F04100F032BAB0
:1008C000000000002D0000002B00000020000000B0
:1008D00030B4002100F1240408E002F00705D2083A
:1008E000303542EA4372DB086554491C52EA03057D
:1008F000F3D10468002310A2250708D504F02004D2
:100900000C4304D0C46901230CA2641EC46130BC32
:1009100000F008BA10B5044621461068FFF789FEBA
:1009200002462046BDE810400023D1E7D21D22F048
:100930000701D1E90023CBE70000000030000000F0
:10094000F0B40D460188090502D5214C7C4402E033
:100950001F4C7C440E34002100F1240608E002F014
:100960000F071209E75D42EA03721B097754491C1D
:1009700052EA0307F3D102780023120704D5702D41
:1009800006D009B1022311342246F0BC00F0CAB9E6
:1009900001231034F8E770B504460D46214610686F
:1009A000FFF747FE024629462046BDE87040002377
:1009B000C6E7D21D22F00703D3E90023C0E703688E
:1009C000126843F0200303600823C3610023B7E7E4
:1009D000309500002DE9F05F894604464FF0000A8B
:1009E000DFF874B1FB44C0F820A02046E1688847D6
:1009F000002874D0252806D0D4E901219047206A28
:100A0000401C2062F1E700265F462046E1688847E7
:100A10002028054607DB312D05D2781910F8200C67
:100A200008B10643F1E7B00701D526F00406C4F883
:100A30001CA00027C4F818A02A2D09D0284608F0C9
:100A400029FF38B304EB8708303DC8F8185019E087
:100A500059F8041B204604EB87029161E16888473E
:100A6000012F054618D1E069002820DA26F020067B
:100A70001DE0D8F8180000EB800005EB400030388E
:100A8000C8F818002046E1688847054608F002FFCC
:100A90000028EED1012F0AD02E2D08D12046E16882
:100AA00088477F1C0546022F46F02006C4DBA0695C
:100AB000002803DA404246F00106A061F00701D0A9
:100AC00026F010066C2D0BD0682D09D04C2D39D096
:100AD0006A2D35D0742D35D07A2D33D016E038E01C
:100AE000E1682F4620468847B842054609D16C2F59
:100AF00026D04FF48060E1680643204688470546CB
:100B000004E06C2F1AD04FF4807006430DB3A5F1AA
:100B10004100192802D8203546F400664A46294685
:100B2000204626604E46FFF731FB80B101280BD0EE
:100B3000F61D26F0070000F1080956E74020E4E71B
:100B40008020D8E70020D6E706F104094DE72846C3
:100B500052E7206ABDE8F09FC09400002DE9F04103
:100B6000074615460E461020FFF786FC04000AD003
:100B70006760C4E9026500F03FF801682160046025
:100B80000020BDE8F0810120FBE710B5203AC0F05D
:100B90000B80B1E81850A0E81850B1E81850A0E850
:100BA0001850203ABFF4F5AF5FEA027C24BFB1E8E9
:100BB0001850A0E8185044BF18C918C0BDE810402C
:100BC0005FEA827C24BF51F8043B40F8043B08BF35
:100BD0007047D20728BF31F8023B48BF11F8012BFC
:100BE00028BF20F8023B48BF00F8012B70470000E7
:100BF00000487047A401002000487047D40100203D
:100C0000704770477047704738B504460A46002061
:100C10006946AFF30080002808BF38BD024600993E
:100C2000204600F0BDFD012038BD012001F053B881
:100C3000F8B5AFF30080054600200C460C2000BF3D
:100C40000646A819A0420DD9324669460020AFF3E6
:100C50000080070008BF01F03EF80098A04218BFCE
:100C60000546C419FFF7C4FF05600746F01D20F0D4
:100C700007004619284600F00AF8B44208BFF8BD3C
:100C8000A21B31463868BDE8F84000F089BD00215C
:100C90000160416070470C20704730B5B0F10A0226
:100CA00071F100034FEA900E4EEA817EB0EB0E0028
:100CB00061EB91014FEA101E4EEA017E10EB0E002F
:100CC00041EB11114FEA102E4EEA016E10EB0E00AF
:100CD00041EB11214FEA104E4EEA014E10EB0E008F
:100CE00041EB1141401841F100014FEAD00040EAC8
:100CF00041704FEAD1014FEA810444EA907410EB4D
:100D0000800544EB01046D1944EB0404521BA3411C
:100D10004FF0000348BF0A3200D530BD401C41F1FE
:100D2000000130BD2DE9F0470D4699469246044634
:100D300000F124080168880604D5E06921F010015B
:100D4000216000E00120A84201DD471B00E00027F0
:100D5000A1697A1902EB0900081AA0612078C0067F
:100D600002D42046FFF735FC002608E0D4E9012133
:100D70001AF806009047206A401C761C20624E45F7
:100D8000F4DB2078C0060AD52046FFF722FC06E0F7
:100D9000D4E9012130209047206A401C2062381E8F
:100DA000A7F10107F4DC07E0D4E9012118F80500F8
:100DB0009047206A401C2062281EA5F10105F3DC43
:100DC0002046FFF71CFC2078000602D50220BDE873
:100DD000F0870120FBE72DE9FF4F0C461E464FF040
:100DE000FF378BB0D2E90001DDF860800A908A46B7
:100DF000C1F30A5505B93D46002108464FF00000F1
:100E0000BAF1000F00F4400005DA00EB80004FF467
:100E1000400101EA50004FEA9059B9F1010F00DD9D
:100E2000B9460A9850EA4A000ED044F61050A5F28E
:100E3000FF3545432F14B8F1000F1ED07542291E0F
:100E40001EDDC9F100021CE0B8F1010F4FF00000F7
:100E500001D0302103E0F24305E02154401CB042B0
:100E6000FBDB30460022002121540B99C1F8088099
:100E7000C1E900200FB0BDE8F08FBD1B6D1CDEE79F
:100E80004A4600DA694206A800F0EAFC06AB93E89D
:100E9000070003AB83E8070050460A9908F00CF9F5
:100EA0008DE80700A0F500501F3800900398002D32
:100EB0000ADD42F21F014A460844002303A90390B9
:100EC000684608F075FB09E0A0F500504A461F3857
:100ED000002303A90390684608F07FFB8DE8070014
:100EE0000004000C03D04FF0FF30410800E0104632
:100EF000B8F1000F03D00022009215461EE0751EC7
:100F000005D4FFF7CAFE303262556D1EF9D5B346DF
:100F10000122084302D000227F1C04E02078302800
:100F200001D100227F1E002A099784D01DE0112DD7
:100F300007DAFFF7B2FE303262556D1C50EA01024B
:100F4000F5D1084302D00098C8B10EE00021681E18
:100F500005E0235C625C63542254401E491C8142BC
:100F6000F7DBAB46A81B401E0990002004F80B00DD
:100F70000B98099AC0F80880C0E9002B7AE711267F
:100F80004FF0000857E72DE9F04F88460446D21D80
:100F900022F0070191B0D1E90001CDE90A0108F082
:100FA00065FC02460B98C00F01D02D2007E0206899
:100FB000810701D52B2002E0202101EAC000032A8D
:100FC000099001D0072A05DB03464146204600F080
:100FD00007FC0BE12078800601D5E06900E00620DF
:100FE000B8F1650F814606D0B8F1660F18D0B8F198
:100FF000670F70D131E00020B9F1110F009001DBD3
:10100000112301E009F101030AAA01A90CA8FFF7C5
:10101000E2FEDDE90C70002609F10105834647E098
:1010200001204B4600904FF000470AAA01A90CA8E6
:10103000FFF7D1FEDDE90DB00C995D46002610B931
:1010400009F101000D18B9EB050003D4C0F1FF361A
:1010500009F10105A5EB09002BE0B9F1010F01DA57
:101060004FF001090020B9F1110F0090484601DD51
:10107000112300E003460AAA01A90CA8FFF7ABFE62
:10108000DDE90C704D4600268346207800070AD41F
:10109000AB4500DA5D4601A8012D04DD411911F8C8
:1010A000011C302907D04F4502DA17F1040F04DA8A
:1010B000012082460FE06D1EEEE7002F02DCED1BE3
:1010C0003E4403E0781CA84200DD7D1CB81B00F103
:1010D000010A4FF000472078000703D4AA4501DB3E
:1010E0004FF0FF3A0021B7F1004F0DF143088DF8A2
:1010F000431024D002202B23002F01DA7F422D231E
:101100000A21021EA0F1010000DC5FB197FBF1FC97
:1011100097FBF1F201FB1C7C17460CF1300C08F830
:1011200001CDEEE7A8F1010003702188090501D582
:10113000452100E06521A0F1010800F8011C099893
:101140000FA9A1EB0807FF1D00B10120411901EB18
:10115000EA70A1693844081A401EA0612078C006D0
:1011600002D42046FFF735FA099828B1D4E90121C5
:101170009047206A401C20622078C00622D5204675
:10118000FFF727FA1EE0002E04DBB34502DD01A8BD
:10119000805D00E03020D4E901219047206A401CA6
:1011A0002062761CAAF101005FEA000A0AD100F071
:1011B000F3FAC0680168405CD4E901219047206AD5
:1011C000401C2062281EA5F10105DCDC07E0D4E903
:1011D000012118F8010B9047206A401C2062381E3C
:1011E000A7F10107F3DC2046FFF709FA032011B04D
:1011F00041E600002DE9F04F04460D46D21D22F0D5
:10120000070089B0D0E900974846394608F02EFB20
:101210000246F80F01D02D2307E02068810701D591
:101220002B2302E0202101EAC0038DF820300BB10E
:10123000012000E00020032A824601D0072A04DBB7
:101240002946204600F0CCFA3FE12078800601D400
:101250000D2500E0E569C7F30A560D2D49DA002196
:101260004FEA175B08464FF00000002F00F44000E3
:1012700007DA00EB80004FF4400100EBD07001EA88
:1012800060008115012901DD4FF0FF3100224FEA96
:10129000850CBCF1180F06D31346ACF118004FF0C3
:1012A0008052C24003E04FF4801323FA0CF30CF198
:1012B0000C0CBCF1200F04D3ACF1200C09FA0CF09B
:1012C00001E007FA0CF000294FF0004801DD18B9E1
:1012D0000FE00ED140450CD319EB02095F4121B953
:1012E000404502D19F4329EA0209BBEB175F00D0BA
:1012F000761C2088000502D57B48784402E07A48B5
:101300007844193808AA302302F80A30037C0AF11D
:101310000101002E0AF1020A53546A4602DC4FF022
:10132000300101E04FF031014FF001088DF800105D
:1013300002D0A6F2FF3603E059EA470100D06B4E17
:10134000002D02DC2178090704D54FF002082E2178
:101350008DF80110C44600210BE0C7F303433F01A1
:10136000C35C491C6D1E02F80830052908F101080C
:1013700001DA002DF1DC00210CE000EB1973491CAF
:101380001B786D1E082902F808304FEA091908F188
:10139000010801DA002DF0DC21688B0602D516E089
:1013A000A8F10108E04505DD02EB080313F8013C54
:1013B000302BF5D0B8F1000F09DD02EB080313F86C
:1013C000013C2E2B03D1090701D4A8F10108002DFF
:1013D00005DD3E2102F808106D1E08F10108407C71
:1013E000002E02F8080008F1010804DA2D207642E8
:1013F00002F8080002E02B2002F808000A214FF44E
:101400007A70864208F101080BDB96FBF0F330336B
:1014100002F8083096FBF0F308F1010800FB1366B0
:1014200001E0642E0CDB642096FBF0F3303302F80D
:10143000083096FBF0F308F1010800FB136601E0A9
:101440000A2E06DB96FBF1F0303002F8080008F1B6
:10145000010896FBF1F001FB1060303002F8080043
:10146000A16908F1010808EB050202EB0A00081A5D
:10147000A0612078C00602D42046FFF7AAF8216AAE
:1014800008AE01EB0A00206204E0D4E9012116F85D
:10149000010B9047BAF1010AF7D22078C00602D5B5
:1014A0002046FFF796F86E4609E016F8010B3E2835
:1014B0000FD0D4E901219047206A401C2062B8F186
:1014C0000108F2D22046FFF79AF809B00320BDE8E0
:1014D000F08F206A2844206203E0D4E90121302003
:1014E00090476D1EEBD3F8E7CE8B000002FCFFFFA8
:1014F00010B5436913B1AFF3008001E0FFF7A2F824
:10150000012010BD127800F124010A7000224A70F7
:101510000122EDE711684FF0FF32E9E710B54369AA
:1015200013B1AFF3008001E0FFF736F9012010BDE1
:10153000128800F1240182840022C2840122EDE796
:1015400011684FF0FF32E9E7007B00F08000704740
:1015500010B542485421FEF74FFF41485421FEF791
:101560004BFF40485421FEF747FF3F493B483C4A68
:101570003F4B08603D490A603A491960531C0365B6
:10158000481C1065012008653B48344A39A178445D
:1015900000F0ECFA20B9384878440A3800F094FB9F
:1015A00037482F4A35A1784400F0E0FA20B9344892
:1015B00078440A3800F088FB32482A4A2FA1784440
:1015C00000F0D4FA20B92F4878440A3800F07CFBA8
:1015D00040232248DC000021224600F0A4FA20B17A
:1015E00025487844543800F06FFB1D4822464023BC
:1015F000002100F098FA20B121487844543800F0D6
:1016000063FB184822461023002100F08CFA0028C2
:1016100006D01C487844BDE81040563800F054BB52
:1016200010BD104870B5006D20F001040B4800F0AB
:1016300015FB0B4800F012FB0A4800F00FFB09E015
:10164000206D20F00105204600F008FB2046FEF743
:1016500042FF2C46002CF3D170BD0000A0000020FA
:10166000F4000020480100200000002004000020B9
:1016700008000020720000004D8900007700000083
:1016800039890000258900002DE9F04116460C46F5
:10169000054600F079F8036893F80101012807D0A6
:1016A000FF2C12D8185D80B101202C70BDE8F081AC
:1016B000D3F807013246214603F20713C71828461C
:1016C000BC46BDE8F041002360474FF0FF30EDE736
:1016D00010B5002000F0F1FAFEF7B8FDBDE81040AB
:1016E000012000F021B82DE9F0410646FFF784FA09
:1016F0008046454613E016B1E068B0420ED120683E
:101700002860D4E90101D8F8007088472046FEF728
:10171000E2FED8F80000B842EBD100E025462C6884
:10172000002CE8D1BDE8F08101491820ABBEFEE7EE
:1017300026000200004870479C0100207546FFF714
:10174000F9FFAE4605006946534620F0070085467E
:1017500018B020B5FEF79EFDBDE820404FF0000612
:101760004FF000074FF000084FF0000BAC46ACE81C
:10177000C009ACE8C009ACE8C009ACE8C00921F078
:1017800007018D467047000010B500F005F8001DF8
:1017900010BD00BF5981000000487047BC01002007
:1017A000034640688C46002818BF88423CBF034669
:1017B0004068F8D318681844884207D00CF1030039
:1017C00020F00700001D411A521A0146081D0A6048
:1017D000FEF781BE0B4601461846FEF7CBBF000060
:1017E0002DE9F0411F46044603260168072A01F44B
:1017F000006004DB08B116A505E016A503E008B1FA
:1018000015A500E015A521F010002060A069C01EFC
:10181000A0610FB1401EA0612046FEF7DAFE4FB175
:10182000D4E9012138469047206A401C2062C01C40
:10183000206206E0206AFAE7D4E9012115F8010BDD
:101840009047761EF8D22046FEF7D9FEBDE8F0811B
:101850004E414E006E616E00494E4600696E660054
:101860002DE9F047814616468AB0354878440DC8C0
:101870008DE80D0032487844801C03AC0DC884E824
:101880000D0041F69B300844372190FBF1F290FBAC
:10189000F1F5A5F1800501FB12041B3C02D5644261
:1018A000012000E00020DFF898A080460027FA44DD
:1018B000AAF1BE0A0EE0E0070AD03246684607EBFE
:1018C000470101230AEB810107F087FE8DE807003D
:1018D00064107F1C002CEED1194F7F44AE3F19E0FD
:1018E000E80715D007EB04100DF1180A90E80E0078
:1018F0008AE80E00C068F04201D19819089032467B
:10190000012306A903A807F068FE03AB83E80700DC
:101910006D10641C002DE3D14FF00103324669467F
:10192000B8F1000F03A802D007F042FE01E007F073
:1019300054FEC9E90001C9F808200AB0BDE8F087E3
:10194000F88600002DE9F05F054617460C46C8688A
:1019500020F4201040F48000C860800602D50846BC
:1019600000F0D3FAE06841F282014FF0FF3A014003
:10197000022903D0204600F065FAB9E000F42041C6
:10198000B1F5004F0FD1C00306D56168E06A884207
:1019900000D80846606006E02069E0626060606927
:1019A00000F0CDF9A061A0680022EEB200280DDAA7
:1019B000E1688B050AD4C043A06041F490302260F6
:1019C000E0606068411C61600670AAE0E0689146D2
:1019D000226040F40050E060206978BB606900F04C
:1019E000A0F904F124054FF00108A8B1A08910F472
:1019F000407F08D0E069FEF73FFD206118B1E06844
:101A000040F4006017E0C4F81C802561E06820F411
:101A1000407040F480600EE0E069FEF72DFD002884
:101A20002061F0D0E06840F4006010F4407FE06096
:101A300002D140F48070E06020696060E068256950
:101A40006FF0010BC1051ED56168E06A884200D8BD
:101A50000846411B04D02246284600F0FDF9E8BBA9
:101A60001FB1E562C4E9015959E0681CE062606099
:101A7000E069401EA060E06840F48030E0603046DD
:101A80002E70BDE8F09F17B100F480320AE0606864
:101A9000411C61600670E0680A2E40F48030E0600E
:101AA00006D00022E16A6068814203D90B4602E059
:101AB0000122F7E70346B4F80CC05B1B5FEA4C5CFD
:101AC00004D4D4F81CC09C4500DD02B3814200D888
:101AD0000146002BA1EB0008E56200E008E0C4E944
:101AE000015907DD22461946284600F0B5F908B12C
:101AF0005046C6E7B8F1000F09D0A169E5626560FC
:101B0000A1EB0800A061E06840F01000E06047B180
:101B10006168A069E562491B08446560A061584698
:101B2000AFE73046ADE770B5C468A50713D06502CE
:101B300011D4B2F5807F09D0B2F5007F06D0B2F59E
:101B4000806F08D1012300F1240106E05D1E6FF0D3
:101B50007F46B54201D3012070BD0161C361416080
:101B600024F470611143C160002070BD2DE9F04183
:101B70000C461646070047D0104600F06FF8207854
:101B8000611C61280AD0722802D077283CD102E07B
:101B90000125002405E00225042402E0082448F27F
:101BA000020511F8010B2B2806D0622809D011F884
:101BB000010C74280AD00BE045F0030544F0020440
:101BC000EFE745F0040544F00104EAE744F01004AF
:101BD0003846214600F086F8411C15D000213161BD
:101BE00071604FF40071F560F1617061200704D5F8
:101BF00030460222002100F0A9F8306D40F00100CB
:101C000030653046BDE8F0810020FBE72DE9F0416A
:101C10000D460646104C206DC10704D0410804D083
:101C200020F00104F7E722460EE05420FEF724FCE2
:101C300007000ED0206D47F00101084354212065B4
:101C40003846FEF7D9FB3A4629463046BDE8F04112
:101C50008CE70020D6E70000A00000202DE9F04727
:101C600004464FF0FF380026C568D4E90497A8075A
:101C700018D0204600F026F9384600F03DF800283C
:101C800000DA4646280502D54846FEF724FC4C21DA
:101C90002046FEF7B1FB206D20F0010020653046A4
:101CA000BDE8F0874046FBE710B50446AFF300807F
:101CB0002046BDE81040FEF7D9BA10B500F04CF947
:101CC000BDE8104000F042B910B500F05DF9BDE884
:101CD000104000F03BB910B500F070F9BDE81040BD
:101CE00000F034B90EB5CDE9000100F009FA029018
:101CF00069460120ABBE0EBD08B5694600900220C2
:101D0000ABBE08BD1FB58DE8070069460520ABBE18
:101D100004B010BD1FB58DE80F0069460620ABBEAC
:101D2000F6E708B5694600900920ABBE08BD1CB5B2
:101D3000CDE9000169460A20ABBE1CBD704708B55D
:101D4000694600900C20ABBE08BD70472DE9F041FC
:101D5000044616460D464769007B80072ED038465C
:101D6000FFF7DFFF50BB3EB3012E02D0022E25D17C
:101D700004E0204600F08AF905441DE03846FFF7EC
:101D8000DEFFE168002841F01001E16005DA20463D
:101D900000F058F80120BDE8F081C9030BD5626856
:101DA000E16A914200D81146A26911442269891A58
:101DB000814200DD08460544002D01DA0220EAE7F1
:101DC000E16A6068E268814206D29103E06203D56D
:101DD00022F4003141F01002A6690027AE4213DC64
:101DE000E16A814201D90B4600E0034603EB060C91
:101DF0002369ACEB030CAC4506DD814201D98C466E
:101E000000E084469C4505D1A760276042F0200091
:101E1000A5620DE0AD1BE669AE1B8142A66000D94C
:101E20000846C01A281A20605819606022F0200065
:101E300003490840E060002084F84870ABE70000E8
:101E4000BFCFD7FFC16821F4001141F08001C1600C
:101E500000218160016070472DE9F74F15460C465F
:101E60004FF0FF3B3848D768D2F814A0074209D09A
:101E70005046A969FFF75BFF002819DB3248C043D1
:101E80000740EF604FF000496FF000484C4501D328
:101E9000464600E0264600993B4650463246FFF74C
:101EA00031FFA96920F00042B21A1144A96128B19A
:101EB0002846FFF7C7FF5846BDE8FE8FA41BE5D1B3
:101EC0000020F9E770B504460569C06A6168884278
:101ED00000D80846E16821F42011E160C90312D559
:101EE000A84208D02246411B2846FFF7B5FF10B193
:101EF0004FF0FF3070BD0020E562C4E90150E0689A
:101F000020F48030E060002070BD10B50446C06849
:101F100020F02000E060A16AA06988420DD0204630
:101F2000FFF7D0FFE06820F4405040F01000E06080
:101F3000A06AA0612069E062606044F24001E0684C
:101F40008843E06010BD000010000200002801D0AE
:101F5000FFF7EABB7047000010B5002102A000F0B7
:101F6000B6F8012010BD0000534947414252543A8F
:101F70002041626E6F726D616C207465726D696E66
:101F80006174696F6E00000010B5014602A000F098
:101F90009EF8012010BD0000534947525452454459
:101FA0003A2052656469726563743A2063616E27F2
:101FB00074206F70656E3A200000000010B5012893
:101FC00005D0002103A000F082F8012010BD09A176
:101FD000F8E7000053494752544D454D3A204F759C
:101FE00074206F662068656170206D656D6F727911
:101FF000000000003A2048656170206D656D6F72C9
:102000007920636F72727570746564004FF0013CE3
:1020100050F8042B51F8043B9A4221D1A2EB0C0357
:10202000934313EACC1317D150F8042B51F8043B17
:102030009A4215D1A2EB0C03934313EACC130BD1B4
:1020400050F8042B51F8043B9A4209D1A2EB0C033F
:10205000934313EACC13DBD04FF00000704700BF6E
:10206000D01A01BAB1FA81F101F0180122FA01F097
:10207000CB40DBB2C0B2C01AC1F120012CFA01F38F
:10208000D11A914311EAC311E6D1704710B5014648
:10209000C268900703D0900607D5886A0AE000F06E
:1020A00055F801210160881E10BD8B6948681844ED
:1020B0000B69C01A91F848301BB191F84910401AC9
:1020C00010BD1103FCD50028FADD401E10BD70B50F
:1020D00005460C460A2000E06D1C00F030F835B1D2
:1020E00028780028F8D102E0641C00F028F814B128
:1020F00020780028F8D1BDE870400A2000F01FB811
:1021000010B5431C02E010F8011B71B18107FAD130
:102110004FF0013202C88C1A8C4314EAC211F9D074
:10212000C01A0A0603D0C01E10BDC01A10BD0A0492
:1021300001D0801E10BD0902FCD0401E10BD08B5A4
:1021400069468DF800000320ABBE08BD004870470B
:102150009C01002080B584B002900020019002987C
:1021600000688068C00770B3FFE70298016888685C
:1021700020F00100886002F06DF90190FFE70298FD
:1021800000688068C007E8B1FFE702F063F90199D1
:10219000401A032815D3FFE7029800688068C0073B
:1021A00070B1FFE70299886A40F0100088620299D6
:1021B000C86A40F00100C86201208DF80F0006E0F7
:1021C000FFE7DCE7FFE700208DF80F00FFE79DF851
:1021D0000F0004B080BD000080B584B002900020E4
:1021E00001900090029800688068C007002849D1DB
:1021F000FFE702980168886840F00100886040F2BB
:102200000C00C2F2000000684DF68361C4F21B317D
:10221000A0FB0110800C0090FFE7009820B1FFE7C1
:10222000009801380090F8E702F014F90190FFE7F8
:10223000029800688068C00718BBFFE702F00AF93F
:102240000199401A03281BD3FFE7029800688068B1
:10225000C007A0B9FFE70299886A40F010008862C1
:102260000299C86A40F00100C862FFE702990020A5
:1022700081F82400FFE701208DF80F0006E0FFE75A
:10228000D6E7FFE700208DF80F00FFE79DF80F006D
:1022900004B080BDFFE7FEE780B541F2A800C2F2BE
:1022A000000000F0FFFD80BD80B541F2D000C2F219
:1022B000000001F069FD80BD7047000081B0EFF3C0
:1022C000108072B60090FFE7FEE7000080B586B090
:1022D000049000208DF80F000190FFE7049890F81B
:1022E0002400012804D1FFE702208DF81700AEE09A
:1022F0000499012081F82400FFE7FFE70498FFF725
:1023000029FF8DF80F000498FFF766FF8DF80F0086
:102310009DF80F00002840F08F80FFE70498806A46
:1023200040F0020020F488500499886240F20C00CA
:10233000C2F2000000680090022002F04FF901464E
:102340000098B0FBF1F040000190FFE7019820B148
:10235000FFE7019801380190F8E704980168886860
:1023600040F00800886002F075F80290FFE70498DA
:10237000006880680007002822D5FFE702F06AF8AD
:102380000299401A0B281AD3FFE704980068806866
:102390000007002812D5FFE70498806A40F010007B
:1023A00020F0020004998862FFE70499002081F878
:1023B0002400FFE701208DF8170048E0FFE7D6E78B
:1023C00004980168886840F00400886002F042F8D0
:1023D0000290FFE70498006880684007002822D533
:1023E000FFE702F037F80299401A0B281AD3FFE7EB
:1023F0000498006880684007002812D5FFE7049819
:10240000806A40F0100020F0020004998862FFE723
:102410000499002081F82400FFE701208DF81700BF
:1024200015E0FFE7D6E70498806A40F0010020F04D
:10243000020004998862FFE7FFE70499002081F811
:102440002400FFE79DF80F008DF81700FFE79DF8C7
:10245000170006B080BD000085B0039002910020F7
:102460008DF807000090FFE7039890F824000128FA
:1024700004D1FFE702208DF81300C3E00399012087
:1024800081F82400FFE7FFE702984068062812D889
:10249000FFE703980068406B029A1168526802EBEC
:1024A0008202053A1F2393409843914008430399C1
:1024B0000968486329E0029840680C2812D8FFE7B1
:1024C00003980068006B029A1168526802EB82025E
:1024D000233A1F2393409843914008430399096886
:1024E000086311E003980068C06A029A1168526894
:1024F00002EB8202413A1F239340984391400843E4
:1025000003990968C862FFE7FFE7029800680A2894
:1025100012D3FFE703980068C06802990A688968C7
:1025200002EB42021E3A072393409843914008432E
:1025300003990968C86010E003980068006902996F
:102540000A68896802EB420207239340984391404E
:102550000843039909680861FFE70298006810289A
:1025600005D0FFE702980068112840D1FFE70398E3
:10257000006842F20041C4F2010188422DD1FFE718
:102580000398006880680002002825D4FFE70398BC
:102590000168886840F4000088600298006810288C
:1025A00019D1FFE740F20C00C2F2000000684DF6BE
:1025B0008361C4F21B31A0FB0110800C00EB800092
:1025C00040000090FFE7009820B1FFE70098013835
:1025D0000090F8E7FFE7FFE708E00399886A40F01A
:1025E0002000886201208DF80700FFE7FFE7FFE782
:1025F0000399002081F82400FFE79DF807008DF87B
:102600001300FFE79DF8130005B0704780B588B050
:10261000069000208DF81700049003900290069811
:1026200020B9FFE701208DF81F00F4E006988068CC
:1026300030B1FFE70698007D08B1FFE7FFE7FFE74D
:102640000698806A50B9FFE706990020C86206998B
:1026500081F82400069800F0E3F8FFE70698FFF7FA
:1026600079FD8DF817000698806AC006002800F1F1
:10267000C480FFE79DF81700002840F0BE80FFE708
:102680000698806A40F0020020F48850069988621B
:1026900006994868CA691043097B40EA41010398DA
:1026A00008430390069881680120B1F5807F01906E
:1026B00008D0FFE7069880680138B0FA80F040093A
:1026C0000190FFE701990498CA0740F48071002A3D
:1026D00018BF084604900698007D01281ED1FFE728
:1026E0000698007B70B9FFE7069881694EF20000FA
:1026F000CFF6FF7000EB41300499084340F40060CE
:1027000004900AE00699886A40F0200088620699E1
:10271000C86A40F00100C862FFE7FFE7069800685A
:10272000406820F4694004990843069909684860A4
:102730000698006880684FF2FD71CFF6E17108409D
:102740000399084306990968886006988168012002
:10275000B1F5807F009008D0FFE7069880680138C7
:10276000B0FA80F040090090FFE7009800F0010007
:10277000002818BF4FF48070B0F5807F09D1FFE7C3
:10278000069801690020CFF6F07000EB015002902E
:10279000FFE706980068C06A20F4700002990843B9
:1027A00006990968C86206980068806840F6FE616C
:1027B000CFF61F710840039988420CD1FFE70699B4
:1027C0000020C8620698806A40F0010020F00200F4
:1027D0000699886210E00698806A40F0100020F0A8
:1027E0000200069988620699C86A40F00100C86232
:1027F00001208DF81700FFE708E00699886A40F08D
:102800001000886201208DF81700FFE79DF817007F
:102810008DF81F00FFE79DF81F0008B080BD000085
:1028200080B588B007900020069005900490039032
:102830000798006842F20041C4F2010188422AD19F
:10284000FFE7FFE741F21800C4F20200016841F41B
:1028500000710160006800F4007002900298FFE7C8
:10286000FFE741F21800C4F20200016841F00401E0
:102870000160006800F0040001900198FFE7122059
:1028800003900320049040F60000C4F2010003A965
:1028900001F038FCFFE708B080BD000084B0029072
:1028A0000191029890F820008DF803009DF8030034
:1028B000012805D0FFE79DF8030002280AD1FFE7B1
:1028C000019A0298016848691043486100208DF818
:1028D0000F0008E00299486A40F480204862012015
:1028E0008DF80F00FFE79DF80F0004B0704700005F
:1028F00088B00690059104920393069890F8200002
:102900008DF8070006980068806800900598806838
:1029100008B9FFE700E0FFE79DF80700012806D0AF
:10292000FFE79DF80700022840F08080FFE79DF850
:102930000300400700280CD4FFE79DF803000007C0
:10294000002806D4FFE79DF80300C006002864D5E0
:10295000FFE70098C0F301600290029901208840CF
:10296000039908600598806868B9FFE705980168D1
:10297000C06840EA415006990968029A01EB0211C9
:10298000C1F880010EE005994A688868C96840EA84
:10299000C200084306990968029A01EB0211C1F8C6
:1029A0008001FFE70598006906990968029A01EB22
:1029B0000211C1F884010598007D01280CD1FFE7C0
:1029C00006980068029900EB0111D1F8840140F4E7
:1029D0008070C1F88401FFE704984068069909688F
:1029E000029A01EB0211C1F88C0104980068069963
:1029F0000968029A01EB0211C1F888010698006883
:102A0000029900EB0111D1F8800140F00100C1F8FA
:102A1000800100208DF81F0011E00699486A40F4FB
:102A20000010486201208DF81F0008E00699486AEE
:102A300040F48020486201208DF81F00FFE79DF8D8
:102A40001F0008B07047000086B0049003910498FE
:102A500000680190049890F820008DF803009DF81C
:102A60000300012806D0FFE79DF80300022840F08C
:102A70009B80FFE70199D1F8000240F00100C1F806
:102A800000020398406900F01F0101208840029075
:102A9000029A0199D1F81C029043C1F81C020398D4
:102AA000C069F0B9FFE7029A0199D1F80C0290438E
:102AB000C1F80C02039A9088D168526940EA01403B
:102AC000019901EBC201C1F84002039A1088916894
:102AD000526940EA0140019901EBC201C1F8440288
:102AE000FFE70398C06901281ED1FFE7029A019908
:102AF000D1F80C021043C1F80C02039A90881168B7
:102B0000526940EA0140019901EBC201C1F840025B
:102B1000039A90899168526940EA0140019901EB5A
:102B2000C201C1F84402FFE70398806940B9FFE79A
:102B3000029A0199D1F804029043C1F8040207E017
:102B4000029A0199D1F804021043C1F80402FFE788
:102B50000398006940B9FFE7029A0199D1F814027D
:102B60009043C1F8140207E0029A0199D1F81402C7
:102B70001043C1F81402FFE70398006A012808D146
:102B8000FFE7029A0199D1F81C021043C1F81C0218
:102B9000FFE70199D1F8000220F00100C1F800021E
:102BA00000208DF8170008E00499486A40F480205E
:102BB000486201208DF81700FFE79DF8170006B066
:102BC0007047000084B002900191029890F82000B4
:102BD0008DF803009DF80300012805D0FFE79DF85C
:102BE000030002280AD1FFE7019A029801684869A8
:102BF0009043486100208DF80F0008E00299486A70
:102C000040F48020486201208DF80F00FFE79DF816
:102C10000F0004B07047000081B0009001B0704711
:102C200086B00490039102920193049890F82000DA
:102C30008DF803009DF80300012806D0FFE79DF8FA
:102C40000300022840F0E880FFE7039880B9FFE71F
:102C500004980068C068800748B9FFE70499486A8B
:102C600040F40010486201208DF81700DDE00FE00D
:102C7000049800680069800748B9FFE70499486A2A
:102C800040F40010486201208DF81700CDE0FFE706
:102C900004980068039900EB0110D0F8B00100F02F
:102CA0000400029988600298806858B9FFE7049888
:102CB0000068039900EB0110D0F8B001400D0299B3
:102CC00008600AE004980068039900EB0110D0F84E
:102CD000B001C00802994860FFE7049800680399B2
:102CE00000EB0110D0F8B00100F002000299C860BA
:102CF00004980068039900EB0110D0F8B40100F0CB
:102D00000F00082804D3FFE70299082008610BE0B0
:102D100004980068039900EB0110D0F8B40100F0AA
:102D20000F0002990861FFE704980068039900EB1F
:102D30000110D0F8B40180B2000A029988610498A9
:102D40000068039900EB0110D0F8B401000C02995F
:102D5000486104980068039900EB0110D0F8B801AD
:102D60000199087004980068039900EB0110D0F8ED
:102D7000B801000A0199487004980068039900EBB3
:102D80000110D0F8B801000C01998870049800680F
:102D9000039900EB0110D0F8B801000E0199C8703A
:102DA00004980068039900EB0110D0F8BC01019968
:102DB000087104980068039900EB0110D0F8BC0179
:102DC000000A0199487104980068039900EB01100A
:102DD000D0F8BC01000C019988710498006803992F
:102DE00000EB0110D0F8BC01000E0199C8710398E6
:102DF00038B9FFE704980168C86840F02000C8604F
:102E000006E004980168086940F020000861FFE7C7
:102E100000208DF8170008E00499486A40F48020EB
:102E2000486201208DF81700FFE79DF8170006B0F3
:102E30007047000083B0029000200190029890F843
:102E400020008DF803009DF80300012805D0FFE75E
:102E50009DF80300022822D1FFE7029800688068ED
:102E60004001002804D5FFE7019801300190FFE7F9
:102E70000298006880680001002804D5FFE70198E7
:102E800001300190FFE7029800688068C0000028C8
:102E900004D5FFE7019801300190FFE7FFE70198B3
:102EA00003B0704780B58AB0099000200890099857
:102EB0000068406907900998006840680690099882
:102EC00000688068059009980068C06804900998B7
:102ED00000680069039009980068806902909DF875
:102EE0001C00C007002800F09480FFE79DF8140044
:102EF000C00758B3FFE709980168012088609DF872
:102F000014008007002804D5FFE7099800F024FF8B
:102F10001BE09DF814004007002805D5FFE708983E
:102F200040F4006008900FE09DF8140000070028AE
:102F300005D5FFE7089840F48050089003E0099811
:102F400000F006FFFFE7FFE7FFE7FFE79DF815004A
:102F5000C00760B3FFE7099801684FF4807088608C
:102F60009DF815008007002804D5FFE7099800F0B8
:102F7000FBFE1BE09DF815004007002805D5FFE784
:102F8000089840F4005008900FE09DF815000007E5
:102F9000002805D5FFE7089840F48040089003E03A
:102FA000099800F0DDFEFFE7FFE7FFE7FFE79DF888
:102FB0001600C00760B3FFE7099801684FF480303E
:102FC00088609DF816008007002804D5FFE709985F
:102FD00000F0D2FE1BE09DF816004007002805D542
:102FE000FFE7089840F4004008900FE09DF81600B5
:102FF0000007002805D5FFE7089840F480300890C6
:1030000003E0099800F0B4FEFFE7FFE7FFE7FFE702
:10301000FFE79DF81C000007002810D5FFE79DF88A
:103020001000C006002809D5FFE7089840F400709A
:103030000890099801681020C860FFE7FFE79DF835
:103040001C00400700280FD5FFE79DF8100000077F
:10305000002808D5FFE7099801680820C86009988A
:1030600000F074FAFFE7FFE79DF81C0080070028D6
:103070000BD5FFE709980068C068800720B1FFE71B
:10308000099800F067FAFFE7FFE79DF81C0040068B
:10309000002810D5FFE79DF80C00C006002809D5D0
:1030A000FFE7089840F480600890099801681020B4
:1030B0000861FFE7FFE79DF81C00800600280FD598
:1030C000FFE79DF80C000007002808D5FFE70998E6
:1030D000016808200861099800F09EFDFFE7FFE7FE
:1030E0009DF81C00C00600280BD5FFE70998006872
:1030F0000069800720B1FFE7099800F091FDFFE724
:10310000FFE79DF81E00800700280FD5FFE79DF818
:103110001800C006002808D5FFE7099801681020AC
:103120004860099800F080FDFFE7FFE79DF81E006A
:10313000C00778B1FFE79DF818000007002808D500
:10314000FFE70998016808204860099800F018FE18
:10315000FFE7FFE79DF81D000006002840F18D8085
:10316000FFE79DF818004007002840F18180FFE745
:103170009DF81D00C00750B1FFE79DF80800C0078B
:1031800028B1FFE7089840F001000890FFE79DF89C
:103190001D00800700280BD5FFE79DF80800800779
:1031A000002805D5FFE7089840F002000890FFE7E7
:1031B0009DF81D00400700280BD5FFE79DF808008B
:1031C0004007002805D5FFE7089840F00400089064
:1031D000FFE79DF81D000007002848D5FFE79DF890
:1031E000080010F0700F42D0FFE7029800F0700066
:1031F00001460191102814D0FFE70198202815D02E
:10320000FFE70198302816D0FFE70198402817D033
:10321000FFE70198502818D0FFE70198602819D0DF
:103220001DE0089840F00800089019E0089840F068
:103230001000089014E0089840F0200008900FE07B
:10324000089840F0400008900AE0089840F080009C
:10325000089005E0089840F48070089000E0FFE7CF
:1032600009980168886920F070008861FFE7FFE72E
:103270000998016804204860FFE7089848B1FFE713
:10328000089A0999486A104348620998FFF7C4FCF4
:10329000FFE70AB080BD000080B584B002900298BC
:1032A00020B9FFE701208DF80F00E0E0029890F8C8
:1032B000200020B9FFE7029800F0DEF8FFE702984F
:1032C0000168086840F00100086001F0C3F801904F
:1032D000FFE7029800684068C007A8B9FFE701F05F
:1032E000B9F80199401A0B280DD3FFE70299486AF3
:1032F00040F4003048620299052081F82000012046
:103300008DF80F00B3E0E4E702980168086820F048
:103310000200086001F09EF80190FFE70298006843
:1033200040688007002815D5FFE701F093F8019960
:10333000401A0B280DD3FFE70299486A40F4003089
:1033400048620299052081F8200001208DF80F00C5
:103350008DE0E3E70298007E012807D1FFE702989D
:103360000168086840F08000086006E00298016883
:10337000086820F080000860FFE70298407E01287E
:1033800007D1FFE702980168086840F04000086034
:1033900006E002980168086820F040000860FFE736
:1033A0000298807E012807D1FFE70298016808682B
:1033B00040F02000086006E002980168086820F0EC
:1033C00020000860FFE70298C07E012807D1FFE7D0
:1033D00002980168086820F01000086006E0029872
:1033E0000168086840F010000860FFE70298007F5D
:1033F000012807D1FFE702980168086840F008003B
:10340000086006E002980168086820F0080008607B
:10341000FFE70298407F012807D1FFE70298016883
:10342000086840F00400086006E002980168086837
:1034300020F004000860FFE7029B19685A6898684A
:10344000D3F80CC040EA0C00D3F810C040EA0C00DE
:103450005B691843013A1043C86102990020486231
:10346000029A012182F820108DF80F00FFE79DF8E5
:103470000F0004B080BD000080B58CB00B90002020
:103480000A900990089007900B98006846F2004156
:10349000C4F20001884257D1FFE7FFE741F21C0068
:1034A000C4F20200016841F000710160006800F0A0
:1034B000007006900698FFE7FFE741F21800C4F29B
:1034C0000200016841F008010160006800F0080096
:1034D00005900598FFE74FF4807007900020089052
:1034E000099040F60040C4F20100029007A9039140
:1034F00000F008FE029803994FF40072079202222E
:10350000089203220A9200F0FDFDFFE70421C4F2B5
:10351000010108680490049820F4C04004900498C5
:1035200040F0E0600490049840F4804004900498D7
:103530000860FFE7152001900022114601F026F8EF
:10354000019801F019F8FFE70CB080BD81B0009040
:1035500001B0704780B5B2B0319000211591309123
:103560002F912E912D912C912B912A91259124917F
:1035700031982AAA24ABFFF753FB40F6C050C2F2A1
:10358000000090F8AF0201461691112800F23D8329
:103590001699DFE811F0120025004900F5003A0302
:1035A0001101C201C301C401D50100024502460256
:1035B0006A02AF02D302180329032B9845F2F46183
:1035C000C1F6270188420AD1FFE740F6C051C2F296
:1035D0000001012081F8AF0281F8AC02FFE715E39A
:1035E0002B9845F2F461C1F6EC4188421BD1FFE70C
:1035F0009DF89000102815D1FFE79DF8960002284D
:1036000010D1FFE79DF8910040F6C051C2F20001D1
:1036100081F8AE029DF8930081F8AD02022081F896
:10362000AF02FFE7FFE7F1E22B9845F2F461C1F644
:10363000EB41884240F0A380FFE72B9826902E981C
:103640008DF8A4000020289027902498259928918F
:10365000279040F6C050C2F200001490C83013907A
:1036600026A905F069FA139805F0BEFA14990246E6
:1036700040F29600C2F200000270007891F8AD129C
:1036800088427BDBFFE700208DF87F00FFE79DF895
:103690007F0040F29601C2F200010978884233DAD5
:1036A000FFE740F6C050C2F20000C83020A905F084
:1036B000F9F99DF88400012812D1FFE79DF88900EF
:1036C00041F2A321C2F2000108709DF88A004870FF
:1036D0009DF88B0041F2A521C2F200010870FFE7BE
:1036E0009DF88400022808D1FFE79DF8850041F28B
:1036F000A521C2F200014870FFE7FFE79DF87F00B7
:1037000001308DF87F00C2E741F2A320C2F2000031
:103710000178407804F0FCFA06F0A6F949F69A120E
:10372000C9F699120F9249F69913C3F6B97310931B
:1037300006F0B2F90A4640F6C051C2F200011191FA
:103740004A60086041F2A520C2F20000017840788A
:1037500004F0DEFA06F088F90F9A109B06F09CF947
:103760000246119812920A461299C26081600321A2
:1037700080F8AF12C83005F02BFAFFE7FFE745E20B
:103780002B9845F2F461C1F6EC41884213D1FFE772
:103790009DF8900010280DD1FFE79DF896000628AF
:1037A00008D1FFE740F6C051C2F20001052081F8C0
:1037B000AF02FFE7FFE729E22B9845F2F461C1F67B
:1037C000EB41884240F0A880FFE72B9826902E9886
:1037D0008DF8A40026A80D9004300021289127918F
:1037E0002E9A24A9FCF7A1FD0D9940F6C050C2F213
:1037F0000000C8300E9005F09FF90E9805F0F4F91E
:10380000022840F08880FFE740F6C050C2F2000076
:1038100090F8CC0001287ED1FFE740F6C050C2F2FC
:10382000000090F8DC00022875D1FFE70020079027
:103830001E901D901C901B9040F6C050C2F20000DC
:103840000A90C8300B9017A9069105F02BF906993C
:103850000B98189A199B1C931B9205F023F9189842
:1038600019991E911D909DF879109DF87A0004F029
:103870004FFA06F0F9F849F69A12C9F69912089229
:1038800049F69913C3F6B973099306F005F90A4688
:103890000A994A6208629DF86F109DF8700004F062
:1038A00037FA06F0E1F8089A099B06F0F5F8079A4E
:1038B0000023CCF2790306F02FF80A460A99CA626F
:1038C00088629DF871109DF8720004F021FA06F0EC
:1038D000CBF8089A099B06F0DFF80A460A994A6174
:1038E00008619DF877109DF8780004F011FA06F051
:1038F000BBF8089A099B06F0CFF80A9A03460B9882
:103900000C930B460C99D3619161062182F8AF129A
:1039100005F05EF9FFE7FFE778E177E176E12B98C4
:1039200045F2F461C1F20901884208D1FFE740F68F
:10393000C051C2F20001092081F8AF02FFE765E142
:103940002B9845F2F461C1F6EC4188421BD1FFE7A8
:103950009DF89000102815D1FFE79DF896001128DA
:1039600010D1FFE79DF8910040F6C051C2F200016E
:1039700081F8AE029DF8930081F8AD020A2081F82B
:10398000AF02FFE7FFE740F6C051C2F2000101209D
:1039900081F8AF023AE12B9845F2F461C1F6EB41B0
:1039A00088423CD1FFE72B9826902E988DF8A400F2
:1039B00026A8049004300021289127912E9A24A94A
:1039C000FCF7B3FC049940F6C050C2F20000C830C6
:1039D000059005F0B1F8059805F006F902281DD10B
:1039E000FFE740F6C050C2F2000090F8CC0001287A
:1039F00014D1FFE740F6C050C2F2000090F8DC009E
:103A000002280BD1FFE740F6C050C2F200000B21A4
:103A100080F8AF12C83005F0DBF8FFE7FFE7F5E00C
:103A2000F4E02B9845F2F461C1F6EC4188421BD1D9
:103A3000FFE79DF89000102815D1FFE79DF896004C
:103A4000152810D1FFE79DF8910040F6C051C2F251
:103A5000000181F8AE029DF8930081F8AD020D20BF
:103A600081F8AF02FFE7FFE7D0E02B9845F2F46161
:103A7000C1F6EB4188423CD1FFE72B9826902E9867
:103A80008DF8A40026A802900430002128912791E7
:103A90002E9A24A9FCF749FC029940F6C050C2F2C4
:103AA0000000C830039005F047F8039805F09CF833
:103AB00002281DD1FFE740F6C050C2F2000090F886
:103AC000CC00012814D1FFE740F6C050C2F200003C
:103AD00090F8DC0002280BD1FFE740F6C050C2F29C
:103AE00000000E2180F8AF12C83005F071F8FFE732
:103AF000FFE78BE02B9845F2F461C1F6EC41884278
:103B00001BD1FFE79DF89000102815D1FFE79DF825
:103B10009600162810D1FFE79DF8910040F6C0519D
:103B2000C2F2000181F8AE029DF8930081F8AD0267
:103B30000F2081F8AF02FFE7FFE767E02B9845F21F
:103B4000F461C1F6EB4188423CD1FFE72B98269007
:103B50002E988DF8A40026A800900430002128910A
:103B600027912E9A24A9FCF7E0FB009940F6C0505B
:103B7000C2F20000C830019004F0DEFF019805F0A9
:103B800033F802281DD1FFE740F6C050C2F2000012
:103B900090F8CC00012814D1FFE740F6C050C2F2E3
:103BA000000090F8DC0002280BD1FFE740F6C0507F
:103BB000C2F20000102180F8AF12C83005F008F8FA
:103BC000FFE7FFE722E02B9845F2F461C1F219010B
:103BD000884208D1FFE740F6C051C2F2000111202F
:103BE00081F8AF02FFE711E02B9845F2F461C1F6CE
:103BF0001C01884208D1FFE740F6C051C2F2000123
:103C0000122081F8AF02FFE700E0FFE731980221C0
:103C1000FEF744FE32B080BD81B0009001B0704725
:103C200081B0009001B0704781B0009001B0704742
:103C300080B584B00290029890F8200001282FD11E
:103C4000FFE70299022081F82000029801680868C5
:103C500020F00100086000F0FDFB0190FFE70298F2
:103C600000684068C007A8B1FFE700F0F3FB0199C6
:103C7000401A0B280DD3FFE70299486A40F4003040
:103C800048620299052081F8200001208DF80F007C
:103C90000FE0E4E70299002048628DF80F0008E089
:103CA0000299486A40F40020486201208DF80F0014
:103CB000FFE79DF80F0004B080BD000080B584B020
:103CC0000290029890F82000022833D1FFE7029872
:103CD0000168086840F00100086000F0BBFB01903B
:103CE000FFE7029800684068C007A8B9FFE700F046
:103CF000B1FB0199401A0B280DD3FFE70299486ADE
:103D000040F4003048620299052081F8200001202B
:103D10008DF80F0017E0E4E702980168086820F0CA
:103D2000020008600299012081F8200000208DF82F
:103D30000F0008E00299486A40F4801048620120B0
:103D40008DF80F00FFE79DF80F0004B080BD000064
:103D500081B0009001B0704781B0009001B0704711
:103D600081B0009001B0704781B0009001B0704701
:103D700081B0009001B0704781B0009001B07047F1
:103D800081B0009001B0704780B58EB00D900D9855
:103D9000C06B00680C900D98006800680B900C9840
:103DA0000D99096CC8404007002875D5FFE79DF8BC
:103DB0002C00400700286FD5FFE70D9800680068C9
:103DC0008006002807D4FFE70D980168086820F0F6
:103DD00004000860FFE70D9800680821C4F20201A2
:103DE000884203D1FFE704200A9047E00D9800685D
:103DF0001C21C4F20201884203D1FFE74020099050
:103E000039E00D9800683021C4F20201884204D1E3
:103E1000FFE74FF4806008902AE00D980068442185
:103E2000C4F20201884204D1FFE74FF480400790BA
:103E30001BE00D9800685821C4F20201884204D1A9
:103E4000FFE74FF4802006900CE00D9801686C228B
:103E5000C4F202024FF08060914208BF4FF480002C
:103E60000690FFE706980790FFE707980890FFE79E
:103E700008980990FFE709980A90FFE70A9804213B
:103E8000C4F2020108600D98C06A20B1FFE70D98E6
:103E9000C16A8847FFE7B8E00C980D99096CC840E3
:103EA0008007002840F18080FFE79DF82C00800704
:103EB000002879D5FFE70D98006800688006002883
:103EC0000BD4FFE70D980168086820F00A0008602D
:103ED0000D99012081F82100FFE70D980068082165
:103EE000C4F20201884203D1FFE70220059047E0B7
:103EF0000D9800681C21C4F20201884203D1FFE73B
:103F00002020049039E00D9800683021C4F20201AD
:103F1000884204D1FFE74FF4007003902AE00D9827
:103F200000684421C4F20201884204D1FFE74FF443
:103F3000005002901BE00D9800685821C4F2020165
:103F4000884204D1FFE74FF4003001900CE00D9857
:103F500001686C22C4F202024FF00070914208BF67
:103F60004FF400100190FFE701980290FFE70298DC
:103F70000390FFE703980490FFE704980590FFE79C
:103F800005980421C4F202010860FFE70D990020A2
:103F900081F82000FFE70D98806A20B1FFE70D98B7
:103FA000816A8847FFE72FE00C980D99096CC8409B
:103FB0000007002827D5FFE79DF82C000007002800
:103FC00021D5FFE70D980168086820F00E00086011
:103FD0000D98C26B016C012000FA01F151600D993E
:103FE00088630D9981F82100FFE70D99002081F881
:103FF0002000FFE70D98006B20B1FFE70D98016BE3
:104000008847FFE7FFE7FFE7FFE70EB080BD00004E
:1040100083B0019000200090019820B9FFE70120B3
:104020008DF80B0047E0019908684FF6F872CBF65F
:10403000FD7210444CF6CD42CCF6CC42A0FB0202FD
:104040006FF0030000EA9200086401990020C4F2B6
:104050000200C8630199022081F8210001980068DC
:1040600000680090009843F6F07188430090019931
:104070004868D1F808C0CB680A6940EA0C001843C8
:1040800010434A6910438A691043C9690143009883
:104090000843009000980199096808600199002080
:1040A0008863019A012182F82110019981F820008A
:1040B0008DF80B00FFE79DF80B0003B07047000080
:1040C00080B584B0039000F0C5F902900398019088
:1040D0000198013048B1FFE740F29700C2F20000BA
:1040E0000178019808440190FFE7FFE700F0B2F97A
:1040F0000299401A0199884201D2FFE7F6E704B01D
:1041000080BD000090B00F900E9100200D9009909E
:10411000FFE70E9800680D99C840002800F07F81E5
:10412000FFE70D99012088400C900E9800680C99CB
:1041300008400B900B980C99884240F06C81FFE787
:104140000E9840680590002851D0FFE70598012897
:104150003AD0FFE7059802283FD0FFE705980328EB
:104160005FD0FFE70598112832D0FFE705981228A5
:1041700038D0FFE705980021C1F21101884236D0FE
:10418000FFE705980021C1F2120188422FD0FFE716
:1041900005980021C1F22101884228D0FFE7059847
:1041A0000021C1F22201884221D0FFE705980021B9
:1041B000C1F2310188421AD0FFE705980021C1F20F
:1041C0003201884213D02FE00E98C06809902CE08D
:1041D0000E98C0680430099027E00E98C068083037
:1041E000099022E00E98C0680C3009901DE00E98EE
:1041F000806818B9FFE70420099011E00E988068E4
:10420000012806D1FFE7082009900C980F99086152
:1042100005E0082009900C980F994861FFE7FFE737
:1042200003E00020099000E0FFE70B98FF2803D887
:10423000FFE70F98049003E00F9804300490FFE725
:10424000049808900B98FF2804D8FFE70D98800089
:10425000039006E00D996FF01F0000EB81000390C2
:10426000FFE70398079008980068079A0F2191408C
:104270008843099991400843089908600E98C079CD
:10428000C006002840F1C680FFE7FFE741F21800B2
:10429000C4F20200016841F001010160006800F011
:1042A000010006900698FFE70D9820F00300082112
:1042B000C4F2010140580A900D9800F003008100FB
:1042C0000F2000FA01F10A9888430A900F9840F6EF
:1042D0000001C4F20101884203D1FFE700200290EF
:1042E00026E00F9840F60041C4F20101884203D154
:1042F000FFE70120019018E00F9841F20001C4F29D
:104300000101884203D1FFE7022000900AE00F99E3
:1043100041F20042C4F201020420914208BF03208E
:104320000090FFE700980190FFE701980290FFE7F7
:1043300002980D9901F00301890000FA01F10A9831
:1043400008430A900A980D9921F003010822C4F24B
:10435000010288500E988079C006002809D5FFE731
:104360000B9A40F20841C4F201010868104308604A
:1043700008E00B9A40F20841C4F20101086890433A
:104380000860FFE70E9880798006002809D5FFE7CE
:104390000B9A40F20C41C4F2010108681043086016
:1043A00008E00B9A40F20C41C4F201010868904306
:1043B0000860FFE70E9880798007002809D5FFE79D
:1043C0000B9A40F20441C4F20101086810430860EE
:1043D00008E00B9A40F20441C4F2010108689043DE
:1043E0000860FFE70E988079C00748B1FFE70B9A95
:1043F00040F20041C4F2010108681043086008E07F
:104400000B9A40F20041C4F2010108689043086031
:10441000FFE7FFE7FFE70D9801300D9079E610B058
:104420007047000082B00190ADF802108DF80120B5
:104430009DF8010028B1FFE7BDF80200019908616D
:1044400005E0BDF80200000401990861FFE702B031
:104450007047000041F2B020C2F2000000687047CF
:1044600040F29700C2F20000027841F2B021C2F29D
:1044700000010868104408607047000080B542F2EF
:104480000001C4F20201086840F010000860032037
:1044900000F096F80F2000F005F800F03BF800203F
:1044A00080BD000080B582B0009040F20C00C2F2E6
:1044B0000000006840F29701C2F200010A784FF450
:1044C0007A71B1FBF2F1B0FBF1F001F0A1FB20B188
:1044D000FFE701208DF8070018E000980F280DD89D
:1044E000FFE700994FF0FF30002200F04FF80098EE
:1044F00040F29801C2F20001086003E001208DF84B
:10450000070003E000208DF80700FFE79DF8070093
:1045100002B080BD83B0FFE741F21800C4F2020090
:10452000016841F001010160006800F001000290A3
:104530000298FFE7FFE741F21C00C4F202000168A5
:1045400041F080510160006800F0805001900198B6
:10455000FFE7FFE70421C4F201010868009000981A
:1045600020F0E0600090009840F00070009000980B
:104570000860FFE703B0704780B582B08DF8070090
:104580009DF9070004F09CFC02B080BD80B586B0A8
:104590008DF81700049103920020029004F0A8FC0B
:1045A00002909DF91700019002980499039A02F075
:1045B00063FB0146019804F0A3FC06B080BD000037
:1045C00080B582B00190019804F0BCFC02B080BDBF
:1045D0002021C4F20E2101200860704780B588B008
:1045E0000790002006900590049003900290079891
:1045F0000190012866D0FFE70198022800F0A5800D
:10460000FFE70198102840F0B080FFE741F2040076
:10461000C4F202000068039041F20000C4F20200FC
:104620000068C00100284CD5FFE70398C0F3834120
:1046300049F69870C0F60000405C04909DF80E00AA
:10464000C007F0B1FFE741F20400C4F202000068C5
:10465000C0F3404149F6A870C0F60000405C0690E7
:104660009DF80E00C00758B1FFE7069941F20020FF
:10467000C0F27A00B0FBF1F0049948430590FFE7DF
:1046800007E0049840F60011C0F23D014843059050
:10469000FFE741F20400C4F2020000684002002873
:1046A00003D5FFE7059802900AE0059840004AF616
:1046B000AB21CAF6AA21A0FB011040080290FFE737
:1046C000FFE753E041F22000C4F2020000680390CB
:1046D000039800F44070B0F5807F0AD1FFE79DF8A1
:1046E0000C008007002804D5FFE74FF4004002903B
:1046F0002AE0039800F44070B0F5007F0DD1FFE789
:1047000041F22400C4F2020000688007002804D5AA
:10471000FFE749F64040029015E0039800F440702E
:10472000B0F5407F0DD1FFE741F20000C4F2020076
:1047300000688003002804D5FFE74FF22440029070
:1047400000E0FFE7FFE7FFE710E000F03BFA41F28F
:104750000401C4F20201096801F44042022101EBA4
:104760005231B0FBF1F0029000E0FFE7029808B090
:1047700080BD000080B586B00490002003900290B8
:1047800004980078C007002800F0AC80FFE7002004
:104790008DF8070041F21C00C4F202000068C0005E
:1047A000002813D4FFE7FFE741F21C00C4F2020027
:1047B000016841F080510160006800F08050009075
:1047C0000098FFE701208DF80700FFE747F200009F
:1047D000C4F200000068C005002822D4FFE747F2B9
:1047E0000001C4F20001086840F480700860FFF71F
:1047F00031FE0390FFE747F20000C4F200000068BA
:10480000C00500280CD4FFE7FFF724FE0399401AE7
:10481000652804D3FFE703208DF817008AE0EAE754
:10482000FFE741F22000C4F20200006800F440708B
:1048300002900298E0B3FFE702980499496801F4F6
:104840004071884234D0FFE741F22001C4F20201F6
:10485000086820F44070029040F24042C4F24222C4
:104860000120106000201060029808609DF8080088
:10487000C007E0B1FFE7FFF7EDFD0390FFE741F26E
:104880002000C4F202000068800700280ED4FFE771
:10489000FFF7E0FD0399401A41F28931884204D3C1
:1048A000FFE703208DF8170044E0E8E7FFE7FFE7A4
:1048B00041F22001C4F20201086820F44070049A19
:1048C0005268104308609DF80700012809D1FFE7EE
:1048D00041F21C01C4F20201086820F08050086017
:1048E000FFE7FFE704980078800700280CD5FFE772
:1048F00041F20401C4F20201086820F44040049A25
:10490000926810430860FFE704980078C00600280A
:104910000CD5FFE741F20401C4F20201086820F45B
:104920008000049AD26810430860FFE700208DF8E9
:104930001700FFE79DF8170006B080BD80B584B072
:1049400002900191029820B9FFE701208DF80F0035
:104950001BE1019842F20001C4F20201096801F072
:104960000701884216D9FFE742F20000C4F20200B4
:10497000016821F00701019A11430160006800F00D
:1049800007000199884204D0FFE701208DF80F004D
:10499000FBE0FFE702980078800700282AD5FFE7B0
:1049A000029800784007002809D5FFE741F204018A
:1049B000C4F20201086840F4E0600860FFE7029872
:1049C00000780007002809D5FFE741F20401C4F28E
:1049D0000201086840F460500860FFE741F20401FA
:1049E000C4F20201086820F0F000029A92681043B5
:1049F0000860FFE702980078C007002860D0FFE752
:104A00000298406801280ED1FFE741F20000C4F28D
:104A1000020000688003002804D4FFE701208DF81D
:104A20000F00B2E021E00298406802280ED1FFE7B3
:104A300041F20000C4F2020000688001002804D4A2
:104A4000FFE701208DF80F009FE00DE041F200002C
:104A5000C4F2020000688007002804D4FFE70120A8
:104A60008DF80F0091E0FFE7FFE741F20401C4F287
:104A70000201086820F00300029A5268104308609F
:104A8000FFF7E8FC0090FFE741F20400C4F20200E7
:104A9000006800F00C0002994968B0EB810F0ED05D
:104AA000FFE7FFF7D7FC0099401A41F289318842AD
:104AB00004D3FFE703208DF80F0066E0E4E7FFE78B
:104AC000019842F20001C4F20201096801F00701F5
:104AD000884216D2FFE742F20000C4F202000168E9
:104AE00021F00701019A11430160006800F00700FE
:104AF0000199884204D0FFE701208DF80F0044E0BF
:104B0000FFE702980078400700280CD5FFE741F244
:104B10000401C4F20201086820F4E060029AD2683D
:104B200010430860FFE702980078000700280DD5C1
:104B3000FFE741F20401C4F20201086820F460506A
:104B4000029A126940EAC2000860FFE700F04CF8E0
:104B500041F20401C4F202010968C9B20A0949F626
:104B60008071C0F60001895CC84040F20C01C2F2BD
:104B70000001086040F29800C2F200000068FFF7F0
:104B800091FC00208DF80F00FFE79DF80F0004B0A6
:104B900080BD000040F20C00C2F2000000687047C7
:104BA00080B5FFF7F7FF41F20401C4F20201096882
:104BB000C1F3022249F69071C0F60001895CC84039
:104BC00080BD000080B5FFF7E5FF41F20401C4F2AB
:104BD00002010968C1F3C22249F69071C0F60001D2
:104BE000895CC84080BD000086B00020059004901C
:104BF00003900290019041F20400C4F202000068A8
:104C00000590059800F00C000146009100283FD067
:104C1000FFE70098042804D0FFE70098082806D092
:104C200037E041F20020C0F27A00019037E00598A9
:104C3000C0F3834149F6AA70C0F60000405C0290C0
:104C40009DF81600C007C0B1FFE741F20400C4F2AE
:104C500002000068C0F3404149F6BA70C0F6000097
:104C6000405C0490029841F20021C0F27A0148436E
:104C70000499B0FBF1F0039007E0029840F60011B0
:104C8000C0F23D0148430390FFE70398019006E01E
:104C9000FFE741F20020C0F27A000190FFE701989F
:104CA00006B0704780B586B00490049820B9FFE73D
:104CB00001208DF817002EE304980078C007002823
:104CC00000F0AE80FFE741F20400C4F20200006889
:104CD00000F00C00042813D0FFE741F20400C4F2F6
:104CE0000200006800F00C0008281BD1FFE741F229
:104CF0000400C4F202000068C003002812D5FFE7D8
:104D000041F20000C4F2020000688003002808D5C8
:104D1000FFE70498406820B9FFE701208DF81700ED
:104D2000F9E27CE0FFE704984068B0F5803F09D1E4
:104D3000FFE741F20001C4F20201086840F480304C
:104D4000086032E00498406868B9FFE741F200016A
:104D5000C4F20201086820F480300860086820F47A
:104D60008020086020E004984068B0F5A02F0DD1A5
:104D7000FFE741F20001C4F20201086840F480201C
:104D80000860086840F4803008600CE041F20001DF
:104D9000C4F20201086820F480300860086820F43A
:104DA00080200860FFE7FFE7FFE7FFE7049840681F
:104DB000D0B1FFE7FFF74EFB0390FFE741F20000A1
:104DC000C4F202000068800300280CD4FFE7FFF75C
:104DD00041FB0399401A652804D3FFE703208DF8AF
:104DE000170098E2EAE719E0FFF734FB0390FFE7CA
:104DF00041F20000C4F202000068800300280CD5D4
:104E0000FFE7FFF727FB0399401A652804D3FFE764
:104E100003208DF817007EE2EAE7FFE7FFE7FFE7F0
:104E2000049800788007002840F18D80FFE741F268
:104E30000400C4F20200006810F00C0F13D0FFE76A
:104E400041F20400C4F20200006800F00C000828DF
:104E500029D1FFE741F20400C4F202000068C00358
:104E6000002820D4FFE741F20000C4F202000068ED
:104E70008007002809D5FFE704980069012804D0BD
:104E8000FFE701208DF8170045E241F20001C4F26E
:104E90000201086820F0F800049A526940EAC20052
:104EA0000860FFE74EE00498006958B3FFE700216F
:104EB000C4F2422101200860FFF7CCFA0390FFE71B
:104EC00041F20000C4F202000068800700280CD400
:104ED000FFE7FFF7BFFA0399401A032804D3FFE75F
:104EE00003208DF8170016E2EAE741F20001C4F250
:104EF0000201086820F0F800049A526940EAC200F2
:104F000008601EE00021C4F2422100200860FFF783
:104F1000A1FA0390FFE741F20000C4F2020000682A
:104F2000800700280CD5FFE7FFF794FA0399401A91
:104F3000032804D3FFE703208DF81700EBE1EAE72D
:104F4000FFE7FFE7FFE7049800780007002848D54F
:104F5000FFE70498806918B3FFE740F28041C4F28C
:104F6000422101200860FFF775FA0390FFE741F244
:104F70002400C4F202000068800700280CD4FFE778
:104F8000FFF768FA0399401A032804D3FFE70320C8
:104F90008DF81700BFE1EAE7012001F0A5FE1FE050
:104FA00040F28041C4F2422100200860FFF752FA2B
:104FB0000390FFE741F22400C4F20200006880077A
:104FC00000280CD5FFE7FFF745FA0399401A03289C
:104FD00004D3FFE703208DF817009CE1EAE7FFE721
:104FE000FFE7049800784007002840F1D880FFE7E9
:104FF00000208DF8070041F21C00C4F20200006896
:10500000C000002813D4FFE7FFE741F21C00C4F200
:105010000200016841F080510160006800F080509A
:1050200000900098FFE701208DF80700FFE747F2A6
:105030000000C4F200000068C005002822D4FFE789
:1050400047F20001C4F20001086840F48070086073
:10505000FFF700FA0390FFE747F20000C4F20000F8
:105060000068C00500280CD4FFE7FFF7F3F90399A7
:10507000401A652804D3FFE703208DF817004AE1A2
:10508000EAE7FFE7FFE70498C068012809D1FFE7D6
:1050900041F22001C4F20201086840F001000860FA
:1050A00031E00498C06868B9FFE741F22001C4F21A
:1050B0000201086820F001000860086820F0040080
:1050C00008601FE00498C06805280DD1FFE741F291
:1050D0002001C4F20201086840F00400086008687A
:1050E00040F0010008600CE041F22001C4F202012E
:1050F000086820F001000860086820F004000860DB
:10510000FFE7FFE7FFE7FFE70498C068E0B1FFE7CC
:10511000FFF7A0F90390FFE741F22000C4F202007C
:105120000068800700280ED4FFE7FFF793F9039982
:10513000401A41F28931884204D3FFE703208DF8F9
:105140001700E8E0E8E71BE0FFF784F90390FFE7CA
:1051500041F22000C4F202000068800700280ED54A
:10516000FFE7FFF777F90399401A41F28931884246
:1051700004D3FFE703208DF81700CCE0E8E7FFE752
:105180009DF80700012809D1FFE741F21C01C4F294
:105190000201086820F080500860FFE7FFE70498EC
:1051A000C069002800F0B380FFE741F20400C4F2B8
:1051B0000200006800F00C00082800F08280FFE781
:1051C0000498C06902285CD1FFE76021C4F2422143
:1051D00000200860FFF73EF90390FFE741F200006E
:1051E000C4F202000068800100280CD5FFE7FFF739
:1051F00031F90399401A032804D3FFE703208DF8FF
:10520000170088E0EAE70498006AB0F5803F0CD107
:10521000FFE741F20401C4F20201086820F4003003
:10522000049A926810430860FFE741F20401C4F257
:105230000201086820F47410049B1A6A5B6A1A431E
:10524000104308606021C4F2422101200860FFF78A
:1052500001F90390FFE741F20000C4F20200006888
:10526000800100280CD4FFE7FFF7F4F80399401AF7
:10527000032804D3FFE703208DF817004BE0EAE78B
:105280001EE06021C4F2422100200860FFF7E2F82E
:105290000390FFE741F20000C4F2020000688001C1
:1052A00000280CD5FFE7FFF7D5F80399401A03282B
:1052B00004D3FFE703208DF817002CE0EAE7FFE7AF
:1052C00024E00498C069012804D1FFE701208DF88B
:1052D000170020E041F20400C4F2020000680290CE
:1052E000029800F480300499096A884208D1FFE7E7
:1052F000029800F470100499496A884204D0FFE7CC
:1053000001208DF8170006E0FFE7FFE7FFE7002028
:105310008DF81700FFE79DF8170006B080BD00006C
:1053200081B0009001B0704781B0009001B070472B
:1053300080B582B00190019800680068C00718B17C
:10534000FFE7012018B936E00120A0BBFFE7019874
:1053500000684068C00718B1FFE7012018B929E0CC
:10536000012038BBFFE7019800684068400700282B
:1053700003D5FFE7012018B90EE0012060B9FFE76F
:105380000198FFF7D1FF019801686FF004004860B1
:1053900001990420487406E00198FFF7C1FF0199C4
:1053A00001204874FFE701980168486820F0010077
:1053B0004860FFE7FFE702B080BD000081B00090C9
:1053C00001B0704780B582B0019001980068006814
:1053D0008007002803D5FFE7012018B917E0012056
:1053E000A8B9FFE701980068406800F002010020BA
:1053F000B0EB510F0AD0FFE70198FFF7DFFF0198EC
:105400000168486820F002004860FFE7FFE740F2CB
:105410001441C4F201014FF40030086001990120E9
:10542000487402B080BD000080B588B00690059138
:10543000049200200390029001900090069818B109
:10544000FFE7059820B9FFE701208DF81F00BDE0B8
:105450000698006840684007002803D5FFE7012050
:1054600018B906E0012020B9FFE701208DF81F00E0
:10547000ACE0069801F002FE039003994BF2C530B0
:10548000C9F2A210A1FB0021C90A0091039BA3FB52
:105490000021C90A4FF4616201FB123344F2454115
:1054A000C0F24441A3FB01C3DDF814C08CF8013005
:1054B000039BA3FB00C0C00A00FB1230A0FB01212C
:1054C000C1EB0111A0EB81000599887000981828A4
:1054D0005ED3FFE700984AF6AB21CAF6AA21A0FBEB
:1054E0000120000901900098A0FB0121090901EBAE
:1054F0004101A0EBC10005990870069801F0A4FDD8
:1055000002900298013050B1FFE702980399884257
:1055100005D9FFE703990298401A029003E04FF083
:10552000FF300290FFE7019840F2A3214143039826
:10553000A0EBC11003900698039901F06DFE20B115
:10554000FFE701208DF81F0040E00298013078B19C
:10555000FFE703990298084402900698029901F027
:1055600033FE20B1FFE701208DF81F002EE00AE096
:105570000698029901F028FE20B1FFE701208DF87E
:105580001F0023E0FFE70698019901F007FC03E004
:10559000009805990870FFE7049898B1FFE705980F
:1055A000007801F0DDFB059908700598407801F05E
:1055B000D7FB059948700598807801F0D1FB0599D3
:1055C0008870FFE700208DF81F00FFE79DF81F009F
:1055D00008B080BD80B584B0029000200190029890
:1055E00020B9FFE701208DF80F0084E00298407C8D
:1055F00038B9FFE7029900200874029800F080F89B
:10560000FFE7029902204874029800F0CFFA38B1FF
:10561000FFE702990420487401208DF80F006AE02A
:10562000029801F075FC38B1FFE702990420487434
:1056300001208DF80F005EE002980168486820F0B4
:10564000070048600298806848B1FFE746F630419D
:10565000C4F20001086820F001000860FFE746F688
:105660002C41C4F20001086820F46070029A92682C
:105670001043086002984068013020B1FFE70298AB
:105680004068019012E00120FEF7A8FF0190019808
:1056900038B9FFE702990420487401208DF80F0003
:1056A00029E0019801380190FFE7FFE7BDF8060007
:1056B00000F00F00029909688860BDF804000299A3
:1056C0000968C860029801F04FFC38B1FFE7029901
:1056D0000420487401208DF80F000CE0029900208E
:1056E000C873029A01215173029A9173029A5174FC
:1056F0008DF80F00FFE79DF80F0004B080BD00009B
:1057000080B586B005900598006842F60001C4F2A5
:10571000000188422BD1FFE7FEF75AFFFFE741F275
:105720001C00C4F20200016841F0006101600068E1
:1057300000F0006004900498FFE740F23C41C4F29E
:1057400042210120086003200190002202921146AC
:10575000FEF71CFF0198FEF70FFF029A2920039025
:105760001146FEF713FF0398FEF706FFFFE706B0AA
:1057700080BD000080B58AB0089007910692002095
:1057800005908DF80E00ADF80C00089818B1FFE7F1
:10579000079820B9FFE701208DF827009FE0FFE779
:1057A0000898007C012804D1FFE702208DF827002B
:1057B00095E0089901200874FFE7FFE708990220A7
:1057C0004874089803A90022FFF72EFE20B1FFE7D6
:1057D00001208DF8270082E09DF80C009DF80D2037
:1057E0009DF80E104FF461635843C2EB021200EBB8
:1057F000820008440490069870B9FFE7079908787A
:105800004A7889784FF461635843C2EB021200EB87
:105810008200084405901BE00798007801F08AFA9E
:105820004FF46161484301900798407801F082FA93
:1058300001460198C1EB011100EB8100029007982D
:10584000807801F077FA0146029808440590FFE756
:1058500005980499884208D2FFE7059845F280111F
:10586000C0F2010108440590FFE70898059901F08E
:10587000ABFC60B1FFE7089904204874FFE7089982
:1058800000200874FFE701208DF8270027E0089822
:105890000168486820F002004860089801680868BC
:1058A00040F00200086040F20041C4F201010868C3
:1058B00040F40030086040F20841C4F20101086879
:1058C00040F400300860089901204874FFE7089907
:1058D00000200874FFE700208DF82700FFE79DF8FF
:1058E00027000AB080BD000080B588B00690059101
:1058F00004920020039002900190069818B1FFE7EF
:10590000059820B9FFE701208DF81F00A7E0FFE709
:105910000698007C012804D1FFE702208DF81F00C3
:105920009DE0069901200874FFE7FFE70699022031
:105930004874049868B9FFE70598C0780699C87359
:105940000598407806994873059880780699887379
:1059500012E00598C07801F0EDF90699C873059832
:10596000407801F0E7F9069948730598807801F0CE
:10597000E1F906998873FFE70698417B827BC07B3B
:1059800001F0B2FB069908730698007B0599087030
:10599000069801F073FB039003984BF2C531C9F2EE
:1059A000A211A0FB0110C00A0190019819284AD346
:1059B000FFE701984AF6AB21CAF6AA21A0FB011025
:1059C000000940F2A32141430398A0EBC1100390CA
:1059D0000698039901F020FC60B1FFE706990420C6
:1059E0004874FFE7069900200874FFE701208DF84E
:1059F0001F0034E0069801F027FB02900298013066
:105A000000B3FFE70298039988421AD2FFE7029891
:105A100045F28011C0F201010844029006980299F3
:105A200001F0D2FB60B1FFE7069904204874FFE75C
:105A3000069900200874FFE701208DF81F000EE092
:105A4000FFE7FFE7FFE7069901204874FFE70699A3
:105A500000200874FFE700208DF81F00FFE79DF885
:105A60001F0008B080BD000080B588B00690059189
:105A70000492002003900290069818B1FFE7059861
:105A800020B9FFE701208DF81F008AE0FFE70698A4
:105A9000007C012804D1FFE702208DF81F0080E080
:105AA000069901200874FFE7FFE706990220487471
:105AB000049870B9FFE7059908784A7889784FF417
:105AC00061635843C2EB021200EB8200084403906A
:105AD0001BE00598007801F02DF94FF4616148430F
