:020000040800F2
:1000000018050020D9000008FD060008F9060008C0
:1000100000000000000000000000000000000000E0
:100020000000000000000000000000007D0C00083F
:100030000000000000000000E9070008710E000841
:10004000EB000008EB000008EB000008EB000008E4
:10005000EB000008EB000008EB000008EB000008D4
:10006000EB000008EB000008EB000008EB000008C4
:10007000EB000008EB000008EB000008EB000008B4
:10008000EB000008EB000008EB000008EB000008A4
:10009000EB000008EB000008EB000008EB00000894
:1000A000EB000008EB000008EB000008EB00000884
:1000B000EB000008EB000008EB000008EB00000874
:1000C0000448854600F02CF800480047111300084A
:1000D000C046C04618050020044880470448004731
:1000E000FEE7FEE7FEE7FEE7FEE7FEE7AD0E0008EF
:1000F000C100000830B50B46014600202022012433
:1001000009E00D46D5409D4205D31D469540491B4B
:100110002546954040191546521E002DF1DC30BD94
:10012000064C0125064E05E0E36807CC2B430C3C4A
:1001300098471034B442F7D3FFF7C6FFEC19000814
:100140000C1A000810B5034607E018780C78A04296
:1001500001D0002010BD5B1C491C1046541EA2B2E9
:100160000028F2D10120F5E710B586B004460094CE
:10017000002001900290039005900C2004906946A5
:10018000002000F099F906B010BD00000121090718
:100190000140002901D10149486070470000024038
:1001A000002904D0026801231A43026003E00268B8
:1001B000014B1A4002607047FEFF00000168314A9F
:1001C000114001600021016041608160C1602E49E1
:1001D000884208D12C49083949680F2211432A4A1C
:1001E000083A51604DE028491431884208D1264927
:1001F00008394968F0221143234A083A516040E027
:1002000021492831884209D11F49083949680F22FC
:10021000120211431C4A083A516032E01A493C313B
:10022000884209D11849083949680F22120311433D
:10023000154A083A516024E013495031884209D1E7
:100240001149083949680F22120411430E4A083A2D
:10025000516016E00C496431884209D10A490839D5
:1002600049680F2212051143074A083A516008E015
:100270000549083949680F2212061143024A083A13
:1002800051607047FEFF0000080002400146002058
:10029000002201231B070B40002B01D1044B1A68DD
:1002A00013460B40002B01D0012000E000207047D6
:1002B0000000024010B5002202680D4B1A400C6A83
:1002C0008B6823430C6923434C6923438C69234384
:1002D000CC6923434C6A23438C6A23431A4302604C
:1002E000CB6843600B6883604B68C36010BD00003F
:1002F0000F80FFFF002120498279002A35D00A466D
:10030000126803689A430B461A600A4652680368EB
:100310009A430B465A60027951180A6803681A43D7
:100320000A60154A926803689A43134B9A601A460A
:10033000D26803689A43104BDA604279102A0CD1D4
:100340001A46926803681A430B4B9A601A46D268A1
:1003500003681A43084BDA600DE0074942795118E7
:100360000A6803681A430A6005E0027951180A68AE
:1003700003689A430A607047000401400246002067
:1003800000BF03E000231354431C98B28842F9DBFA
:100390007047F0B500220023002400BF5BE0012578
:1003A00095402B460D681D402C469C4252D10D793C
:1003B000012D02D00D79022D16D185685700032634
:1003C000BE40B54385604D795600B54086683543DB
:1003D0008560456801269640B543456045688E793D
:1003E0009640B6B235434560056857000326BE40C7
:1003F000B54305600D795600B54006683543056084
:10040000C56857000326BE40B543C560CD79560088
:10041000B540C6683543C5600D7A012D04D1056B22
:100420000E683543056303E0056B0E68B54305634D
:100430004D79042D0AD1856857000326BE40354307
:100440008560456B0E683543456303E0456B0E6878
:10045000B5434563521C102AA1D3F0BDF0B500236B
:1004600000244D07EE0E1546B5402B46CD10012D4C
:100470000BD1456A4E07F70E0F26BE40B5434562C5
:10048000456A1D432C4644620AE0056A4E07F70E92
:100490000F26BE40B5430562056A1D432C46046223
:1004A000F0BD0246002013690B40002B01D0012053
:1004B00000E0002070470000FEB504460D46A10094
:1004C000254A5158A200254B9A581143084601214C
:1004D00000F08CF9A100224A5058012100F0A6F941
:1004E000204B1A5D204B195DA300204EF058FFF7FA
:1004F000B5FF1F4B1A5D1F4B195DA3001E4EF05830
:10050000FFF7ACFF60001D49085A009002216846C1
:10051000017101214171002181710121C171A1008D
:10052000124A50586946FFF734FF60001449085AD0
:100530000090A100324650586946FFF72AFFA100FB
:10054000104A5058294600F06DFDA1000D4A505840
:10055000012100F047FDFEBDDC190008E01900088C
:10056000D8190008EA190008E8190008A4000020BA
:10057000EB190008E9190008A8000020E419000898
:10058000E6190008A00000203EB50446A1000F4A6D
:100590005058012100F02AF960000D49085A0090D6
:1005A00001216846017100218171C17103214171EE
:1005B000A100084A50586946FFF7EBFE6000044965
:1005C000085AA100034A515888613EBD78190008B5
:1005D00070190008740000204100034A515A82003B
:1005E000024B9A58916170477019000874000020FE
:1005F0004100034A515A8200024B9A589162704757
:1006000070190008740000208100064A5158496999
:100610004200054B9A5A51408200024B9A58516150
:1006200070470000740000207019000810B50446DF
:100630006200044B995AA200034B9858FFF731FF10
:1006400010BD0000881900088400002030B587B074
:1006500004460D46A100214A5058012100F0C6F879
:100660000121084600F0E2F8002168460175C175D5
:1006700060001B49085A0490A1001A4A505804A966
:10068000FFF787FE012D27D1174A115D174A105D2C
:1006900000F006FB60001649085A029000206946E7
:1006A0000873002C04D0012C02D00820487302E00B
:1006B0000C206946487301216846817302A8FFF740
:1006C00019FE0C48015D6846017103214171012149
:1006D000817101A800F014F807B030BD9819000826
:1006E0008819000884000020C9190008C2190008F0
:1006F000B4190008D019000800BFFEE770470000D9
:1007000000218278002A27D0184A03231B02D2181E
:1007100003789B109B00D15802789207D30EFF22DA
:100720009A400B469343194642789207120E03787B
:100730009B07DB0E9A4011430C4A03231B02D2187D
:1007400003789B109B00D1500278D306DB0E012268
:100750009A40064B1A6007E00278D306DB0E0122AE
:100760009A40024B80331A607047000000E100E0BD
:1007700010B5002819DA1A4A03071B0F083B9B081B
:100780009B00D2588307DC0EFF23A3409A434B07FC
:100790001B0E8407E40EA3401A43114B0407240FD9
:1007A000083CA408A4001A5118E00E4A03231B02B7
:1007B000D21883089B00D2588307DC0EFF23A34086
:1007C0009A434B071B0E8407E40EA3401A43054BC4
:1007D000032424021B198408A4001A5110BD000030
:1007E0001CED00E000E100E070470000002905D0AA
:1007F000054A52690243044B5A6104E0024A5269B5
:100800008243014B5A61704700100240002905D015
:10081000054AD2690243044BDA6104E0024AD26914
:100820008243014BDA61704700100240002905D075
:10083000054A92690243044B9A6104E0024A9269B4
:100840008243014B9A61704700100240F0B585B0B9
:100850000446002500270026002003900290019006
:100860000090DC48806A80210840C709002F54D1DD
:10087000D848C03840680C2108400546002D06D0F5
:10088000042D07D0082D08D00C2D42D13EE0D248CF
:10089000206041E0D04820603EE0CE48C03840684B
:1008A0000F21890408400646CA48C0384068012123
:1008B000090408400390B00C861C0398002803D15B
:1008C000C6487043206020E0C248C038C06A0007B4
:1008D000000F02900298401C0290BE48806AFF21DF
:1008E0000131084000900098002807D1BA497143AF
:1008F00008460299FFF7FEFB206006E0B649714307
:1009000008460299FFF7F6FB206005E0B448206036
:1009100002E0B148206000BF27E0012F25D1AD489B
:10092000806A382108400546102D11D004DC002DC6
:1009300007D0082D15D108E0182D0CD0202D10D18E
:100940000CE00120C00320600EE0A64820600BE010
:10095000A348206008E0A448206005E09E4820608D
:1009600002E09F48206000BF00BF9A48C03840683E
:10097000F021084005462D099C48405D0190216802
:100980000198C14061609348C0384068072109025E
:10099000084005462D0A9548405D01906168019820
:1009A000C140A1608B48C038006B1021084010285E
:1009B00002D08948E06001E02068E0608548806AF4
:1009C000032189060840002802D1A068206120E0A8
:1009D0008048806A032189060840012189068842EF
:1009E00002D17D48206114E07A48806A032189069B
:1009F00008400121C906884202D12068206108E030
:100A00007448806A032189060840884201D1A068A1
:100A100020617048C038006B8007800F002802D129
:100A2000A06860611CE06B48C038006B8007800FD5
:100A3000012802D12068606112E06648C038006B6E
:100A40008007800F022802D18003606108E06148BE
:100A5000C038006B8007800F032801D15E486061B9
:100A60005C48C038006B032109040840002802D10B
:100A7000A068A06123E05748C038006B0321090437
:100A8000084001210904884202D12068A06116E0D3
:100A90005048C038006B0321090408400121490473
:100AA000884202D18010A06109E04A48C038006B3A
:100AB000032109040840884201D14748A061454804
:100AC00040304069032109040840002802D1A06891
:100AD000E06123E03F4840304069032109040840B9
:100AE00001210904884202D12068E06116E03948FA
:100AF000403040690321090408400121490488422B
:100B000002D18010E06109E03248403040690321A1
:100B100009040840884201D12F48E0612D48403047
:100B20004069032189040840002802D1A06820629E
:100B300023E028484030406903218904084001210E
:100B40008904884202D12068206216E021484030A2
:100B500040690321890408400121C904884202D167
:100B60000011206209E01B484030406903218904DC
:100B70000840884201D1184820621648C038006AEF
:100B8000032109020840002821D01248C038006A19
:100B90000840FF210131884202D1C001606216E0A5
:100BA0000C48C038006A03210902084001214902AB
:100BB000884202D10B48606209E00648C038006AEA
:100BC000032109020840884201D10948606205B04A
:100BD000F0BD0000C010024000127A0000093D0084
:100BE000007E56037E9A0000809FD500640000209E
:100BF00090D0030010B50220FFF718FD002807D0A1
:100C000000BF0220FFF712FD0028FAD0042010BD1B
:100C10000320FFF70BFD002807D000BF0320FFF7DC
:100C200005FD0028FAD00320F1E70420FFF7FEFCC1
:100C3000002807D000BF0420FFF7F8FC0028FAD0F6
:100C40000520E4E70520FFF7F1FC002807D000BFEE
:100C50000520FFF7EBFC0028FAD00220D7E706209A
:100C6000FFF7E4FC002807D000BF0620FFF7DEFCFA
:100C70000028FAD00120CAE70020C8E7704700002A
:100C8000002905D0054A12680243044B1A6004E0AB
:100C9000024A12688243014B1A607047000001400B
:100CA00030B500228B071C0F0F23A3401A468B1070
:100CB000002B06D0012B13D0022B20D0032B3CD1CC
:100CC0002CE01F4B9B6893431D4CA36023469B68FD
:100CD0008C07250F0446AC402343194CA3602DE03C
:100CE000174BDB689343164CE3602346DB688C07A5
:100CF000250F0446AC402343114CE3601EE0104B2B
:100D00001B6993430E4C236123461B698C07250FF7
:100D10000446AC4023430A4C23610FE0084B5B6957
:100D20009343074C636123465B698C07250F044698
:100D3000AC402343024C636100E000BF00BF30BD04
:100D40000000014010B500F001F810BD0CB5002006
:100D5000019000902E48806A0121090408432C4923
:100D6000886200BF2A48806A012149040840009037
:100D70000198401C01900098002803D12549019852
:100D80008842EFD12248806A0121490408400028A6
:100D900002D00120009001E000200090009801287E
:100DA00035D11D480068102108431B4908600846DA
:100DB0000068C008C00008600846006802210843B7
:100DC000154908601248C03840681149C039486068
:100DD00008464068091508430D49C03948600C4869
:100DE000806A802108430A4988620846806AC008F0
:100DF000C00088620846806A02210843044988626C
:100E000000BF0348806A382108401028F9D10CBD82
:100E1000C0100240FFFF00000020024010B5642116
:100E200010480068FFF766F90446601E0E498842C4
:100E300001D901200DE0601E0C4948610721002006
:100E4000C043FFF795FC002008498861072008612E
:100E50000020002801D000BFFEE70021481EFFF758
:100E600087FC10BD50000020FFFFFF0000E000E005
:100E700010B50C480068002804D00A480068401EDD
:100E800008490860084800780A2805DA064800780A
:100E9000401C0549087004E0002003490870FFF772
:100EA000B3FB10BD480000200000002010B54148F1
:100EB0000068012108433F490860084640683E49F0
:100EC00008403C494860084600683C4908403949A8
:100ED0000860084600680121890488433549086094
:100EE0000846006B36490840324908630846406BA3
:100EF00040084000486300208860324908612D485E
:100F0000C069490508432B49C8612F482F49C8606B
:100F10002F48C8600846006BFF21090288432D490D
:100F2000C96AFF2212021140084328490863084693
:100F3000006B000A00022749898DC9B20843234982
:100F400008630846406B000B00032249098D090520
:100F5000090D08431D4948630846006A000B000359
:100F60001C49898C0905090D08431849086208467F
:100F7000806A000A00021749097F08431349886202
:100F80000846C06A000A00021249C9691140090AEC
:100F900008430E49C8620846406B491408430B4990
:100FA00048630C48806B000C0B49C861FFF7CAFE10
:100FB00010BD0000001002400CF8FF00FFFFF6FE1D
:100FC000ECFFFCFF802002408519000040700040CB
:100FD00029040000C0F7FF1F0011024000BFFEE718
:100FE00001627047002904D0026801231A4302609D
:100FF00003E002685208520002607047002A03D0E2
:1010000083680B43836002E083688B43836070478F
:1010100002460020D3690B40002B01D0012000E0E4
:1010200000207047F0B58DB004460D460027002023
:101030000C9000262068400840002060666803216C
:101040000903304688430646A8680643666026685A
:101050002A480640E9686868084329690843064346
:101060002660A6680321090230468843064668695F
:101070000643A66001A8FFF7E9FB2148844202D19C
:1010800006980C9007E01F48844202D107980C9004
:1010900001E003980C9020680121C9030840002852
:1010A0000CD029680C9A5000FFF724F807462968ED
:1010B0000C9A5000FFF71EF80E4609E029680C98BC
:1010C000FFF718F8074629680C98FFF713F80E4643
:1010D00028684008B04200D87F1C20680121C9035D
:1010E0000840002806D03807460F38460649084011
:1010F00030430746B8B2E0600DB0F0BDF3E9FFFF42
:101100000038014000440040F0FF0000CA05D20D45
:101110008262704710B58AB0044601214804FFF787
:1011200065FB01214804FFF761FB01214804FFF73B
:101130006DFB022168460172002181720321417218
:101140000121C1720420019001A90920C006FFF706
:1011500020F90820019001A90920C006FFF719F91C
:10116000032202210920C006FFF778F90322114665
:101170000920C006FFF772F90494002009900C20A2
:101180000890002007900690059004A90448FFF7F6
:1011900049FF01210248FFF725FF0AB010BD0000FA
:1011A0000044004070B504460D4601200006FEF7DD
:1011B000EDFF00211048FEF7F3FF002240210F4809
:1011C000FFF71CFF0C48FEF7F9FF0C4824300C49D0
:1011D00008600846C5604460002088604862064890
:1011E000FFF768F8012240210448FFF707FF0121BB
:1011F0000148FEF7D5FF70BD80000240004400406A
:10120000B000002070B504460D4601200005FEF731
:10121000BDFF00211348FEF7C3FF002280211248C2
:10122000FFF7ECFE0F48FEF7C9FF0F4828300F49C3
:1012300008600846C560446010208860400248622B
:101240000848FFF737F8012280210748FFF7D6FE4C
:1012500040210548FFF7C4FE01210248FEF7A0FF28
:1012600070BD00006C00024000440040B00000204F
:1012700010B5024A024900F022F810BDDD12000844
:10128000AC00002030B47446641E2578641CAB4268
:1012900004D3635D5B00E31830BC18471D46F8E7D4
:1012A00002E008C8121F08C1002AFAD1704770472F
:1012B000002001E001C1121F002AFBD17047F8B5E0
:1012C00016460F460446002503E03946B047641C25
:1012D0006D1C20780028F8D12846F8BDF8B50546E1
:1012E0000F460026E9B20848FFF710FF00BF802133
:1012F0000548FFF78DFE0446761C002C02D10348FA
:101300008642F4D12846F8BD00380140FFFF0000B6
:101310000020FFF739F90120FFF736F90220FFF727
:1013200033F90320FFF730F900210220FFF78EF98F
:1013300000210320FFF78AF900210420FFF786F936
:1013400000210520FFF782F900210620FFF77EF932
:10135000FFF764FDE1204002FEF706FFE1204002B6
:10136000FFF7D8FE01210846FFF740FA0020FB49AD
:101370008861C86108618020486100200862886235
:1013800001214806FFF77CFCF5A0FFF771FFECE2B6
:101390000221F848FEF7F2FF0221F748FEF7EEFFC0
:1013A0003C21F648FEF7EAFF0221F248FFF7FAFE79
:1013B000FFF720FCF249087003E0FFF71BFCF0493F
:1013C0000870EF480078002803D1EA480078002828
:1013D000F3D0EB48007800287ED0E648007800285B
:1013E0007AD10221E448FFF7DDFEE6A0FFF740FFD7
:1013F000E34800780300FFF745FF0631281F0D047E
:101400001631E8A0FFF734FF5520DA4908700120B3
:10141000487024E0E8A0FFF72BFFAA20D549087008
:10142000052048701BE0E9A0FFF722FF3320D149D7
:1014300008701420487012E0E9A0FFF719FFCC20D3
:10144000CC4908701E20487009E0EAA0FFF710FFA1
:10145000FF20C84908703C20487000E000BF00BF72
:101460000221C448FFF7CEFE6420E749086000BFB0
:1014700001204005FEF70AFF002803D1E24800687A
:101480000028F5D1E0480068002801D1FFF7A6FD4B
:101490006420DD49086000BF4021DC48FFF7B8FD4B
:1014A000002803D1D84800680028F5D1D648006844
:1014B000002801D1FFF792FDD5A0FFF7D9FE6420E7
:1014C000D149086000BF01204006FEF7DFFE00287A
:1014D00005D1CD48006800E04EE00028F3D1CA48AD
:1014E0000068002801D1FFF779FDD1A0FFF7C0FE09
:1014F000A0484178D548FFF785FE6420C2490860BE
:1015000000BF01204005FEF7C1FE002803D1BE4800
:1015100000680028F5D1BC480068002801D1FFF719
:101520005DFD6420B849086000BF4021B748FFF75F
:101530006FFD002803D1B44800680028F5D1B248F7
:101540000068002801D1FFF749FDC1A0FFF790FE18
:1015500001200005FEF71AFE01200006FEF716FE28
:101560000021C348FEF71CFE00228021A748FFF798
:1015700045FD00207F4908707E48007800287DD016
:101580006420A149086000BF01204006FEF77EFEEE
:10159000002803D19C4800680028F5D19A480068CB
:1015A000002801D1FFF71AFD724841787348FFF710
:1015B000F9FD704800787049087066204870022173
:1015C0006D48FFF71FFE64208F49086000BF0120AF
:1015D0004005FEF75BFE002803D18B480068002819
:1015E000F5D189480068002801D1FFF7F7FC642095
:1015F0008549086000BF40218448FFF709FD0028A5
:1016000003D1814800680028F5D17F480068002890
:1016100001D1FFF7E3FC97A0FFF72AFE64207A4987
:10162000086000BF01204006FEF730FE002803D10D
:10163000754800680028F5D173480068002801D17A
:10164000FFF7CCFC92A0FFF713FE01200005FEF788
:101650009DFD01200006FEF799FD0021844814300D
:10166000FEF79EFD002240216848FFF7C7FC414875
:101670004078142834D006DC012800E075E107D05A
:10168000052869D118E01E283ED03C28F9D14FE04A
:1016900001223A496D48FEF755FD00280BD083A082
:1016A000FFF7E6FD0120FEF7A3FF0220FEF7A0FFF3
:1016B0000320FEF791FF54E1052230496348FEF70D
:1016C00041FD00280BD082A0FFF7D2FD0320FEF7DA
:1016D0008FFF0120FEF780FF0220FEF77DFF40E133
:1016E000142226495948FEF72DFD00280BD081A071
:1016F000FFF7BEFD0120FEF77BFF0220FEF76CFF27
:101700000320FEF769FF2CE11E221C494F48FEF71B
:1017100019FD00280BD080A0FFF7AAFD0220FEF7DC
:1017200067FF0120FEF758FF0320FEF755FF18E181
:101730003C2212494548FEF705FD00280BD07FA04A
:10174000FFF796FD0120FEF753FF0220FEF750FF42
:101750000320FEF74DFF04E102E10000B00000208D
:1017600073797374656D2069732072756E6E696E1E
:1017700067210A004100002043000020DC00002017
:101780004C00002073797374656D20696E204D6F75
:101790006465205472616E736D6974746572210A98
:1017A000000000004A4F595F524947485420507288
:1017B0006573736564210A004A4F595F4C4546546E
:1017C0002050726573736564210A00004A4F595FA7
:1017D00055502050726573736564210A0000000043
:1017E0004A4F595F444F574E20507265737365647A
:1017F000210A00004A4F595F53454C2050726573CF
:10180000736564210A000000480000200044004085
:101810006B657920436D64427566666572207365F9
:101820006E642073756363657373210A00000000A2
:1018300041636B204275666665722072656376202F
:1018400073756363657373210A0000000400002050
:101850006B657920446174614275666665722073B8
:10186000656E642073756363657373210A000000FD
:101870006C00024041636B2042756666657220739E
:10188000656E642073756363657373210A000000DD
:101890004461746120427566666572207265637684
:1018A0002073756363657373210A00004A4F595FA3
:1018B00052494748542052656365697665642064DF
:1018C00061746120636F72726563746C79210A00C0
:1018D0004A4F595F4C4546542052656365697665A9
:1018E00064206461746120636F72726563746C79E3
:1018F000210A00004A4F595F5550205265636569BF
:10190000766564206461746120636F7272656374CC
:101910006C79210A000000004A4F595F444F574E2E
:101920002052656365697665642064617461206333
:101930006F72726563746C79210A00004A4F595FB7
:1019400053454C2052656365697665642064617413
:101950006120636F72726563746C79210A00000004
:1019600000BF00BF00200149087011E541000020C0
:101970000004000800100400000008000000080037
:10198000000008000000100000200001000100021B
:10199000400080000100000000000800000004007A
:1019A0000000080000000800000008000000080017
:1019B0000000020000200001000100024000800041
:1019C0000100020102020202000D080809060700D8
:1019D0000707070707070500004000000000020096
:1019E0000000020000020004090A01010C1A0008AC
:1019F00000000020B0000000A0120008BC1A00087F
:101A0000B000002068040000B012000800000000D0
:101A1000555341525420444D41204578616D706CBE
:101A2000653A20436F6D6D756E69636174696F6EA1
:101A3000206265747765656E2074776F2055534119
:101A40005254207573696E6720444D4100000000B8
:101A5000000000000000000000000000007E5603AF
:101A6000000000000000000001020304060708094E
:101A70000000000001020304010203040607080934
:101A8000000800480008004800080048000C004812
:101A9000000800480004004800080048000800480A
:101AA00000080048000800480000004800380140D5
:0C1AB0000000004800000048000000009A
:04000005080000C12E
:00000001FF
