:020000040800F2
:1000000050040020D9000008E9050008E5050008B3
:1000100000000000000000000000000000000000E0
:10002000000000000000000000000000F5090008CA
:100030000000000000000000EB050008D10A0008E5
:10004000EB000008EB000008EB000008EB000008E4
:10005000EB000008EB000008EB000008EB000008D4
:10006000EB000008EB000008EB000008EB000008C4
:100070006D010008EB000008EB000008EB00000831
:10008000EB000008EB000008EB000008EB000008A4
:10009000EB000008EB000008EB000008EB00000894
:1000A000EB000008EB000008EB000008EB00000884
:1000B000EB000008EB000008EB000008EB00000874
:1000C0000448854600F040F800480047090F000842
:1000D000C046C046500400200448804704480047FA
:1000E000FEE7FEE7FEE7FEE7FEE7FEE7D50A0008CB
:1000F000C100000830B50B46014600202022012433
:1001000009E00D46D5409D4205D31D469540491B4B
:100110002546954040191546521E002DF1DC30BD94
:1001200070B500242546002801DA01244042002948
:1001300001DA01254942FFF7DDFFAC4200D0404221
:10014000002C00D0494270BD064C0125064E05E04A
:10015000E36807CC2B430C3C98471034B442F7D3E8
:10016000FFF7B2FFD80F0008F80F000810B51021F4
:10017000064800F0B9F8002806D0002000F026FA62
:100180001021024800F010F810BD000000240140CA
:1001900010B50B460021846A1C43846200BF0C46E4
:1001A00014432146416110BD01607047002904D00D
:1001B000826801231A43826003E0826802231A43A3
:1001C0008260704700B589B00121C80400F00EFAC2
:1001D0000121480200F01AFA01200090032168462C
:1001E00001710021C1716946164800F0D7F8164820
:1001F00000F02CF8002003900121684601740020D3
:10020000059006900790089003A90F4800F07EF82B
:100210000322012189020C48FFF7BAFF0A4800F0C7
:1002200025F801210848FFF7C1FF00BF012106485A
:1002300000F042F80028F9D0034800F07DF809B03A
:1002400000BD0000000800480024014010B504462D
:100250000548844207D10121401500F0E7F900214B
:10026000601500F0E3F910BD0024014030B50146EF
:100270000020002200238C680125ED072C438C60B0
:1002800000BF8C68E30FDB07521C0F242403A2423B
:1002900001D0002BF5D18C68E40FE407002C01D1CC
:1002A000086C00E0002030BD01460A6C90B20A687C
:1002B00010231A430A60704730B50246002000231D
:1002C000012424060C40002C05D0946801252D063D
:1002D000AC43234600E013681C460C40002C01D0C0
:1002E000012000E0002030BD10B5024600200023B0
:1002F00054680C40234614680C40002C03D0002B9B
:1003000001D0012000E0002010BD000010B5002247
:10031000C268084B1A400C7964030B6823438C684D
:100320002343CC6823430C6923434C6923431A437A
:10033000C26010BD03D2FFFF8168C907C90F002941
:1003400003D08168042211438160704770B5002496
:1003500000257D21C9000B480088FFF7E1FE044617
:100360007D21C90007480088FFF7DAFE0E466421A8
:100370003046FFF7D5FE05462A46214602A000F08A
:10038000E1FC70BD02000020202020414443203DBC
:100390002025642E256420560D0A0000F0B50022A9
:1003A0000023002400BF5BE0012595402B460D682B
:1003B0001D402C469C4252D10D79012D02D00D7961
:1003C000022D16D1856857000326BE40B5438560CF
:1003D0004D795600B54086683543856045680126ED
:1003E0009640B543456045688E799640B6B2354330
:1003F0004560056857000326BE40B54305600D798A
:100400005600B540066835430560C56857000326A9
:10041000BE40B543C560CD795600B540C66835438A
:10042000C5600D7A012D04D1056B0E683543056357
:1004300003E0056B0E68B54305634D79042D0AD1C1
:10044000856857000326BE4035438560456B0E68BE
:100450003543456303E0456B0E68B5434563521C65
:10046000102AA1D3F0BDF0B5002300244D07EE0EF5
:100470001546B5402B46CD10012D0BD1456A4E07D0
:10048000F70E0F26BE40B5434562456A1D432C4614
:1004900044620AE0056A4E07F70E0F26BE40B543D8
:1004A0000562056A1D432C460462F0BDFEB5044694
:1004B0000D46A100254A5158A200254B9A581143D8
:1004C0000846012100F092F8A100224A505801216B
:1004D00000F09CF8204B1A5D204B195DA300204EC4
:1004E000F058FFF7C0FF1F4B1A5D1F4B195DA300AB
:1004F0001E4EF058FFF7B7FF60001D49085A0090E4
:10050000022168460171012141710021817101219F
:10051000C171A100124A50586946FFF73FFF6000C1
:100520001449085A0090A100324650586946FFF716
:1005300035FFA100104A5058294600F08BFBA1005E
:100540000D4A5058012100F05DFBFEBDC80F0008A8
:10055000CC0F0008C40F0008D60F0008D40F000805
:1005600044000020D70F0008D50F000848000020E5
:10057000D00F0008D20F0008400000203EB504460E
:10058000A1000F4A5058012100F030F860000D49D9
:10059000085A009001216846017100218171C171E2
:1005A00003214171A100084A50586946FFF7F6FE41
:1005B00060000449085AA100034A515888613EBDB1
:1005C000640F00085C0F0008140000204100034A7B
:1005D000515A8200024B9A58916270475C0F000892
:1005E0001400002000BFFEE770477047002905D0C7
:1005F000054A52690243044B5A6104E0024A5269B7
:100600008243014B5A61704700100240002905D017
:10061000054A92690243044B9A6104E0024A9269D6
:100620008243014B9A61704700100240002905D0B7
:10063000054AD2680243044BDA6004E0024AD268F9
:100640008243014BDA60704700100240F0B585B07C
:100650000446002500270026002003900290019008
:100660000090DC48806A80210840C709002F54D1DF
:10067000D848C03840680C2108400546002D06D0F7
:10068000042D07D0082D08D00C2D42D13EE0D248D1
:10069000206041E0D04820603EE0CE48C03840684D
:1006A0000F21890408400646CA48C0384068012125
:1006B000090408400390B00C861C0398002803D15D
:1006C000C6487043206020E0C248C038C06A0007B6
:1006D000000F02900298401C0290BE48806AFF21E1
:1006E0000131084000900098002807D1BA497143B1
:1006F00008460299FFF7FEFC206006E0B649714308
:1007000008460299FFF7F6FC206005E0B448206037
:1007100002E0B148206000BF27E0012F25D1AD489D
:10072000806A382108400546102D11D004DC002DC8
:1007300007D0082D15D108E0182D0CD0202D10D190
:100740000CE00120C00320600EE0A64820600BE012
:10075000A348206008E0A448206005E09E4820608F
:1007600002E09F48206000BF00BF9A48C038406840
:10077000F021084005462D099C48405D0190216804
:100780000198C14061609348C03840680721090260
:10079000084005462D0A9548405D01906168019822
:1007A000C140A1608B48C038006B10210840102860
:1007B00002D08948E06001E02068E0608548806AF6
:1007C000032189060840002802D1A068206120E0AA
:1007D0008048806A032189060840012189068842F1
:1007E00002D17D48206114E07A48806A032189069D
:1007F00008400121C906884202D12068206108E032
:100800007448806A032189060840884201D1A068A3
:1008100020617048C038006B8007800F002802D12B
:10082000A06860611CE06B48C038006B8007800FD7
:10083000012802D12068606112E06648C038006B70
:100840008007800F022802D18003606108E06148C0
:10085000C038006B8007800F032801D15E486061BB
:100860005C48C038006B032109040840002802D10D
:10087000A068A06123E05748C038006B0321090439
:10088000084001210904884202D12068A06116E0D5
:100890005048C038006B0321090408400121490475
:1008A000884202D18010A06109E04A48C038006B3C
:1008B000032109040840884201D14748A061454806
:1008C00040304069032109040840002802D1A06893
:1008D000E06123E03F4840304069032109040840BB
:1008E00001210904884202D12068E06116E03948FC
:1008F000403040690321090408400121490488422D
:1009000002D18010E06109E03248403040690321A3
:1009100009040840884201D12F48E0612D48403049
:100920004069032189040840002802D1A0682062A0
:1009300023E0284840304069032189040840012110
:100940008904884202D12068206216E021484030A4
:1009500040690321890408400121C904884202D169
:100960000011206209E01B484030406903218904DE
:100970000840884201D1184820621648C038006AF1
:10098000032109020840002821D01248C038006A1B
:100990000840FF210131884202D1C001606216E0A7
:1009A0000C48C038006A03210902084001214902AD
:1009B000884202D10B48606209E00648C038006AEC
:1009C000032109020840884201D10948606205B04C
:1009D000F0BD0000C010024000127A0000093D0086
:1009E000007E56037E9A0000809FD5000400002000
:1009F00090D00300704710B500F002F810BD000061
:100A00000CB50020019000902E48806A0121090455
:100A100008432C49886200BF2A48806A01214904A2
:100A2000084000900198401C01900098002803D1D4
:100A3000254901988842EFD12248806A0121490462
:100A40000840002802D00120009001E00020009022
:100A50000098012835D11D480068102108431B4922
:100A6000086008460068C008C000086008460068C2
:100A700002210843154908601248C03840681149EE
:100A8000C039486008464068091508430D49C03917
:100A900048600C48806A802108430A4988620846F9
:100AA000806AC008C00088620846806A0221084344
:100AB0000449886200BF0348806A38210840102832
:100AC000F9D10CBDC0100240FFFF00000020024021
:100AD0007047000010B541480068012108433F49B4
:100AE0000860084640683E4908403C49486008465E
:100AF00000683C49084039490860084600680121FF
:100B000089048843354908600846006B3649084027
:100B1000324908630846406B4008400048630020A3
:100B20008860324908612D48C069490508432B494E
:100B3000C8612F482F49C8602F48C8600846006B1D
:100B4000FF21090288432D49C96AFF221202114080
:100B50000843284908630846006B000A0002274939
:100B6000898DC9B20843234908630846406B000BCE
:100B700000032249098D0905090D08431D494863F1
:100B80000846006A000B00031C49898C0905090D01
:100B90000843184908620846806A000A000217499B
:100BA000097F0843134988620846C06A000A0002A8
:100BB0001249C9691140090A08430E49C86208462A
:100BC000406B491408430B4948630C48806B000C88
:100BD0000B49C861FFF70FFF10BD00000010024075
:100BE0000CF8FF00FFFFF6FEECFFFCFF8020024048
:100BF000851900004070004029040000C0F7FF1F65
:100C000000110240002904D0026801231A43026047
:100C100003E00268520852000260704700B587B0D6
:100C2000E120400201900020029003900490069081
:100C30000C20059001A90020FFF738FC07B000BD8B
:100C400002460020D3690B40002B01D0012000E0B8
:100C500000207047F0B58DB004460D4600270020F7
:100C60000C90002620684008400020606668032140
:100C70000903304688430646A8680643666026682E
:100C80002A480640E968686808432969084306431A
:100C90002660A66803210902304688430646686933
:100CA0000643A66001A8FFF7D1FC2148844202D187
:100CB00006980C9007E01F48844202D107980C90D8
:100CC00001E003980C9020680121C9030840002826
:100CD0000CD029680C9A5000FFF70CFA07462968D7
:100CE0000C9A5000FFF706FA0E4609E029680C98A6
:100CF000FFF700FA074629680C98FFF7FBF90E4644
:100D000028684008B04200D87F1C20680121C90330
:100D10000840002806D03807460F384606490840E4
:100D200030430746B8B2E0600DB0F0BDF3E9FFFF15
:100D30000038014000440040F0FF0000CA05D20D19
:100D4000826270470FB410B503A9044B044A02989D
:100D500000F018F810BC08BC04B01847D50E000805
:100D60004C00002002E008C8121F08C1002AFAD176
:100D700070477047002001E001C1121F002AFBD11B
:100D800070470000FFB58DB00446002506E0252819
:100D90000AD0109A0F999047641C6D1C2078002887
:100DA000F5D1284611B0F0BD00270121484A00972F
:100DB00000E00743641C23780846203B984010421B
:100DC000F7D120782E2817D1042007436078641CBF
:100DD0002A280CD10E98641C02C800910E900BE0DA
:100DE00000990A22514330394018641C0090207841
:100DF000014630390929F3D920780028D1D0642858
:100E000008D0692806D075281ED0109A0F999047EF
:100E10006D1C5BE00A200E99019001C90E9100281B
:100E200002DA40422D2102E0390504D52B216A4621
:100E30001172012103E0F90704D02021F7E70BAE7E
:100E40000B910DE00021FAE70A200E99019001C9EB
:100E50000E91F7E70199FFF74DF93031761E3170A9
:100E60000028F7D103A8801B20300190780701D516
:100E7000009801E0012000900199884201DD401AAC
:100E800000E000200027009006E002A8109AC05D54
:100E90000F9990476D1C7F1C0B988742F5DB04E08F
:100EA000109A30200F9990476D1C0099481E0090B1
:100EB0000029F5DC05E03078109A761C0F999047F0
:100EC0006D1C0199481E01900029F4DC641C65E743
:100ED00009280100F8B505460F460026E9B2084882
:100EE000FFF72CFF00BF80210548FFF7A9FE04464D
:100EF000761C002C02D103488642F4D12846F8BD66
:100F000000380140FFFF00000020FFF737FBFFF72C
:100F100059F9FFF783FE16E000BF04210A48FFF7E6
:100F2000CBF90028F9D00848FFF7BEF90749088037
:100F30000988074A514308460649FFF7F1F8064970
:100F40000880FFF703FAE7E70024014000000020D3
:100F5000E40C0000FF0F0000020000200004000865
:100F60000010040000000800000008000000080055
:100F7000000010000020000100010002400080007D
:100F8000010000000000080000000400000008004C
:100F90000000080000000800000008000000020037
:100FA0000020000100010002400080000100020159
:100FB00002020202000D08080906070007070707DA
:100FC00007070500004000000000020000000200CA
:100FD00000020004090A0101F80F000800000020C7
:100FE00050000000640D0008481000085000002068
:100FF00000040000740D0008000000000000000064
:10100000010203040102030406070809000800485E
:101010000008004800080048000C0048000800488C
:101020000004004800080048000800480008004884
:101030000008004800000048003801400000004857
:08104000000000480000000060
:04000005080000C12E
:00000001FF
