:020000040800F2
:1000000058040020D9000008750E0008710E000881
:1000100000000000000000000000000000000000E0
:100020000000000000000000000000008112000835
:100030000000000000000000770E00085D130008BB
:10004000EB000008EB000008EB000008EB000008E4
:10005000EB000008EB000008EB000008EB000008D4
:10006000EB000008EB000008EB000008EB000008C4
:10007000EB000008EB000008EB000008EB000008B4
:10008000EB000008EB000008EB000008EB000008A4
:10009000EB000008EB000008EB000008EB00000894
:1000A000EB000008EB000008EB000008EB00000884
:1000B000EB000008EB000008EB000008EB00000874
:1000C0000448854600F0A2FA00480047C11700081E
:1000D000C046C046580400200448804704480047F2
:1000E000FEE7FEE7FEE7FEE7FEE7FEE76113000836
:1000F000C100000830B50B46014600202022012433
:1001000009E00D46D5409D4205D31D469540491B4B
:100110002546954040191546521E002DF1DC30BD94
:1001200070B500242546002801DA01244042002948
:1001300001DA01254942FFF7DDFFAC4200D0404221
:10014000002C00D0494270BDF8B502464A40D40F99
:1001500042004B0052085B089A4202D2024608460F
:1001600011464A0023D0C30D4A00DDB2120EAD1A6B
:10017000202D35DA49020126490AF6058A19002C94
:1001800000D0524220214F1B1146B9402A4110187D
:10019000C20D9A4221D0002C17D0012D08DCDA05BF
:1001A000801AD20F8019D207DBB200F096F9F8BDA1
:1001B000DA05801A012340001B06C01880185A4235
:1001C0008018CA0F1043490007E04908C2071143CD
:1001D000DA05801A80194008801800F076F9F8BD19
:1001E00061000122511A001BF7E70122D20751409A
:1001F000AAE70122D2075040A6E7024670B54A405E
:10020000D30FDB0740002DD04A002AD0010E140E78
:10021000000212020919400A520A8418E501044634
:100220005443000A120A2E045043A4194219200C08
:10023000C543AA18120C0125AD03521C5219120411
:100240007F39240400D0521C104301D44000491EC1
:10025000C2B20C06C0092018401C4008802A02D0F7
:1002600003E0002070BD40084000002900DA0020B3
:10027000184370BD70B502464A40D50F40004A0091
:10028000ED0740085208002814D0002A12D0C40DEF
:10029000D30D41020120C0055202490A520AE41A54
:1002A000091812187D34914201D3641C00E0490002
:1002B000002C01DA002070BD0023914201D3891A7D
:1002C0000343400849000028F7D100290AD0914291
:1002D00002D10121C90705E0914201D2012101E0CB
:1002E0000121C943E005C018401900F0EEF870BDC7
:1002F000F0B51FB488B00B990998002448400999BB
:10030000C00F490049080991C0070B9900904900A6
:1003100049080B9109990898A64608431CD00B99E7
:100320000A98084318D0099801244000420D48005B
:10033000410D099824050003000B204309900B98F8
:100340000003000B20430B9050181C49401800225A
:1003500001901446104605E0002001460DB0F0BDA6
:10036000032801DA034600E003239C46C11A0AAEC3
:100370000AE05F0008ADED5B4F00F75B7D430027AF
:10038000AA187C41491C5B1E6145F2DD410004ABAB
:100390005A522104120C0A43240C401C0828DFDBAB
:1003A000019802900099704601910090059B049A73
:1003B0000799069800F0D7F8D0E700000DFCFFFF82
:1003C000C217C10F504010B54018CA07962300212C
:1003D00000F083F810BD10B500229623114600F0FE
:1003E0007CF810BDC20F410040020123400ADB052A
:1003F000D207090EC0187F2901DA0020704796291C
:1004000003DC9623591AC84001E096398840002A37
:10041000F4D040427047000070B5CD0F4A00090388
:100420000123090B1B0519430B4BED070024520D4B
:100430009A4201DA002070BD074B34339A4203DC44
:100440009A1A00F031F802E00449511888402C4310
:10045000F1D0404270BD0000FF030000CDFBFFFF64
:10046000C20FD207400040080BD0C10D0723DB01AB
:10047000C91840020905400A1143C2084007114348
:10048000704700200146704710B5202A04DB014662
:10049000203A9140002010BD914020239C1A034631
:1004A000E3401943904010BD10B5202A04DB0846F4
:1004B000203AD040002110BD0B46D340D04020242C
:1004C000A21A91400843194610BD002904DA401CC5
:1004D000490001D140084000704770B40024050C69
:1004E00005D11024000402D1002921D01124050EC9
:1004F00001D100020834050F01D10001241D850F30
:1005000001D18000A41C002801DB4000641C0029EC
:1005100008D020252E1B0D46F540A14000D001211A
:100520002943084301061B1B000ADB1D02D50020DE
:1005300070BC7047DB05181880180029F8DA401CD9
:100540004900F5D170BC40084000704710B5002B41
:1005500008DA0024401C614192185B411A4301D122
:100560004008400010BDF0B51FB482B005460C0035
:1005700003D0084601F03CF802E001F039F82030E1
:100580000246009021462846FFF77EFF049B059A0D
:1005900004460F4618431143084314D0184610432D
:1005A0001BD0009840210A1A18460599FFF77CFFD6
:1005B00005460E46009A05990498FFF765FF084323
:1005C00005D0012004E02046394607B0F0BD0020E8
:1005D000C11705430E432C43374300990E9863051A
:1005E000401A7905E40A00220C43FD0A0A3002D5BC
:1005F00000200146E9E70105101969410C9C0D9D99
:1006000000196941FFF7A2FFDFE70000064C012552
:10061000064E05E0E36807CC2B430C3C98471034AA
:10062000B442F7D3FFF750FD64180008841800089F
:1006300010B50B460021846A1C43846200BF0C463F
:1006400014432146416110BD02690A4302617047AB
:10065000002904D0826801231A43826003E0826883
:1006600002231A438260704700B589B0314800F018
:100670008DF80121C80400F0FFFB0121480200F0C1
:100680000BFC0D2000900321684601710021C1710F
:100690006946294800F0FCFA03A800F06FF9002031
:1006A0000390012168460174002005900790042002
:1006B000089003A91F4800F041F905220121890291
:1006C0001C48FFF7B5FF0522012109041948FFF76F
:1006D000AFFF012000F05AF9052201214904154815
:1006E000FFF7A6FF012000F065F90121C9071148B5
:1006F000FFF7AAFF082202210E4800F01FF80D485C
:1007000000F054F802210B4800F038F801210948A4
:1007100000F028F801210748FFF79AFF00BF0121E8
:10072000044800F061F80028F9D0024800F01CF9F4
:1007300009B000BD002401400008004810B507239F
:10074000DB01C3189B6F0B430724E4010419A36763
:100750000723DB01C3189B6F13430724E40104192B
:10076000A36710BD002904D0C26801231A43C260E8
:1007700003E0C26852085200C2607047C268022398
:100780009A43C260C2680A43C260704710B504460B
:100790000548844207D10121401500F08DFB00215E
:1007A000601500F089FB10BD0024014030B5014602
:1007B0000020002200238C680125ED072C438C606B
:1007C00000BF8C68E30FDB07521C0F242403A242F6
:1007D00001D0002BF5D18C68E40FE407002C01D187
:1007E000086C00E0002030BD30B502460020002338
:1007F000012424060C40002C05D0946801252D0608
:10080000AC43234600E013681C460C40002C01D08A
:10081000012000E0002030BDF0B589B005460C464F
:100820000020089007900690059023494988224AA5
:10083000203A128B881AFFF7C3FD07901F480799CB
:10084000FFF718FD07902046FFF7C5FD074628462D
:10085000FFF7C1FD39460490FFF7CFFC0646184963
:10086000FFF708FD069000F02FF80646FFF7A8FDF9
:10087000059014490598FFF7FDFC0F4920390490B5
:10088000088BFFF7A8FD00900699FFF7B2FC0190D6
:10089000FFF7A8FD0290FFF793FD03900799FFF77C
:1008A000ACFC07460499FFF74FFC0646FFF79AFD9C
:1008B0000890089809B0F0BDC0F7FF1F0000704213
:1008C00000404E450000C842F0B585B000200490BD
:1008D000002400271548C76B3C0C8014844210DCB0
:1008E0002046FFF778FD0190FFF7BAFD0022104B7C
:1008F00003910290FFF7FCFC0546FFF78DFD049085
:1009000010E00C49081BFFF75BFD0190FFF7A8FD05
:1009100005460022084BFFF7EBFC03910290FFF71E
:100920007BFD0490049805B0F0BD000080F7FF1F28
:1009300000001940FF1F0000000019C010B5002280
:10094000C268084B1A400C7964030B6823438C6817
:100950002343CC6823430C6923434C6923431A4344
:10096000C26010BD03D2FFFF8168C907C90F00290B
:1009700003D0816804221143816070470021016027
:1009800001718160C160016141617047002807D039
:10099000074989680122D2051143054A916006E0A2
:1009A000034989680122D2059143014A9160704749
:1009B00000270140002807D00749896801229205D5
:1009C0001143054A916006E00349896801229205B6
:1009D0009143014A916070470027014001210907B6
:1009E0000140002901D101494860704700000240E0
:1009F000002904D0026801231A43026003E0026860
:100A0000014B1A4002607047FEFF000000B58BB03A
:100A10000121084600F030FA114800F027F811488B
:100A200000901148019000200290032003900020C4
:100A300004908020059040000690800007902020C0
:100A400008900002099000200A906946044800F0CE
:100A500089F801210248FFF7CBFF0BB000BD000071
:100A60000800024040240140040000200168314A8F
:100A7000114001600021016041608160C1602E4928
:100A8000884208D12C49083949680F2211432A4A63
:100A9000083A51604DE028491431884208D126496E
:100AA00008394968F0221143234A083A516040E06E
:100AB00021492831884209D11F49083949680F2244
:100AC000120211431C4A083A516032E01A493C3183
:100AD000884209D11849083949680F221203114385
:100AE000154A083A516024E013495031884209D12F
:100AF0001149083949680F22120411430E4A083A75
:100B0000516016E00C496431884209D10A4908391C
:100B100049680F2212051143074A083A516008E05C
:100B20000549083949680F2212061143024A083A5A
:100B300051607047FEFF000008000240014600209F
:100B4000002201231B070B40002B01D1044B1A6824
:100B500013460B40002B01D0012000E0002070471D
:100B60000000024010B5002202680D4B1A400C6ACA
:100B70008B6823430C6923434C6923438C692343CB
:100B8000CC6923434C6A23438C6A23431A43026093
:100B9000CB6843600B6883604B68C36010BD000086
:100BA0000F80FFFFFEB500260025002001900024E5
:100BB00000BF42E0012C07D16100214A505A21496F
:100BC000FFF72AFE019022E061001D4A515A1D4A9A
:100BD000514308461C49FFF7A3FA07467D21C90087
:100BE000FFF79EFA06466100154A515A154A5143CD
:100BF00008461549FFF794FA7D21C9000090FFF7D8
:100C00008FFA0F4664213846FFF78AFA0546022C10
:100C100005D12A4631460DA000F0DAFC0BE0012C8C
:100C200004D110A0019900F0D3FC04E02A4631461B
:100C300011A000F0CDFC601CC4B2032CBADBFEBDD9
:100C400004000020E40C0000FF0F00002056285094
:100C5000433029202020203D2025642E2564205665
:100C60000D0A00002053656E736F7220203D202511
:100C70006420430D0A000000205628726566292072
:100C8000203D2025642E256420560D0A000000001A
:100C9000F0B500220023002400BF5BE00125954051
:100CA0002B460D681D402C469C4252D10D79012DDA
:100CB00002D00D79022D16D1856857000326BE405B
:100CC000B54385604D795600B540866835438560EB
:100CD000456801269640B543456045688E79964043
:100CE000B6B235434560056857000326BE40B5439C
:100CF00005600D795600B540066835430560C56846
:100D000057000326BE40B543C560CD795600B540B7
:100D1000C6683543C5600D7A012D04D1056B0E6898
:100D20003543056303E0056B0E68B54305634D79F4
:100D3000042D0AD1856857000326BE4035438560DF
:100D4000456B0E683543456303E0456B0E68B5435C
:100D50004563521C102AA1D3F0BDF0B50023002436
:100D60004D07EE0E1546B5402B46CD10012D0BD18B
:100D7000456A4E07F70E0F26BE40B5434562456AE9
:100D80001D432C4644620AE0056A4E07F70E0F2603
:100D9000BE40B5430562056A1D432C460462F0BDA2
:100DA000FEB504460D46A100254A5158A200254B28
:100DB0009A5811430846012100F05EF8A100224A2A
:100DC0005058012100F068F8204B1A5D204B195D46
:100DD000A300204EF058FFF7C0FF1F4B1A5D1F4BBA
:100DE000195DA3001E4EF058FFF7B7FF60001D49C4
:100DF000085A0090022168460171012141710021C9
:100E000081710121C171A100124A50586946FFF752
:100E10003FFF60001449085A0090A1003246505824
:100E20006946FFF735FFA100104A5058294600F0E7
:100E300057FBA1000D4A5058012100F029FBFEBDCF
:100E400054180008581800085018000862180008C4
:100E5000601800084C0000206318000861180008A2
:100E6000500000205C1800085E18000848000020B0
:100E700000BFFEE770477047002905D0054A526958
:100E80000243044B5A6104E0024A52698243014B17
:100E90005A61704700100240002905D0054A926946
:100EA0000243044B9A6104E0024A92698243014B77
:100EB0009A61704700100240002905D0054AD268A7
:100EC0000243044BDA6004E0024AD2688243014BD9
:100ED000DA60704700100240F0B585B00446002586
:100EE0000027002600200390029001900090DC482B
:100EF000806A80210840C709002F54D1D848C038E3
:100F000040680C2108400546002D06D0042D07D06E
:100F1000082D08D00C2D42D13EE0D248206041E09F
:100F2000D04820603EE0CE48C03840680F21890498
:100F300008400646CA48C0384068012109040840F4
:100F40000390B00C861C0398002803D1C648704358
:100F5000206020E0C248C038C06A0007000F02903D
:100F60000298401C0290BE48806AFF21013108406F
:100F700000900098002807D1BA49714308460299A9
:100F8000FFF7B8F8206006E0B649714308460299B9
:100F9000FFF7B0F8206005E0B448206002E0B148F7
:100FA000206000BF27E0012F25D1AD48806A38219D
:100FB00008400546102D11D004DC002D07D0082D67
:100FC00015D108E0182D0CD0202D10D10CE00120F7
:100FD000C00320600EE0A64820600BE0A34820601C
:100FE00008E0A448206005E09E48206002E09F4899
:100FF000206000BF00BF9A48C0384068F021084018
:1010000005462D099C48405D019021680198C1402A
:1010100061609348C03840680721090208400546CE
:101020002D0A9548405D019061680198C140A1601A
:101030008B48C038006B10210840102802D0894826
:10104000E06001E02068E0608548806A032189064D
:101050000840002802D1A068206120E08048806A12
:1010600003218906084001218906884202D17D4872
:10107000206114E07A48806A032189060840012132
:10108000C906884202D12068206108E07448806A5D
:10109000032189060840884201D1A0682061704878
:1010A000C038006B8007800F002802D1A068606103
:1010B0001CE06B48C038006B8007800F012802D10C
:1010C0002068606112E06648C038006B8007800FBE
:1010D000022802D18003606108E06148C038006BDB
:1010E0008007800F032801D15E4860615C48C038EA
:1010F000006B032109040840002802D1A068A06108
:1011000023E05748C038006B03210904084001213F
:101110000904884202D12068A06116E05048C03816
:10112000006B03210904084001214904884202D1CF
:101130008010A06109E04A48C038006B032109040F
:101140000840884201D14748A06145484030406985
:10115000032109040840002802D1A068E06123E0CF
:101160003F48403040690321090408400121090437
:10117000884202D12068E06116E039484030406979
:1011800003210904084001214904884202D180104A
:10119000E06109E032484030406903210904084019
:1011A000884201D12F48E0612D4840304069032139
:1011B00089040840002802D1A068206223E0284862
:1011C0004030406903218904084001218904884294
:1011D00002D12068206216E0214840304069032196
:1011E000890408400121C904884202D1001120620B
:1011F00009E01B48403040690321890408408842C7
:1012000001D1184820621648C038006A032109023B
:101210000840002821D01248C038006A0840FF2149
:101220000131884202D1C001606216E00C48C0382A
:10123000006A03210902084001214902884202D1C3
:101240000B48606209E00648C038006A03210902C1
:101250000840884201D10948606205B0F0BD000035
:10126000C010024000127A0000093D00007E5603C3
:101270007E9A0000809FD5000C00002090D00300D3
:10128000704710B500F002F810BD00000CB500204A
:10129000019000902E48806A0121090408432C49DE
:1012A000886200BF2A48806A0121490408400090F2
:1012B0000198401C01900098002803D1254901980D
:1012C0008842EFD12248806A012149040840002861
:1012D00002D00120009001E0002000900098012839
:1012E00035D11D480068102108431B490860084695
:1012F0000068C008C0000860084600680221084372
:10130000154908601248C03840681149C039486022
:1013100008464068091508430D49C03948600C4823
:10132000806A802108430A4988620846806AC008AA
:10133000C00088620846806A022108430449886226
:1013400000BF0348806A382108401028F9D10CBD3D
:10135000C0100240FFFF0000002002407047000064
:1013600010B541480068012108433F49086008461C
:1013700040683E4908403C494860084600683C498E
:1013800008403949086008460068012189048843FB
:10139000354908600846006B364908403249086301
:1013A0000846406B4008400048630020886032498E
:1013B00008612D48C069490508432B49C8612F4879
:1013C0002F49C8602F48C8600846006BFF210902FA
:1013D00088432D49C96AFF22120211400843284957
:1013E00008630846006B000A00022749898DC9B2CC
:1013F0000843234908630846406B000B0003224959
:10140000098D0905090D08431D4948630846006A0E
:10141000000B00031C49898C0905090D0843184974
:1014200008620846806A000A00021749097F0843DB
:10143000134988620846C06A000A00021249C96955
:101440001140090A08430E49C8620846406B491416
:1014500008430B4948630C48806B000C0B49C8617A
:10146000FFF70FFF10BD0000001002400CF8FF0056
:10147000FFFFF6FEECFFFCFF802002408519000014
:101480004070004029040000C0F7FF1F0011024017
:10149000002904D0026801231A43026003E00268B5
:1014A000520852000260704700B587B0E120400248
:1014B0000190002002900390049006900C2005906B
:1014C00001A90020FFF76CFC07B000BD0246002018
:1014D000D3690B40002B01D0012000E000207047B1
:1014E000F0B58DB004460D46002700200C90002674
:1014F00020684008400020606668032109033046E8
:1015000088430646A8680643666026682A4806405F
:10151000E968686808432969084306432660A668A5
:101520000321090230468843064668690643A660DF
:1015300001A8FFF7D1FC2148844202D106980C9003
:1015400007E01F48844202D107980C9001E00398FD
:101550000C9020680121C903084000280CD029689C
:101560000C9A5000FEF7C6FD074629680C9A5000F9
:10157000FEF7C0FD0E4609E029680C98FEF7BAFD9B
:10158000074629680C98FEF7B5FD0E462868400806
:10159000B04200D87F1C20680121C9030840002800
:1015A00006D03807460F38460649084030430746FC
:1015B000B8B2E0600DB0F0BDF3E9FFFF00380140C4
:1015C00000440040F0FF0000CA05D20D826270475F
:1015D0000FB410B503A9044B044A029800F02EF88A
:1015E00010BC08BC04B018478D1700085400002038
:1015F0002021020C01D010211046020A01D0104611
:101600000839020901D01046091F820801D010468E
:10161000891E420801D0881E7047081A704702E0F0
:1016200008C8121F08C1002AFAD17047704700206D
:1016300001E001C1121F002AFBD17047FFB58DB038
:101640000446002506E025280AD0109A0F999047F5
:10165000641C6D1C20780028F5D1284611B0F0BD1F
:1016600000270121484A009700E00743641C2378C3
:101670000846203B98401042F7D120782E2817D1F9
:10168000042007436078641C2A280CD10E98641C3F
:1016900002C800910E900BE000990A2251433039A4
:1016A0004018641C00902078014630390929F3D98C
:1016B00020780028D1D0642808D0692806D0752861
:1016C0001ED0109A0F9990476D1C5BE00A200E996E
:1016D000019001C90E91002802DA40422D2102E05A
:1016E000390504D52B216A461172012103E0F9075F
:1016F00004D02021F7E70BAE0B910DE00021FAE7B3
:101700000A200E99019001C90E91F7E70199FEF7A1
:10171000F1FC3031761E31700028F7D103A8801B10
:1017200020300190780701D5009801E00120009059
:101730000199884201DD401A00E000200027009056
:1017400006E002A8109AC05D0F9990476D1C7F1C9F
:101750000B988742F5DB04E0109A30200F999047F0
:101760006D1C0099481E00900029F5DC05E03078DA
:10177000109A761C0F9990476D1C0199481E019094
:101780000029F4DC641C65E709280100F8B505466A
:101790000F460026E9B20848FFF716FF00BF802178
:1017A0000548FFF793FE0446761C002C02D103483F
:1017B0008642F4D12846F8BD00380140FFFF000002
:1017C000FEF752FFFFF722F9FFF76EFE0AE000BFB7
:1017D0000220FFF7B3F90028FAD00220FFF7FEF845
:1017E000FFF7E0F9F3E70000000400080010040030
:1017F00000000800000008000000080000001000C1
:1018000000200001000100024000800001000000F3
:1018100000000800000004000000080000000800AC
:101820000000080000000800000002000020000185
:1018300000010002400080000100020102020202D9
:10184000000D080809060700070707070707050036
:10185000004000000000020000000200000200043E
:10186000090A010184180008000000205800000047
:101870001E160008DC1800085800002000040000B4
:101880002E1600080000000000000000000000000C
:101890000000000001020304010203040607080916
:1018A000000800480008004800080048000C0048F4
:1018B00000080048000400480008004800080048EC
:1018C00000080048000800480000004800380140B7
:0C18D0000000004800000048000000007C
:04000005080000C12E
:00000001FF
