:020000040800F2
:1000000050040020D90000082D050008290500082B
:1000100000000000000000000000000000000000E0
:10002000000000000000000000000000AD09000812
:100030000000000000000000A10500082D0B0008D2
:10004000EB000008EB000008EB000008EB000008E4
:10005000EB000008EB000008EB0000085901000865
:10006000EB000008EB000008EB000008EB000008C4
:10007000EB000008EB000008EB000008EB000008B4
:10008000EB000008EB000008EB000008EB000008A4
:10009000EB000008EB000008EB000008EB00000894
:1000A000EB000008EB000008EB000008EB00000884
:1000B000EB000008EB000008EB000008EB00000874
:1000C0000448854600F02CF800480047FD10000861
:1000D000C046C046500400200448804704480047FA
:1000E000FEE7FEE7FEE7FEE7FEE7FEE7310B00086E
:1000F000C100000830B50B46014600202022012433
:1001000009E00D46D5409D4205D31D469540491B4B
:100110002546954040191546521E002DF1DC30BD94
:10012000064C0125064E05E0E36807CC2B430C3C4A
:1001300098471034B442F7D3FFF7C6FFA81200085F
:10014000C812000801B502E00098401E0090009817
:100150000028F9D108BD000010B5402000F07AF861
:10016000002813D0FF210331174800F01FFE00BF05
:100170008021154800F080FD0028F9D06A2213A1E3
:1001800018A000F09BFE402000F05EF8802000F0F8
:1001900061F8002816D0224800F003FEFF21043148
:1001A000094800F003FE00BF8021074800F064FD0D
:1001B0000028F9D07E2205A11AA000F07FFE802041
:1001C00000F042F810BD0000003801402E2E5C7394
:1001D00072635C686B333266307878615F69742E65
:1001E000630000005B25733A25645D095553415255
:1001F00054782053656E642074686520616464726D
:10020000657373206D61726B20746F2077616B650D
:10021000757020555341525479210D0A0000000099
:10022000004400405B25733A25645D0955534152F3
:10023000547920656E746572204D757465206D6FFC
:100240006465210D0A000000014948617047000003
:100250000004014001460020044A52690A40002A75
:1002600001D0012000E000207047000000040140A0
:10027000002120498279002A35D00A461268036895
:100280009A430B461A600A46526803689A430B4623
:100290005A60027951180A6803681A430A60154ABD
:1002A000926803689A43134B9A601A46D2680368AF
:1002B0009A43104BDA604279102A0CD11A469268A0
:1002C00003681A430B4B9A601A46D26803681A43B4
:1002D000084BDA600DE00749427951180A68036853
:1002E0001A430A6005E0027951180A6803689A43C4
:1002F0000A60704700040140F0B50022002300248A
:1003000000BF5BE0012595402B460D681D402C4643
:100310009C4252D10D79012D02D00D79022D16D1BA
:10032000856857000326BE40B54385604D79560069
:10033000B540866835438560456801269640B543DB
:10034000456045688E799640B6B23543456005688C
:1003500057000326BE40B54305600D795600B540F1
:10036000066835430560C56857000326BE40B5439F
:10037000C560CD795600B540C6683543C5600D7A75
:10038000012D04D1056B0E683543056303E0056B51
:100390000E68B54305634D79042D0AD18568570071
:1003A0000326BE4035438560456B0E683543456383
:1003B00003E0456B0E68B5434563521C102AA1D378
:1003C000F0BDF0B5002300244D07EE0E1546B540F4
:1003D0002B46CD10012D0BD1456A4E07F70E0F2687
:1003E000BE40B5434562456A1D432C4644620AE05F
:1003F000056A4E07F70E0F26BE40B5430562056A33
:100400001D432C460462F0BD3EB50446A1000F4AD0
:100410005058012100F0C6F860000D49085A0090BC
:1004200001216846017100218171C171032141716F
:10043000A100084A50586946FFF75EFF6000044972
:10044000085AA100034A515888613EBD3412000881
:100450002C120008100000208100064A51584969FA
:100460004200054B9A5A51408200024B9A58516102
:1004700070470000100000202C12000830B587B033
:1004800004460D46A100214A5058012100F08AF887
:100490000121084600F0A6F8002168460175C175E3
:1004A00060001B49085A0490A1001A4A505804A938
:1004B000FFF722FF012D27D1174A115D174A105D62
:1004C00000F076FA60001649085A0290002069464A
:1004D0000873002C04D0012C02D00820487302E0DD
:1004E0000C206946487301216846817302A8FFF712
:1004F000BFFE0C48015D6846017103214171012175
:10050000817101A800F014F807B030BD5412000842
:100510004412000820000020851200087E12000806
:10052000701200088C12000800BFFEE77047000040
:1005300000218278002A27D0184A03231B02D218F0
:1005400003789B109B00D15802789207D30EFF22AC
:100550009A400B469343194642789207120E03784D
:100560009B07DB0E9A4011430C4A03231B02D2184F
:1005700003789B109B00D1500278D306DB0E01223A
:100580009A40064B1A6007E00278D306DB0E012280
:100590009A40024B80331A607047000000E100E08F
:1005A00070470000002905D0054A52690243044BF8
:1005B0005A6104E0024A52698243014B5A61704712
:1005C00000100240002905D0054AD2690243044BBD
:1005D000DA6104E0024AD2698243014BDA61704772
:1005E00000100240002905D0054A92690243044BDD
:1005F0009A6104E0024A92698243014B9A61704712
:1006000000100240F0B585B0044600250027002602
:1006100000200390029001900090DC48806A8021C5
:100620000840C709002F54D1D848C03840680C2171
:1006300008400546002D06D0042D07D0082D08D00F
:100640000C2D42D13EE0D248206041E0D0482060ED
:100650003EE0CE48C03840680F2189040840064675
:10066000CA48C03840680121090408400390B00C12
:10067000861C0398002803D1C6487043206020E000
:10068000C248C038C06A0007000F02900298401CA0
:100690000290BE48806AFF21013108400090009816
:1006A000002807D1BA49714308460299FFF722FD95
:1006B000206006E0B649714308460299FFF71AFD2B
:1006C000206005E0B448206002E0B148206000BF2F
:1006D00027E0012F25D1AD48806A38210840054622
:1006E000102D11D004DC002D07D0082D15D108E005
:1006F000182D0CD0202D10D10CE00120C00320605B
:100700000EE0A64820600BE0A348206008E0A44863
:10071000206005E09E48206002E09F48206000BF06
:1007200000BF9A48C0384068F021084005462D09AE
:100730009C48405D019021680198C14061609348E8
:10074000C038406807210902084005462D0A95482F
:10075000405D019061680198C140A1608B48C0383C
:10076000006B10210840102802D08948E06001E0A9
:100770002068E0608548806A0321890608400028D7
:1007800002D1A068206120E08048806A03218906A8
:10079000084001218906884202D17D48206114E089
:1007A0007A48806A0321890608400121C9068842E7
:1007B00002D12068206108E07448806A032189061C
:1007C0000840884201D1A06820617048C038006BA1
:1007D0008007800F002802D1A06860611CE06B4890
:1007E000C038006B8007800F012802D1206860614B
:1007F00012E06648C038006B8007800F022802D1E3
:100800008003606108E06148C038006B8007800F9A
:10081000032801D15E4860615C48C038006B032149
:1008200009040840002802D1A068A06123E05748CD
:10083000C038006B032109040840012109048842E3
:1008400002D12068A06116E05048C038006B032137
:100850000904084001214904884202D18010A061A6
:1008600009E04A48C038006B032109040840884267
:1008700001D14748A061454840304069032109043F
:100880000840002802D1A068E06123E03F484030E2
:10089000406903210904084001210904884202D16A
:1008A0002068E06116E039484030406903210904BE
:1008B000084001214904884202D18010E06109E02A
:1008C000324840304069032109040840884201D180
:1008D0002F48E0612D4840304069032189040840D9
:1008E000002802D1A068206223E0284840304069F7
:1008F00003218904084001218904884202D120682B
:10090000206216E0214840304069032189040840F4
:100910000121C904884202D10011206209E01B486C
:1009200040304069032189040840884201D11848B9
:1009300020621648C038006A0321090208400028D6
:1009400021D01248C038006A0840FF210131884296
:1009500002D1C001606216E00C48C038006A032171
:100960000902084001214902884202D10B48606215
:1009700009E00648C038006A03210902084088429D
:1009800001D10948606205B0F0BD0000C01002400E
:1009900000127A0000093D00007E56037E9A000096
:1009A000809FD5000000002090D003007047000019
:1009B00030B500228B071C0F0F23A3401A468B1063
:1009C000002B06D0012B13D0022B20D0032B3CD1BF
:1009D0002CE01F4B9B6893431D4CA36023469B68F0
:1009E0008C07250F0446AC402343194CA3602DE02F
:1009F000174BDB689343164CE3602346DB688C0798
:100A0000250F0446AC402343114CE3601EE0104B1D
:100A10001B6993430E4C236123461B698C07250FEA
:100A20000446AC4023430A4C23610FE0084B5B694A
:100A30009343074C636123465B698C07250F04468B
:100A4000AC402343024C636100E000BF00BF30BDF7
:100A50000000014010B500F001F810BD0CB50020F9
:100A6000019000902E48806A0121090408432C4916
:100A7000886200BF2A48806A01214904084000902A
:100A80000198401C01900098002803D12549019845
:100A90008842EFD12248806A012149040840002899
:100AA00002D00120009001E0002000900098012871
:100AB00035D11D480068102108431B4908600846CD
:100AC0000068C008C00008600846006802210843AA
:100AD000154908601248C03840681149C03948605B
:100AE00008464068091508430D49C03948600C485C
:100AF000806A802108430A4988620846806AC008E3
:100B0000C00088620846806A02210843044988625E
:100B100000BF0348806A382108401028F9D10CBD75
:100B2000C0100240FFFF000000200240704700009C
:100B300010B541480068012108433F490860084654
:100B400040683E4908403C494860084600683C49C6
:100B50000840394908600846006801218904884333
:100B6000354908600846006B364908403249086339
:100B70000846406B400840004863002088603249C6
:100B800008612D48C069490508432B49C8612F48B1
:100B90002F49C8602F48C8600846006BFF21090232
:100BA00088432D49C96AFF2212021140084328498F
:100BB00008630846006B000A00022749898DC9B204
:100BC0000843234908630846406B000B0003224991
:100BD000098D0905090D08431D4948630846006A47
:100BE000000B00031C49898C0905090D08431849AD
:100BF00008620846806A000A00021749097F084314
:100C0000134988620846C06A000A00021249C9698D
:100C10001140090A08430E49C8620846406B49144E
:100C200008430B4948630C48806B000C0B49C861B2
:100C3000FFF710FF10BD0000001002400CF8FF008D
:100C4000FFFFF6FEECFFFCFF80200240851900004C
:100C50004070004029040000C0F7FF1F001102404F
:100C6000002904D0026801231A43026003E00268ED
:100C7000520852000260704702460020D3690B40C0
:100C8000002B01D0012000E000207047F0B58DB0AE
:100C900004460D46002700200C90002620684008DE
:100CA00040002060666803210903304688430646F9
:100CB000A8680643666026682A480640E9686868AE
:100CC00008432969084306432660A66803210902F0
:100CD00030468843064668690643A66001A8FFF7C8
:100CE00091FC2148844202D106980C9007E01F48ED
:100CF000844202D107980C9001E003980C90206880
:100D00000121C903084000280CD029680C9A500022
:100D1000FFF7F0F9074629680C9A5000FFF7EAF947
:100D20000E4609E029680C98FFF7E4F907462968A0
:100D30000C98FFF7DFF90E4628684008B04200D84B
:100D40007F1C20680121C9030840002806D038070D
:100D5000460F38460649084030430746B8B2E060BF
:100D60000DB0F0BDF3E9FFFF003801400044004042
:100D7000F0FF0000002905D0026801235B031A433D
:100D8000026004E0026801235B039A43026070473B
:100D900002680123DB029A43026002680A43026090
:100DA00070470146486AC005C00D7047CA05D20D9C
:100DB0008262704742680F231B069A434260426872
:100DC0000B061A434260704710B58AB004460121F1
:100DD0004804FFF7E7FB01214804FFF7E3FB01218B
:100DE0008803FFF7FFFB01214804FFF7DBFB01212C
:100DF0004804FFF7D7FB01214804FFF7E3FB02217A
:100E00006846017200218172032141720121C17281
:100E10004802019001A90920C006FFF76DFA0120E0
:100E20008002019001A90920C006FFF765FA04209D
:100E3000019001A90920C006FFF75EFA0820019081
:100E400001A90920C006FFF757FA01220921C806A7
:100E5000FFF7B7FA01220A210920C006FFF7B1FA0D
:100E6000032202210920C006FFF7ABFA0322114634
:100E70000920C006FFF7A5FA0494002009900C2071
:100E8000089000200790069001200003059004A917
:100E90000848FFF7FBFE04A90748FFF7F7FE01210A
:100EA0000448FFF7DDFE01210348FFF7D9FE0AB031
:100EB00010BD000000380140004400400FB410B5E0
:100EC00003A9044B044A029800F018F810BC08BCAF
:100ED00004B01847C91000084800002002E008C804
:100EE000121F08C1002AFAD170477047002001E0A4
:100EF00001C1121F002AFBD170470000FFB58DB061
:100F00000F460546002606E025280AD0109A0F99BC
:100F100090476D1C761C28780028F5D1304611B01A
:100F2000F0BD00240121674A009400E004436D1CD9
:100F30002B780846203B98401042F7D128782E287D
:100F400015D10420044368786D1C2A280AD101CFEA
:100F50006D1C00900BE000990A2251433039401873
:100F60006D1C00902878014630390929F3D928787A
:100F7000692843D006DC0028D0D063280BD0642831
:100F800004D13BE073280FD075284CD0109A0F99EC
:100F90009047761C94E038786946087200204872C1
:100FA00002A80190012003E0386801900020C043AE
:100FB0003F1D61070CD5002400E0641C00998C42A1
:100FC0000FDA8442F9DB0199095D0029F5D108E0C7
:100FD000002400E0641C8442FCDB0199095D0029C7
:100FE000F8D1361907E0019801990078491C019160
:100FF000109A0F999047641EF5D261E00A20019083
:1010000001CF002802DA40422D2102E0210504D55B
:101010002B216A461172012103E0E10701D0202152
:10102000F7E70C9104E00A20019001CF00210C9118
:101030000BA90B9108E00199FFF75CF80A460B99A0
:101040003032491E0B910A700028F4D10B9803A985
:10105000081A20300190600701D5009801E00120B6
:1010600000900199884203DD01460198081A00E0CA
:1010700000200024009006E002A8109A005D0F995D
:101080009047641C761C0C988442F5DB04E0109AAF
:1010900030200F999047761C0099481E0090002937
:1010A000F5DC08E00B980B990078491C0B91109A1D
:1010B0000F999047761C0199481E01900029F1DC98
:1010C0006D1C28E709280100F8B505460F460026E3
:1010D000E9B20848FFF76AFE00BF80210548FFF724
:1010E000CBFD0446761C002C02D103488642F4D185
:1010F0002846F8BD00380140FFFF00000020FFF740
:1011000083F90120FFF780F90220FFF77DF9032022
:10111000FFF77AF901210420FFF7B0F9012105203A
:10112000FFF7ACF9E1204002FFF74EFE002128480E
:10113000FFF796FD01212748FFF73CFE02212448D6
:10114000FFF738FE0121C9022148FFF721FE0121E6
:101150001F48FFF70FFE01211D48FFF781FD4A22BE
:101160001DA121A0FFF7AAFE30E033211948FFF7A7
:101170001DFE00BF40211748FFF77EFD0028F9D073
:1011800020211348FFF778FD00281FD01048FFF7F3
:1011900008FE33281AD10020FFF75EF91A48FEF73F
:1011A000D1FF0120FFF758F91748FEF7CBFF0220C7
:1011B000FFF752F91448FEF7C5FF0320FFF74CF97B
:1011C0001148FEF7BFFF11A0FFF778FECDE7000042
:1011D00000440040003801402E2E5C7372635C6D49
:1011E00061696E2E630000005B25733A25645D091A
:1011F00073797374656D2069732072756E6E696E94
:1012000067210D0A00000000FFFF05005553415201
:10121000547920686173205265636569766564203E
:10122000305833332064617461210A0000040008DF
:101230000010040000000800000008000000080082
:1012400000001000002000010001000240008000AA
:101250000100000000000800000004000000080079
:101260000000080000000800000008000000020064
:101270000020000100010002400080000100020186
:1012800002020202000D0808090607000707070707
:1012900007070500004000000000020000000200F7
:1012A00000020004090A0101C81200080000002021
:1012B0004C000000DC0E0008141300084C00002055
:1012C00004040000EC0E000800000000010203040A
:1012D0000102030406070809000800480008004846
:1012E00000080048000C00480008004800040048BE
:1012F00000080048000800480008004800080048AE
:10130000000000480038014000000048000000488C
:0413100000000000D9
:04000005080000C12E
:00000001FF
