:020000040800F2
:1000000038050020D9000008950500089105000872
:1000100000000000000000000000000000000000E0
:10002000000000000000000000000000150B0008A8
:10003000000000000000000081060008E90C000834
:10004000EB000008EB000008EB000008EB000008E4
:10005000EB000008EB000008EB000008EB000008D4
:10006000EB000008EB000008EB000008EB000008C4
:10007000EB000008EB000008EB000008EB000008B4
:10008000EB000008EB000008EB000008EB000008A4
:10009000EB000008EB000008EB000008EB00000894
:1000A000EB000008EB000008EB000008EB00000884
:1000B000590E0008EB000008EB000008EB000008F8
:1000C0000448854600F02CF8004800474514000815
:1000D000C046C04638050020044880470448004711
:1000E000FEE7FEE7FEE7FEE7FEE7FEE7250D000878
:1000F000C100000830B50B46014600202022012433
:1001000009E00D46D5409D4205D31D469540491B4B
:100110002546954040191546521E002DF1DC30BD94
:10012000064C0125064E05E0E36807CC2B430C3C4A
:1001300098471034B442F7D3FFF7C6FF081B0008F6
:10014000281B000810B5034607E018780C78A04279
:1001500001D0002010BD5B1C491C1046541EA2B2E9
:100160000028F2D10120F5E710B586B004460094CE
:10017000002001900290039005900C2004906946A5
:10018000002000F0E5F806B010BD00000021204975
:100190008279002A35D00A46126803689A430B46D2
:1001A0001A600A46526803689A430B465A600279FD
:1001B00051180A6803681A430A60154A926803686E
:1001C0009A43134B9A601A46D26803689A43104BBD
:1001D000DA604279102A0CD11A46926803681A43F1
:1001E0000B4B9A601A46D26803681A43084BDA60D0
:1001F0000DE00749427951180A6803681A430A60FA
:1002000005E0027951180A6803689A430A6070474A
:10021000000401400246002000BF03E00023135405
:10022000431C98B28842F9DB7047F0B500220023E6
:10023000002400BF5BE0012595402B460D681D4062
:100240002C469C4252D10D79012D02D00D79022D00
:1002500016D1856857000326BE40B54385604D79A9
:100260005600B5408668354385604568012696404E
:10027000B543456045688E799640B6B235434560D2
:10028000056857000326BE40B54305600D7956004A
:10029000B540066835430560C56857000326BE4073
:1002A000B543C560CD795600B540C6683543C560D5
:1002B0000D7A012D04D1056B0E683543056303E00B
:1002C000056B0E68B54305634D79042D0AD1856829
:1002D00057000326BE4035438560456B0E683543A5
:1002E000456303E0456B0E68B5434563521C102A15
:1002F000A1D3F0BDF0B5002300244D07EE0E154646
:10030000B5402B46CD10012D0BD1456A4E07F70E97
:100310000F26BE40B5434562456A1D432C464462E4
:100320000AE0056A4E07F70E0F26BE40B543056288
:10033000056A1D432C460462F0BD02460020136985
:100340000B40002B01D0012000E00020704700008E
:10035000FEB504460D46A100254A5158A200254B82
:100360009A5811430846012100F08CF9A100224A55
:100370005058012100F0A6F9204B1A5D204B195D61
:10038000A300204EF058FFF7B5FF1F4B1A5D1F4B1F
:10039000195DA3001E4EF058FFF7ACFF60001D4929
:1003A000085A009002216846017101214171002123
:1003B00081710121C171A100124A50586946FFF7AD
:1003C00034FF60001449085A0090A100324650588A
:1003D0006946FFF72AFFA100104A5058294600F04D
:1003E0002DFEA1000D4A5058012100F0C9FDFEBDAF
:1003F000F81A0008FC1A0008F41A0008061B000886
:10040000041B0008B4000020071B0008051B00089F
:10041000B8000020001B0008021B0008B0000020EC
:100420003EB50446A1000F4A5058012100F02AF9B8
:1004300060000D49085A00900121684601710021B1
:100440008171C17103214171A100084A5058694668
:10045000FFF7EBFE60000449085AA100034A515817
:1004600088613EBD941A00088C1A000884000020A0
:100470004100034A515A8200024B9A5891617047D9
:100480008C1A0008840000204100034A515A82005F
:10049000024B9A58916270478C1A00088400002021
:1004A0008100064A515849694200054B9A5A514009
:1004B0008200024B9A58516170470000840000206E
:1004C0008C1A000810B504466200044B995AA20029
:1004D000034B9858FFF731FF10BD0000A41A000825
:1004E0009400002030B587B004460D46A100214A93
:1004F0005058012100F0C6F80121084600F0E2F84A
:10050000002168460175C17560001B49085A0490B6
:10051000A1001A4A505804A9FFF787FE012D27D1E0
:10052000174A115D174A105D00F0F6FA600016498F
:10053000085A0290002069460873002C04D0012C50
:1005400002D00820487302E00C206946487301215C
:100550006846817302A8FFF719FE0C48015D6846E2
:100560000171032141710121817101A800F014F88A
:1005700007B030BDB41A0008A41A00089400002087
:10058000E51A0008DE1A0008D01A0008EC1A000864
:1005900000BFFEE77047000000218278002A27D0C4
:1005A000184A03231B02D21803789B109B00D158D2
:1005B00002789207D30EFF229A400B4693431946C6
:1005C00042789207120E03789B07DB0E9A40114384
:1005D0000C4A03231B02D21803789B109B00D150B6
:1005E0000278D306DB0E01229A40064B1A6007E020
:1005F0000278D306DB0E01229A40024B80331A6048
:100600007047000000E100E010B5002819DA1A4A2E
:1006100003071B0F083B9B089B00D2588307DC0E87
:10062000FF23A3409A434B071B0E8407E40EA3400D
:100630001A43114B0407240F083CA408A4001A51C4
:1006400018E00E4A03231B02D21883089B00D258DD
:100650008307DC0EFF23A3409A434B071B0E84073E
:10066000E40EA3401A43054B032424021B198408FB
:10067000A4001A5110BD00001CED00E000E100E0F4
:1006800070470000002905D0054A52690243044B17
:100690005A6104E0024A52698243014B5A61704731
:1006A00000100240002905D0054AD2690243044BDC
:1006B000DA6104E0024AD2698243014BDA61704791
:1006C00000100240002905D0054A92690243044BFC
:1006D0009A6104E0024A92698243014B9A61704731
:1006E00000100240F0B585B0044600250027002622
:1006F00000200390029001900090DC48806A8021E5
:100700000840C709002F54D1D848C03840680C2190
:1007100008400546002D06D0042D07D0082D08D02E
:100720000C2D42D13EE0D248206041E0D04820600C
:100730003EE0CE48C03840680F2189040840064694
:10074000CA48C03840680121090408400390B00C31
:10075000861C0398002803D1C6487043206020E01F
:10076000C248C038C06A0007000F02900298401CBF
:100770000290BE48806AFF21013108400090009835
:10078000002807D1BA49714308460299FFF7B2FC25
:10079000206006E0B649714308460299FFF7AAFCBB
:1007A000206005E0B448206002E0B148206000BF4E
:1007B00027E0012F25D1AD48806A38210840054641
:1007C000102D11D004DC002D07D0082D15D108E024
:1007D000182D0CD0202D10D10CE00120C00320607A
:1007E0000EE0A64820600BE0A348206008E0A44883
:1007F000206005E09E48206002E09F48206000BF26
:1008000000BF9A48C0384068F021084005462D09CD
:100810009C48405D019021680198C1406160934807
:10082000C038406807210902084005462D0A95484E
:10083000405D019061680198C140A1608B48C0385B
:10084000006B10210840102802D08948E06001E0C8
:100850002068E0608548806A0321890608400028F6
:1008600002D1A068206120E08048806A03218906C7
:10087000084001218906884202D17D48206114E0A8
:100880007A48806A0321890608400121C906884206
:1008900002D12068206108E07448806A032189063B
:1008A0000840884201D1A06820617048C038006BC0
:1008B0008007800F002802D1A06860611CE06B48AF
:1008C000C038006B8007800F012802D1206860616A
:1008D00012E06648C038006B8007800F022802D102
:1008E0008003606108E06148C038006B8007800FBA
:1008F000032801D15E4860615C48C038006B032169
:1009000009040840002802D1A068A06123E05748EC
:10091000C038006B03210904084001210904884202
:1009200002D12068A06116E05048C038006B032156
:100930000904084001214904884202D18010A061C5
:1009400009E04A48C038006B032109040840884286
:1009500001D14748A061454840304069032109045E
:100960000840002802D1A068E06123E03F48403001
:10097000406903210904084001210904884202D189
:100980002068E06116E039484030406903210904DD
:10099000084001214904884202D18010E06109E049
:1009A000324840304069032109040840884201D19F
:1009B0002F48E0612D4840304069032189040840F8
:1009C000002802D1A068206223E028484030406916
:1009D00003218904084001218904884202D120684A
:1009E000206216E021484030406903218904084014
:1009F0000121C904884202D10011206209E01B488C
:100A000040304069032189040840884201D11848D8
:100A100020621648C038006A0321090208400028F5
:100A200021D01248C038006A0840FF2101318842B5
:100A300002D1C001606216E00C48C038006A032190
:100A40000902084001214902884202D10B48606234
:100A500009E00648C038006A0321090208408842BC
:100A600001D10948606205B0F0BD0000C01002402D
:100A700000127A0000093D00007E56037E9A0000B5
:100A8000809FD5007400002090D0030010B5022094
:100A9000FFF718FD002807D000BF0220FFF712FD66
:100AA0000028FAD0042010BD0320FFF70BFD00281A
:100AB00007D000BF0320FFF705FD0028FAD0032070
:100AC000F1E70420FFF7FEFC002807D000BF042058
:100AD000FFF7F8FC0028FAD00520E4E70520FFF72F
:100AE000F1FC002807D000BF0520FFF7EBFC002831
:100AF000FAD00220D7E70620FFF7E4FC002807D051
:100B000000BF0620FFF7DEFC0028FAD00120CAE76C
:100B10000020C8E77047000030B500228B071C0F8B
:100B20000F23A3401A468B10002B06D0012B13D0A5
:100B3000022B20D0032B3CD12CE01F4B9B6893430E
:100B40001D4CA36023469B688C07250F0446AC40D0
:100B50002343194CA3602DE0174BDB689343164CDD
:100B6000E3602346DB688C07250F0446AC40234333
:100B7000114CE3601EE0104B1B6993430E4C236144
:100B800023461B698C07250F0446AC4023430A4CBF
:100B900023610FE0084B5B699343074C6361234675
:100BA0005B698C07250F0446AC402343024C63610C
:100BB00000E000BF00BF30BD0000014010B500F0F4
:100BC00001F810BD0CB50020019000902E48806AFD
:100BD0000121090408432C49886200BF2A48806A21
:100BE00001214904084000900198401C01900098A0
:100BF000002803D1254901988842EFD12248806A14
:100C0000012149040840002802D00120009001E0A1
:100C1000002000900098012835D11D48006810215F
:100C200008431B49086008460068C008C000086007
:100C30000846006802210843154908601248C03878
:100C400040681149C03948600846406809150843A2
:100C50000D49C03948600C48806A802108430A4920
:100C600088620846806AC008C00088620846806AB8
:100C7000022108430449886200BF0348806A382182
:100C800008401028F9D10CBDC0100240FFFF000041
:100C90000020024010B5642110480068FFF72AFACE
:100CA0000446601E0E49884201D901200DE0601EF5
:100CB0000C49486107210020C043FFF7A5FC002034
:100CC00008498861072008610020002801D000BF82
:100CD000FEE70021481EFFF797FC10BD60000020D2
:100CE000FFFFFF0000E000E010B50C48006800289E
:100CF00004D00A480068401E084908600848007887
:100D00000A2805DA06480078401C0549087004E006
:100D1000002003490870FFF7C3FB10BD54000020FA
:100D20000000002010B541480068012108433F49F8
:100D30000860084640683E4908403C49486008460B
:100D400000683C49084039490860084600680121AC
:100D500089048843354908600846006B36490840D5
:100D6000324908630846406B400840004863002051
:100D70008860324908612D48C069490508432B49FC
:100D8000C8612F482F49C8602F48C8600846006BCB
:100D9000FF21090288432D49C96AFF22120211402E
:100DA0000843284908630846006B000A00022749E7
:100DB000898DC9B20843234908630846406B000B7C
:100DC00000032249098D0905090D08431D4948639F
:100DD0000846006A000B00031C49898C0905090DAF
:100DE0000843184908620846806A000A0002174949
:100DF000097F0843134988620846C06A000A000256
:100E00001249C9691140090A08430E49C8620846D7
:100E1000406B491408430B4948630C48806B000C35
:100E20000B49C861FFF7CAFE10BD00000010024068
:100E30000CF8FF00FFFFF6FEECFFFCFF80200240F5
:100E4000851900004070004029040000C0F7FF1F12
:100E50000011024000BFFEE710B53E493E4800F0D9
:100E6000A5F8012844D13D48007800282DD13C4800
:100E70000078002813D13B480478601C394A107070
:100E80003948015D344800F052F9364800780228AC
:100E90002ED100222F49304800F0AFF828E0314829
:100EA0000478601C2F4A10703048015D2A4800F019
:100EB0003EF92D4840782B490978884218D1002204
:100EC0002449254800F099F812E026480478601C6F
:100ED000244A10702648015D1F4800F028F9214877
:100EE0000078022804D100221A491B4800F085F836
:100EF0002049194800F05AF801282AD117480078EB
:100F000000280BD1144800F00DF9C1B21A4804783A
:100F1000601C194A1070164801551AE010480078F4
:100F200000280BD10C4800F0FDF8C1B2124804783B
:100F3000601C114A10700C4801550AE0064800F088
:100F4000F1F8C1B20C480478601C0B4A10700B48D1
:100F5000015510BD07010700004400405A00002061
:100F6000590000205C0000204D00002004000020FB
:100F70004F000020050105005B000020EC00002070
:100F8000002904D0026801231A43026003E00268CA
:100F9000520852000260704702460020D3690B409D
:100FA000002B01D0012000E00020704770B5024600
:100FB0000B4600240021002500201E04350ED9B266
:100FC00001268E403146012D02D11668314006E0DF
:100FD000022D02D15668314001E0966831401C0C68
:100FE0000126A6403446D6693440002903D0002C9F
:100FF00001D0012000E0002070BDF8B503460024B8
:10100000002600960025002018460E04340ECEB2AD
:1010100000960127009EB7403D46022C01D1001DDD
:1010200002E0032C00D10830002A03D006682E43CA
:10103000066002E00668AE430660F8BDF0B58DB00C
:1010400004460D46002700200C900026206840082A
:101050004000206066680321090330468843064645
:10106000A8680643666026682A480640E9686868FA
:1010700008432969084306432660A668032109023C
:1010800030468843064668690643A66001A8FFF714
:1010900029FB2148844202D106980C9007E01F48A2
:1010A000844202D107980C9001E003980C902068CC
:1010B0000121C903084000280CD029680C9A50006F
:1010C000FFF718F8074629680C9A5000FFF712F846
:1010D0000E4609E029680C98FFF70CF807462968C6
:1010E0000C98FFF707F80E4628684008B04200D871
:1010F0007F1C20680121C9030840002806D038075A
:10110000460F38460649084030430746B8B2E0600B
:101110000DB0F0BDF3E9FFFF00380140004400408E
:10112000F0FF00000146486AC005C00D7047CA05BF
:10113000D20D82627047000010B58AB004460121CA
:101140004804FFF79FFA01214804FFF79BFA0121A9
:101150004804FFF7A7FA0221684601720021817254
:10116000032141720121C1720420019001A90920CB
:10117000C006FFF75AF80820019001A90920C0060F
:10118000FFF753F8032202210920C006FFF7B2F847
:10119000032211460920C006FFF7ACF80494002092
:1011A00009900C200890002007900690059004A953
:1011B0000B48FFF743FF1C21684601700021417076
:1011C00001218170FFF7E8F9012206490448FFF781
:1011D00014FF01210248FFF7D3FE0AB010BD000042
:1011E00000440040050105000FB410B503A9044BED
:1011F000044A029800F026F810BC08BC04B0184756
:1012000011140008BC00002030B47446641E257818
:10121000641CAB4204D3635D5B00E31830BC184729
:101220001D46F8E702E008C8121F08C1002AFAD1DB
:1012300070477047002001E001C1121F002AFBD156
:1012400070470000FFB58DB00F460546002606E04A
:1012500025280AD0109A0F9990476D1C761C287883
:101260000028F5D1304611B0F0BD00240121674AB5
:10127000009400E004436D1C2B780846203B984006
:101280001042F7D128782E2815D10420044368781D
:101290006D1C2A280AD101CF6D1C00900BE000992B
:1012A0000A225143303940186D1C009028780146BD
:1012B00030390929F3D92878692843D006DC002879
:1012C000D0D063280BD0642804D13BE073280FD022
:1012D00075284CD0109A0F999047761C94E0387876
:1012E000694608720020487202A80190012003E0BC
:1012F000386801900020C0433F1D61070CD50024D1
:1013000000E0641C00998C420FDA8442F9DB0199F9
:10131000095D0029F5D108E0002400E0641C844246
:10132000FCDB0199095D0029F8D1361907E0019825
:1013300001990078491C0191109A0F999047641EF9
:10134000F5D261E00A20019001CF002802DA404284
:101350002D2102E0210504D52B216A4611720121BD
:1013600003E0E10701D02021F7E70C9104E00A2017
:10137000019001CF00210C910BA90B9108E001997C
:10138000FEF7B8FE0A460B993032491E0B910A70DF
:101390000028F4D10B9803A9081A203001906007A7
:1013A00001D5009801E0012000900199884203DDF9
:1013B00001460198081A00E000200024009006E091
:1013C00002A8109A005D0F999047641C761C0C9837
:1013D0008442F5DB04E0109A30200F999047761C88
:1013E0000099481E00900029F5DC08E00B980B9945
:1013F0000078491C0B91109A0F999047761C01991F
:10140000481E01900029F1DC6D1C28E70928010025
:10141000F8B505460F460026E9B20848FFF787FEF3
:1014200000BF80210548FFF7B7FD0446761C002C5D
:1014300002D103488642F4D12846F8BD0038014065
:10144000FFFF00000020FEF7EBFF0120FEF7E8FFA2
:101450000220FEF7E5FF0320FEF7E2FF0021022055
:10146000FFF740F800210320FFF73CF8002104209B
:10147000FFF738F800210520FFF734F80021062097
:10148000FFF730F8FFF706FCE1204002FEF76CFEA4
:10149000E1204002FFF750FE5922EAA1EDA0FFF73C
:1014A000A3FECDE10020F3490870F3490870F34929
:1014B00008700120F24908700221F248FEF7AAFEE6
:1014C0000221F148FEF7A6FE4821F048FEF7A2FEF1
:1014D000FFF7DCFAEE49087003E0FFF7D7FAEC49B2
:1014E0000870EB480078002803D1E648007800280F
:1014F000F3D0E748007800287ED0E2480078002842
:101500007AD1DF490870E3A0FFF76EFEE04800786B
:101510000300FFF779FE0631281F0D041631E5A000
:10152000FFF762FE5520D74908700120487024E07B
:10153000E5A0FFF759FEAA20D2490870052048709F
:101540001BE0E6A0FFF750FE3320CE4908701420C0
:10155000487012E0E6A0FFF747FECC20C9490870AA
:101560001E20487009E0E7A0FFF73EFEFF20C549B6
:1015700008704820487000E000BF00BF0122E64923
:10158000E648FFF73AFD6420E549086000BFB94826
:101590000078022803DAE24800680028F7D1E04822
:1015A0000068002801D1FFF755FC6420DC49086081
:1015B00000BF4021D948FFF7EFFC002803D1D848ED
:1015C00000680028F5D1D6480068002801D1FFF74F
:1015D00041FCD4A0FFF708FE6420D149086000BF99
:1015E000A5480078022803DACD4800680028F7D122
:1015F000CB480068002800E040E001D1FFF72AFC5A
:10160000D0A0FFF7F1FD01209C4908700020994906
:101610000870994908700122BF49C048FFF7EDFCE6
:101620006420BF49086000BF964840789149097816
:10163000884203DDBA4800680028F5D1B848006840
:10164000002801D1FFF706FC6420B549086000BFFF
:101650004021B248FFF7A0FC002803D1B048006841
:101660000028F5D1AE480068002801D1FFF7F2FB51
:10167000BBA0FFF7B9FD00208249087081480078BF
:1016800000286ED06420A649086000BF7A48007820
:10169000022803DAA24800680028F7D1A0480068B1
:1016A000002801D1FFF7D6FB012075490870B4A0CE
:1016B000FFF79AFD012298499848FFF79EFC6420A5
:1016C0009749086000BF6B480078022803DA944805
:1016D00000680028F7D192480068002801D1FFF780
:1016E000B9FB64208E49086000BF40218B48FFF79A
:1016F00053FC002803D18A4800680028F5D18848A7
:101700000068002801D1FFF7A5FBA4A0FFF76CFD3E
:1017100001205A490870002056490870564908703F
:1017200064207F49086000BF5648407852490978D4
:10173000884203DD7A4800680028F5D178480068BF
:10174000002801D1FFF786FB9BA0FFF74DFD4D4818
:101750004078142833D005DC012808D005286AD148
:1017600019E06DE01E283ED0482864D14FE00122E8
:1017700046499848FEF7E6FC00280BD096A0FFF7F4
:1017800033FD0120FEF780FE0220FEF77DFE0320E0
:10179000FEF76EFE50E005223C498E48FEF7D2FC73
:1017A00000280BD095A0FFF71FFD0320FEF76CFE6D
:1017B0000120FEF75DFE0220FEF75AFE3CE01422F7
:1017C00032498448FEF7BEFC00280BD094A0FFF7F6
:1017D0000BFD0120FEF758FE0220FEF749FE032014
:1017E000FEF746FE28E01E2228497A48FEF7AAFCAA
:1017F00000280BD093A0FFF7F7FC0220FEF744FE71
:101800000120FEF735FE0320FEF732FE14E04822E9
:101810001E497048FEF796FC00280BD092A0FFF7F7
:10182000E3FC0120FEF730FE0220FEF72DFE032030
:10183000FEF72AFE00E000BF00BF0020114908703B
:1018400030E600002E2E5C7372635C6D61696E2E53
:10185000630000005B25733A25645D097379737436
:10186000656D2069732072756E6E696E67210A0D51
:101870000A0000005C0000205B00002059000020EE
:101880005A0000204D0000204F000020EC000020F6
:101890005800002073797374656D20696E204D6F58
:1018A0006465205472616E736D6974746572210A87
:1018B000000000004A4F595F524947485420507277
:1018C0006573736564210A004A4F595F4C4546545D
:1018D0002050726573736564210A00004A4F595F96
:1018E00055502050726573736564210A0000000032
:1018F0004A4F595F444F574E205072657373656469
:10190000210A00004A4F595F53454C2050726573BD
:10191000736564210A0000000701070000440040CD
:10192000540000206B657920436D644275666665DE
:10193000722073656E642073756363657373210A27
:101940000000000041636B2042756666657220727C
:101950006563762073756363657373210A00000005
:101960006B657920446174614275666665722073A7
:10197000656E642073756363657373210A000000EC
:1019800073797374656D20696E204D6F64652052A4
:1019900065636569766572210A00000041636B200A
:1019A0004275666665722073656E64207375636345
:1019B000657373210A0000004461746120427566FA
:1019C00066657220726563762073756363657373F1
:1019D000210A0000040000204A4F595F524947483D
:1019E0005420526563656976656420646174612082
:1019F000636F72726563746C79210A004A4F595F94
:101A00004C4546542052656365697665642064617F
:101A1000746120636F72726563746C79210A0000CF
:101A20004A4F595F55502052656365697665642059
:101A30006461746120636F72726563746C79210AEA
:101A4000000000004A4F595F444F574E20526563D3
:101A50006569766564206461746120636F72726584
:101A600063746C79210A00004A4F595F53454C203A
:101A70005265636569766564206461746120636F93
:101A800072726563746C79210A000000000400081A
:101A9000001004000000080000000800000008001A
:101AA0000000100000200001000100024000800042
:101AB0000100000000000800000004000000080011
:101AC00000000800000008000000080000000200FC
:101AD000002000010001000240008000010002011E
:101AE00002020202000D080809060700070707079F
:101AF000070705000040000000000200000002008F
:101B000000020004090A0101281B0008000000204F
:101B1000C000000024120008E81B0008C0000020DC
:101B200078040000341200080000000055534152B0
:101B30005420496E74657272757074204578616DB9
:101B4000706C653A20436F6D6D756E696361746981
:101B50006F6E206265747765656E2074776F2055AF
:101B600053415254207573696E6720496E746572D3
:101B7000727570740000000000000000000000009A
:101B80000000000000000000007E5603000000007E
:101B9000000000000102030406070809000000001D
:101BA00001020304010203040607080900080048B3
:101BB0000008004800080048000C004800080048E1
:101BC00000040048000800480008004800080048D9
:101BD00000080048000000480038014000000048AC
:081BE0000000004800000000B5
:04000005080000C12E
:00000001FF
