:020000040800F2
:1000000038040020D900000809040008050400088D
:1000100000000000000000000000000000000000E0
:100020000000000000000000000000003105000892
:100030000000000000000000CD040008A906000830
:10004000EB000008EB000008EB000008EB000008E4
:10005000EB00000839010008EB000008EB00000885
:10006000EB000008EB000008EB000008EB000008C4
:10007000EB000008EB000008EB000008EB000008B4
:10008000EB000008EB000008EB000008EB000008A4
:10009000EB000008EB000008EB000008EB00000894
:1000A000EB000008EB000008EB000008EB00000884
:1000B000EB000008EB000008EB000008EB00000874
:1000C000DFF810D000F016F800480047E3070008FA
:1000D000AFF30080380400200448804704480047FC
:1000E000FEE7FEE7FEE7FEE7FEE7FEE7AD060008F7
:1000F000C1000008064C074D06E0E06840F001032F
:1001000094E8070098471034AC42F6D3FFF7DCFFC1
:100110009C080008BC08000829B1064A126802437E
:10012000044B1A6004E0034A12688243014B1A60D0
:10013000704700000458014010B5012000F00EF88F
:1001400028B1012000F0F2F8012000F001F810BD04
:100150000149086070470000140401400146002076
:10016000034A12680A400AB1012000E000207047EB
:1001700014040140002123498279002A3AD00A461A
:10018000126803689A430B461A600A1D12680368D6
:100190009A430B1D1A60027911440A6803681A43D6
:1001A0000A60184A0832126803689A43154B0833EC
:1001B0001A601A1D126803689A43124B0C331A60B6
:1001C0004279102A0ED11A1F126803681A430D4B88
:1001D00008331A601A1D126803681A43094B0C335E
:1001E0001A600DE00749427911440A6803681A430E
:1001F0000A6005E0027911440A6803689A430A60BC
:100200007047000000040140F0B5002200230024E4
:1002100000BF5BE0012505FA02F30D6805EA03045F
:100220009C4252D10D79012D02D00D79022D16D1AB
:10023000856857000326BE40B54385604D7956005A
:10024000B540866835438560466801259540AE43D4
:10025000466046688D799540ADB22E43466005688C
:1002600057000326BE40B54305600D795600B540E2
:10027000066835430560C56857000326BE40B54390
:10028000C560CD795600B540C6683543C5600D7A66
:10029000012D04D1056B0E683543056303E0056B42
:1002A0000E68B54305634D79042D0AD18568570062
:1002B0000326BE4035438560456B0E683543456374
:1002C00003E0456B0E68B5434563521C102AA1D369
:1002D000F0BD00003EB50446114951F8240001214B
:1002E00000F0F6F80F4830F81400009001208DF867
:1002F000040000208DF806008DF8070003208DF81B
:100300000500094951F824006946FFF77DFF0548BB
:1003100030F81400044951F8241088613EBD0000F3
:10032000280800082008000800000020064951F8AD
:1003300020104969054A32F810205140024A52F80B
:1003400020205161704700000000002020080008B4
:1003500030B587B004460D46234951F824000121E9
:1003600000F0B6F80121084600F0D2F800208DF820
:1003700014008DF817001D4830F8140004901C4933
:1003800051F8240004A9FFF73FFF012D29D1194A94
:10039000115D194A105D00F0CDF8184830F81400CE
:1003A000029000208DF80C002CB1012C03D0082005
:1003B0008DF80D0002E00C208DF80D0001208DF865
:1003C0000E0002A8FFF7D6FE0D48005D8DF8040070
:1003D00003208DF8050001208DF8060001A800F02B
:1003E00015F807B030BD00004808000838080008BC
:1003F000100000207908000872080008640800084E
:100400008008000800BFFEE77047000000218278E6
:10041000FAB1144A03789B1052F82310027892071D
:10042000D30EFF229A40914342789207120E03782E
:100430009B07DB0E9A4011430A4A03789B1042F84F
:100440002310027802F01F0301229A40064B1A6023
:1004500007E0027802F01F0301229A40024B80332A
:100460001A60704700E400E000E100E010B50246C9
:100470000020144B186820F0030010431860124B42
:100480001B6843F00403104C2360012906D130BFE0
:1004900023461B6823F00403236011E0022909D1DD
:1004A00040BF20BF20BF084B1B6823F00403064C4D
:1004B000236005E0044B1B6843F00203024C2360F9
:1004C00010BD00000070004010ED00E0704700001B
:1004D00029B1064A52690243044B5A6104E0034AB7
:1004E00052698243014B5A6170470000001002407C
:1004F00029B1064AD2690243044BDA6104E0034A97
:10050000D2698243014BDA6170470000001002405B
:1005100029B1064A92690243044B9A6104E0034AF6
:1005200092698243014B9A617047000000100240BB
:100530007047000010B500228B071C0F0F2303FA31
:1005400004F28B1033B1012B13D0022B20D0032BDC
:100550003CD12CE01F4B9B6893431E4CA360234669
:100560009B688C07240F00FA04F42343194CA36002
:100570002DE0184BDB689343164CE3602346DB68A1
:100580008C07240F00FA04F42343124CE3601EE0AE
:10059000104B1B6993430F4C236123461B698C0747
:1005A000240F00FA04F423430A4C23610FE0094BA3
:1005B0005B699343074C636123465B698C07240F97
:1005C00000FA04F42343034C636100E000BF00BF62
:1005D00010BD00000000014010B500F001F810BD92
:1005E0000CB50020019000902D48006840F4803048
:1005F0002B49E839C1F8E80000BF2948006800F439
:10060000003000900198401C0190009820B94FF6EE
:10061000FF7101988842F0D12148006800F4003051
:1006200010B10120009001E0002000900098012806
:1006300035D11C48006840F010001A49086008468F
:10064000006820F0070008600846006840F00200DB
:1006500008601348E83840681149E839486008469E
:10066000406840F4806048600D48006840F08000B9
:10067000C1F8E8000846D0F8E80020F00700C1F80B
:10068000E8000846D0F8E80040F00200C1F8E800B1
:1006900000BF0348006800F038001028F9D10CBDF5
:1006A000E8100240002002407047000010B53E48AC
:1006B000006840F001003C490860084640683B493A
:1006C00008403949486008460068394908403649B9
:1006D00008600846006820F4802008600846006B27
:1006E00034490840304908630846406B20F0010057
:1006F000486300208860304908602B48C06940F09A
:1007000080502949C86141F685102C49C86440F2DF
:100710002940C8640846006F20F47F4028490988B2
:1007200001F47F410843254908672548017823489B
:10073000006F61F30700214908672148001F018805
:100740001E48406F61F30B001C4948671C4808387D
:1007500001881A48006E61F30B00184908661848B2
:10076000103801781548806E61F3070013498866D8
:100770000846C06E20F0FF00114910390988C1F306
:10078000072108430D49C8660846406F40F40050F1
:1007900048670B480C300068000C0349C1F81C0185
:1007A000FFF71AFF10BD0000001002400CF8FF0018
:1007B000FFFFF6FEECFFFCFF9020024000700040BF
:1007C000ECF7FF1F02E008C8121F08C1002AFAD187
:1007D00070477047002001E001C1121F002AFBD1C1
:1007E000704701218805FFF793FE01210807FFF7F5
:1007F0007FFE0020FFF76EFD0120FFF76BFD01215A
:100800000620FFF7A5FD01210220FFF785FC01214D
:100810000846FFF72BFE02E00020FFF787FDFBE70D
:100820000004000800100400000008000000080098
:10083000000008000000100000200001000100027C
:1008400040008000010000000000080000000400DB
:100850000000080000000800000008000000080078
:1008600000000200002000010001000240008000A2
:100870000100020102020202000D08080906070039
:1008800007070707070705000040000000000200F7
:100890000000020000020004090A0101BC0800086F
:1008A0000000002038000000C4070008F408000819
:1008B0003800002000040000D407000800080048A9
:1008C0000008004800080048000C004800080048E4
:1008D00000040048000800480008004800080048DC
:1008E00000080048000000480038014000000048AF
:0408F00000000048BC
:04000005080000C12E
:00000001FF
