:020000040800F2
:1000000000040020D90000082B0300082703000883
:1000100000000000000000000000000000000000E0
:10002000000000000000000000000000C103000804
:1000300000000000000000009D0300089D0400086F
:10004000EB000008EB000008EB000008EB000008E4
:10005000EB00000819010008EB000008EB000008A5
:10006000EB000008EB000008EB000008EB000008C4
:10007000EB000008EB000008EB000008EB000008B4
:10008000EB000008EB000008EB000008EB000008A4
:10009000EB000008EB000008EB000008EB00000894
:1000A000EB000008EB000008EB000008EB00000884
:1000B000EB000008EB000008EB000008EB00000874
:1000C0000448854600F016F800480047EF05000890
:1000D000C046C0460004002004488047044800474A
:1000E000FEE7FEE7FEE7FEE7FEE7FEE7A104000805
:1000F000C1000008064C0125064E05E0E36807CC68
:100100002B430C3C98471034B442F7D3FFF7DCFF85
:10011000F80500080806000810B5022000F012F8E3
:10012000002807D004210920C00600F0FAF80220B8
:1001300000F002F810BD000001494861704700005E
:100140000004014001460020044A52690A40002A86
:1001500001D0012000E000207047000000040140B1
:10016000002120498279002A35D00A4612680368A6
:100170009A430B461A600A46526803689A430B4634
:100180005A60027951180A6803681A430A60154ACE
:10019000926803689A43134B9A601A46D2680368C0
:1001A0009A43104BDA604279102A0CD11A469268B1
:1001B00003681A430B4B9A601A46D26803681A43C5
:1001C000084BDA600DE00749427951180A68036864
:1001D0001A430A6005E0027951180A6803689A43D5
:1001E0000A6070470004014000B587B0012148044F
:1001F00000F0D6F802200190002168460172817259
:10020000032141720021C1720121017301A909205A
:10021000C00600F021F80420019001216846017217
:1002200001A90920C00600F017F80220049000215F
:1002300068460175082141750121817504A8FFF701
:100240008FFF05216846017601214176817606A857
:1002500000F06CF807B000BDF0B5002200230024C8
:1002600000BF5BE0012595402B460D681D402C46E4
:100270009C4252D10D79012D02D00D79022D16D15B
:10028000856857000326BE40B54385604D7956000A
:10029000B540866835438560456801269640B5437C
:1002A000456045688E799640B6B23543456005682D
:1002B00057000326BE40B54305600D795600B54092
:1002C000066835430560C56857000326BE40B54340
:1002D000C560CD795600B540C6683543C5600D7A16
:1002E000012D04D1056B0E683543056303E0056BF2
:1002F0000E68B54305634D79042D0AD18568570012
:100300000326BE4035438560456B0E683543456323
:1003100003E0456B0E68B5434563521C102AA1D318
:10032000F0BD8161704700BFFEE770470021827811
:10033000002A27D0184A03231B02D21803789B10E7
:100340009B00D15802789207D30EFF229A400B46A9
:100350009343194642789207120E03789B07DB0EEF
:100360009A4011430C4A03231B02D21803789B10B6
:100370009B00D1500278D306DB0E01229A40064B37
:100380001A6007E00278D306DB0E01229A40024B86
:1003900080331A607047000000E100E07047000001
:1003A000002905D0054A52690243044B5A6104E012
:1003B000024A52698243014B5A6170470010024061
:1003C000704710B500F002F810BD00000CB5002019
:1003D000019000902E48806A0121090408432C49AD
:1003E000886200BF2A48806A0121490408400090C1
:1003F0000198401C01900098002803D125490198DC
:100400008842EFD12248806A01214904084000282F
:1004100002D00120009001E0002000900098012807
:1004200035D11D480068102108431B490860084663
:100430000068C008C0000860084600680221084340
:10044000154908601248C03840681149C0394860F1
:1004500008464068091508430D49C03948600C48F2
:10046000806A802108430A4988620846806AC00879
:10047000C00088620846806A0221084304498862F5
:1004800000BF0348806A382108401028F9D10CBD0C
:10049000C0100240FFFF0000002002407047000033
:1004A00010B541480068012108433F4908600846EB
:1004B00040683E4908403C494860084600683C495D
:1004C00008403949086008460068012189048843CA
:1004D000354908600846006B3649084032490863D0
:1004E0000846406B4008400048630020886032495D
:1004F00008612D48C069490508432B49C8612F4848
:100500002F49C8602F48C8600846006BFF210902C8
:1005100088432D49C96AFF22120211400843284925
:1005200008630846006B000A00022749898DC9B29A
:100530000843234908630846406B000B0003224927
:10054000098D0905090D08431D4948630846006ADD
:10055000000B00031C49898C0905090D0843184943
:1005600008620846806A000A00021749097F0843AA
:10057000134988620846C06A000A00021249C96924
:100580001140090A08430E49C8620846406B4914E5
:1005900008430B4948630C48806B000C0B49C86149
:1005A000FFF70FFF10BD0000001002400CF8FF0025
:1005B000FFFFF6FEECFFFCFF8020024085190000E3
:1005C0004070004029040000C0F7FF1F00110240E6
:1005D00002E008C8121F08C1002AFAD1704770470C
:1005E000002001E001C1121F002AFBD17047FFF774
:1005F000FBFD00BFFEE70000080600080000002029
:0806000000040000E005000801
:04000005080000C12E
:00000001FF
