:020000040800F2
:10000000D0040020D90000082903000825030008B7
:1000100000000000000000000000000000000000E0
:100020000000000000000000000000009D07000824
:100030000000000000000000B1030008790800087B
:10004000EB000008EB000008EB000008EB000008E4
:10005000EB000008EB000008EB000008EB000008D4
:10006000EB000008EB000008EB000008EB000008C4
:10007000EB000008EB000008EB000008EB000008B4
:10008000EB000008EB000008EB000008EB000008A4
:10009000EB000008EB000008EB000008EB00000894
:1000A000EB000008EB000008EB000008AD090008B9
:1000B000EB000008EB000008EB000008EB00000874
:1000C0000448854600F02CF800480047490C000819
:1000D000C046C046D004002004488047044800477A
:1000E000FEE7FEE7FEE7FEE7FEE7FEE77D08000825
:1000F000C100000830B50B46014600202022012433
:1001000009E00D46D5409D4205D31D469540491B4B
:100110002546954040191546521E002DF1DC30BD94
:10012000064C0125064E05E0E36807CC2B430C3C4A
:1001300098471034B442F7D3FFF7C6FF2C0D0008E0
:100140004C0D0008F0B500220023002400BF5BE046
:10015000012595402B460D681D402C469C4252D1EE
:100160000D79012D02D00D79022D16D18568570029
:100170000326BE40B54385604D795600B54086687C
:1001800035438560456801269640B543456045681E
:100190008E799640B6B23543456005685700032610
:1001A000BE40B54305600D795600B540066835433D
:1001B0000560C56857000326BE40B543C560CD79CC
:1001C0005600B540C6683543C5600D7A012D04D18F
:1001D000056B0E683543056303E0056B0E68B54398
:1001E00005634D79042D0AD1856857000326BE406A
:1001F00035438560456B0E683543456303E0456BC9
:100200000E68B5434563521C102AA1D3F0BDF0B56A
:10021000002300244D07EE0E1546B5402B46CD10A9
:10022000012D0BD1456A4E07F70E0F26BE40B54390
:100230004562456A1D432C4644620AE0056A4E0742
:10024000F70E0F26BE40B5430562056A1D432C46D6
:100250000462F0BDFEB504460D46A100254A515882
:10026000A200254B9A5811430846012100F0A2F83C
:10027000A100224A5058012100F0ACF8204B1A5D31
:10028000204B195DA300204EF058FFF7C0FF1F4B15
:100290001A5D1F4B195DA3001E4EF058FFF7B7FF04
:1002A00060001D49085A0090022168460171012131
:1002B0004171002181710121C171A100124A505880
:1002C0006946FFF73FFF60001449085A0090A100FB
:1002D000324650586946FFF735FFA100104A505882
:1002E000294600F00DFCA1000D4A5058012100F0F4
:1002F000A9FBFEBD1C0D0008200D0008180D00080C
:100300002A0D0008280D0008A40000202B0D00086D
:10031000290D0008A8000020240D0008260D000863
:10032000A000002000BFFEE7704708B51B2168460B
:100330000170002141700121817000F001F808BDB9
:1003400000218278002A27D0184A03231B02D218E2
:1003500003789B109B00D15802789207D30EFF229E
:100360009A400B469343194642789207120E03783F
:100370009B07DB0E9A4011430C4A03231B02D21841
:1003800003789B109B00D1500278D306DB0E01222C
:100390009A40064B1A6007E00278D306DB0E012272
:1003A0009A40024B80331A607047000000E100E081
:1003B00070470000002905D0054A52690243044BEA
:1003C0005A6104E0024A52698243014B5A61704704
:1003D00000100240002905D0054A92690243044BEF
:1003E0009A6104E0024A92698243014B9A61704724
:1003F00000100240F0B585B0044600250027002615
:1004000000200390029001900090DC48806A8021D7
:100410000840C709002F54D1D848C03840680C2183
:1004200008400546002D06D0042D07D0082D08D021
:100430000C2D42D13EE0D248206041E0D0482060FF
:100440003EE0CE48C03840680F2189040840064687
:10045000CA48C03840680121090408400390B00C24
:10046000861C0398002803D1C6487043206020E012
:10047000C248C038C06A0007000F02900298401CB2
:100480000290BE48806AFF21013108400090009828
:10049000002807D1BA49714308460299FFF72AFE9E
:1004A000206006E0B649714308460299FFF722FE34
:1004B000206005E0B448206002E0B148206000BF41
:1004C00027E0012F25D1AD48806A38210840054634
:1004D000102D11D004DC002D07D0082D15D108E017
:1004E000182D0CD0202D10D10CE00120C00320606D
:1004F0000EE0A64820600BE0A348206008E0A44876
:10050000206005E09E48206002E09F48206000BF18
:1005100000BF9A48C0384068F021084005462D09C0
:100520009C48405D019021680198C14061609348FA
:10053000C038406807210902084005462D0A954841
:10054000405D019061680198C140A1608B48C0384E
:10055000006B10210840102802D08948E06001E0BB
:100560002068E0608548806A0321890608400028E9
:1005700002D1A068206120E08048806A03218906BA
:10058000084001218906884202D17D48206114E09B
:100590007A48806A0321890608400121C9068842F9
:1005A00002D12068206108E07448806A032189062E
:1005B0000840884201D1A06820617048C038006BB3
:1005C0008007800F002802D1A06860611CE06B48A2
:1005D000C038006B8007800F012802D1206860615D
:1005E00012E06648C038006B8007800F022802D1F5
:1005F0008003606108E06148C038006B8007800FAD
:10060000032801D15E4860615C48C038006B03215B
:1006100009040840002802D1A068A06123E05748DF
:10062000C038006B032109040840012109048842F5
:1006300002D12068A06116E05048C038006B032149
:100640000904084001214904884202D18010A061B8
:1006500009E04A48C038006B032109040840884279
:1006600001D14748A0614548403040690321090451
:100670000840002802D1A068E06123E03F484030F4
:10068000406903210904084001210904884202D17C
:100690002068E06116E039484030406903210904D0
:1006A000084001214904884202D18010E06109E03C
:1006B000324840304069032109040840884201D192
:1006C0002F48E0612D4840304069032189040840EB
:1006D000002802D1A068206223E028484030406909
:1006E00003218904084001218904884202D120683D
:1006F000206216E021484030406903218904084007
:100700000121C904884202D10011206209E01B487E
:1007100040304069032189040840884201D11848CB
:1007200020621648C038006A0321090208400028E8
:1007300021D01248C038006A0840FF2101318842A8
:1007400002D1C001606216E00C48C038006A032183
:100750000902084001214902884202D10B48606227
:1007600009E00648C038006A0321090208408842AF
:1007700001D10948606205B0F0BD0000C010024020
:1007800000127A0000093D00007E56037E9A0000A8
:10079000809FD5006400002090D00300704710B502
:1007A00000F002F810BD00000CB500200190009090
:1007B0002E48806A0121090408432C49886200BF41
:1007C0002A48806A01214904084000900198401C91
:1007D00001900098002803D1254901988842EFD163
:1007E0002248806A012149040840002802D00120E3
:1007F000009001E0002000900098012835D11D48AC
:100800000068102108431B49086008460068C008BA
:10081000C0000860084600680221084315490860C6
:100820001248C03840681149C039486008464068DD
:10083000091508430D49C03948600C48806A802179
:1008400008430A4988620846806AC008C000886276
:100850000846806A022108430449886200BF0348B1
:10086000806A382108401028F9D10CBDC010024020
:10087000FFFF0000002002407047000010B5414813
:100880000068012108433F490860084640683E4926
:1008900008403C494860084600683C4908403949DE
:1008A00008600846006801218904884335490860CA
:1008B0000846006B36490840324908630846406BD9
:1008C00040084000486300208860324908612D4894
:1008D000C069490508432B49C8612F482F49C860A2
:1008E0002F48C8600846006BFF21090288432D4944
:1008F000C96AFF22120211400843284908630846CA
:10090000006B000A00022749898DC9B208432349B8
:1009100008630846406B000B00032249098D090556
:10092000090D08431D4948630846006A000B00038F
:100930001C49898C0905090D0843184908620846B5
:10094000806A000A00021749097F08431349886238
:100950000846C06A000A00021249C9691140090A22
:1009600008430E49C8620846406B491408430B49C6
:1009700048630C48806B000C0B49C861FFF70FFF00
:1009800010BD0000001002400CF8FF00FFFFF6FE53
:10099000ECFFFCFF80200240851900004070004001
:1009A00029040000C0F7FF1F0011024010B51C49C8
:1009B0001C4800F05DF8002816D01A4800F014F921
:1009C0004106490E18480488601C174A10801748D1
:1009D00001551046008816490978884204D1002242
:1009E0000F49104800F06BF812490E4800F040F82B
:1009F000002814D010480478601C0F4A10700F486B
:100A0000015D084800F0F5F80B4800780C490978BA
:100A1000884204D100220749024800F050F810BD76
:100A2000050105000038014062000020AC000020F4
:100A30005F00002007010700600000200000002088
:100A40005E000020002904D0026801231A430260DE
:100A500003E002685208520002607047024600201C
:100A6000D3690B40002B01D0012000E0002070472B
:100A700070B502460B4600240021002500201E040C
:100A8000350ED9B201268E403146012D02D11668AD
:100A9000314006E0022D02D15668314001E09668EF
:100AA00031401C0C0126A6403446D669344000294A
:100AB00003D0002C01D0012000E0002070BDF8B56B
:100AC00003460024002600960025002018460E0448
:100AD000340ECEB200960127009EB7403D46022C50
:100AE00001D1001D02E0032C00D10830002A03D000
:100AF00006682E43066002E00668AE430660F8BD55
:100B0000F0B58DB004460D46002700200C9000265D
:100B100020684008400020606668032109033046D1
:100B200088430646A8680643666026682A48064049
:100B3000E968686808432969084306432660A6688F
:100B40000321090230468843064668690643A660C9
:100B500001A8FFF74FFC2148844202D106980C906F
:100B600007E01F48844202D107980C9001E00398E7
:100B70000C9020680121C903084000280CD0296886
:100B80000C9A5000FFF7B6FA074629680C9A5000F5
:100B9000FFF7B0FA0E4609E029680C98FFF7AAFAA9
:100BA000074629680C98FFF7A5FA0E462868400802
:100BB000B04200D87F1C20680121C90308400028EA
:100BC00006D03807460F38460649084030430746E6
:100BD000B8B2E0600DB0F0BDF3E9FFFF00380140AE
:100BE00000440040F0FF00000146486AC005C00D07
:100BF0007047CA05D20D8262704700B587B04B209E
:100C0000C0010190002002900120400303900320C6
:100C100040020490002006900C20059001A90020BD
:100C2000FFF718FB07B000BD02E008C8121F08C19B
:100C3000002AFAD170477047002001E001C1121F5D
:100C4000002AFBD170470000FFF76FFBFFF7D5FFCD
:100C5000012210491048FFF732FF00BF0F4800780B
:100C60000F4909788842F9DB00BF40210A48FFF7A5
:100C7000F5FE0028F9D001220A490748FFF71FFFB7
:100C800000BF09480088094909788842F9DB00BF9C
:100C9000FEE7000007010700003801406000002067
:100CA0005E00002005010500620000205F000020BA
:100CB0000004000800100400000008000000080004
:100CC00000000800000010000020000100010002E8
:100CD0004000800001000000000008000000040047
:100CE00000000800000008000000080000000800E4
:100CF000000002000020000100010002400080000E
:100D00000100020102020202000D080809060700A4
:100D10000707070707070500004000000000020062
:100D20000000020000020004090A01014C0D000845
:100D300000000020AC000000280C0008F80D00089E
:100D4000AC00002024040000380C00080A0D5553A4
:100D50004152542048797065727465726D696E6194
:100D60006C20496E74657272757074732045786179
:100D70006D706C653A2055534152542D4879706519
:100D8000727465726D696E616C20636F6D6D756EE6
:100D900069636174696F6E207573696E6720496E4F
:100DA000746572727570740A0D005D200000000099
:100DB0000000000001020304010203040607080901
:100DC000000800480008004800080048000C0048DF
:100DD00000080048000400480008004800080048D7
:100DE00000080048000800480000004800380140A2
:080DF00000000048000000486B
:04000005080000C12E
:00000001FF
