:020000040800F2
:1000000088040020D9000008ED0C0008E90C000865
:1000100000000000000000000000000000000000E0
:100020000000000000000000000000008D1100082A
:100030000000000000000000610D00080D13000822
:10004000EB000008EB000008EB000008EB000008E4
:10005000EB000008B1090008EB000008B509000832
:10006000EB000008EB000008EB000008EB000008C4
:10007000EB000008EB000008EB000008EB000008B4
:10008000EB000008EB000008EB000008EB000008A4
:10009000EB000008EB000008EB000008EB00000894
:1000A000EB000008EB000008EB000008EB00000884
:1000B000EB000008EB00000819040008EB00000842
:1000C0000448854600F02CF8004800479D170008BA
:1000D000C046C046880400200448804704480047C2
:1000E000FEE7FEE7FEE7FEE7FEE7FEE71113000886
:1000F000C100000830B50B46014600202022012433
:1001000009E00D46D5409D4205D31D469540491B4B
:100110002546954040191546521E002DF1DC30BD94
:10012000064C0125064E05E0E36807CC2B430C3C4A
:1001300098471034B442F7D3FFF7C6FF24190008DC
:100140004419000801225202811A90424AD010DC60
:10015000202833D006DC012824D0042826D0082803
:1001600054D127E040282DD0C11FF93900294DD1A5
:1001700034E03F235B02CA1A994241D009DCFF39BF
:10018000FF390239002931D001229202891A3DD16A
:1001900030E00121C903511A18D001221204891A32
:1001A00034D117E01B491C4A916030E008211A4AFB
:1001B000D1602CE01021184AD16028E00821164AAD
:1001C000116124E01021144A116120E00821124A33
:1001D00051601CE01021104A516018E004210E4AC1
:1001E000516014E004210C4A516010E004210A4AD5
:1001F00051600CE00021084A91610421516006E041
:100200000021054A91610421516000E000BF00BF58
:1002100070470000010101000064004000B587B094
:100220000121480400F09EFD0E220B210920C0068A
:1002300000F079FC0E220C210920C00600F073FCAE
:100240000120C00204900221684601750121C17598
:1002500004A90920C00600F001FC0120000304905D
:10026000022168460175002181750321417504A9A9
:100270000920C00600F0F2FB1E2168460173002130
:1002800041730121817303A800F032FD012148066A
:1002900000F078FD00F044F8684600F05FFA0021B5
:1002A00068468171C1710172417201218172C1720E
:1002B00000218170C1700821017103214171022167
:1002C000018000F0DFF80020114988720120C87217
:1002D000087310480880002048808880C880088102
:1002E00001204873084600F027F80B480B490860C6
:1002F00000204860487208720120887201210420A1
:1003000000F0B0F80121202000F0ACF807B000BDEB
:10031000780000202064000021030000500000202D
:1003200010B50121480600F03DFD002101204006E6
:1003300000F038FD10BD000010B50021837A0122C5
:100340009A401146334A126801231A43314B1A600E
:100350001A46D2698A43DA61027B002A14D11A460E
:10036000D2688A43DA60C288120443881A43837AC7
:10037000DB00284C1B191A648288120403881A4374
:10038000837ADB001B195A64027B012A15D1214AAA
:10039000D2680A431F4BDA600288120443881A436A
:1003A000837ADB001B4C1B191A6482881204C388F1
:1003B0001A43837ADB001B195A64C27A002A05D1DA
:1003C000144A52688A43134B5A6004E0114A526837
:1003D0000A43104B5A600289002A04D10D4A52691F
:1003E0008A430C4B5A610289012A04D1094A526995
:1003F0000A43084B5A61427B012A04D1054AD2695B
:100400000A43044BDA61034A126852085200014B56
:100410001A6010BD0066004010B5002000F0E4F83E
:10042000002808D00420FFF78DFE01200B49088129
:100430000846FFF781FF012000F0D6F800280BD016
:100440002020FFF77FFE0020044908810846FFF7BF
:1004500073FF01200249087010BD000078000020E1
:1004600000000020002905D0054A52690243044BD0
:100470005A6104E0024A52698243014B5A61704753
:100480000064004010B5014600200022544B1B6858
:100490000224A343524C236023461B6801242343B8
:1004A0004F4C236000E0521C4D4B5B68DB07DB0FB9
:1004B000002B02D14B4B9A42F5D1494B5B68DB07CD
:1004C000DB0F002B01D1002089E08B79012B06D1B5
:1004D000434B1B6880242343414C236005E0404B81
:1004E0001B688024A3433E4C2360CB79012B06D1AB
:1004F0003B4B1B6840242343394C236005E0384BB9
:100500001B684024A343364C23600B7A012B06D191
:10051000334B1B6820242343314C236005E0304BD0
:100520001B682024A3432E4C23604B7A012B06D159
:100530002B4B1B6810242343294C236005E0284BD8
:100540001B681024A343264C23608B7A012B06D111
:10055000234B1B6808242343214C236005E0204BD8
:100560001B680824A3431E4C2360CB7A012B06D1C1
:100570001B4B1B6804242343194C236005E0184BD4
:100580001B680424A343164C23608B789B07CC780C
:10059000240623430C79240423434C792405234364
:1005A0000C88641E23430E4CE36123461B685B08E2
:1005B0005B002360002200E0521C094B5B68DB07F4
:1005C000DB0F002B02D0074B9A42F5D1044B5B683E
:1005D000DB07DB0F002B01D0002000E0012010BD65
:1005E00000640040FFFF000001460020002904D104
:1005F000064AD2689007800F07E0012904D1034A18
:1006000012699007800F00E00020704700640040EE
:10061000002848D14F4A126B04231A400A720A7A02
:10062000002A04D14B4A126B520D0A6003E0494A7A
:10063000126BD2084A60474A126B02231A404A7270
:10064000444A526B1207120F8A72424A526B1204CA
:10065000120ECA743F4A926BCA723E4A926B1204DF
:10066000130E0B733B4A926B1202130E4B73394AF3
:10067000926B120E8A73374AD26BCA73354AD26BA9
:100680001204130E0B74334AD26B1202130E4B7406
:10069000304AD26B120E8A742F4AD26820231A4332
:1006A0002D4BDA6055E02B4A4032126804231A4081
:1006B0000A720A7A002A05D1264A40321268520D7F
:1006C0000A6004E0234A40321268D2084A60214A94
:1006D0004032126802231A404A721E4A403252685F
:1006E0001207120F8A721B4A403252681204120E0D
:1006F000CA74184A40329268CA72164A40329268E6
:100700001204130E0B73134A403292681202130E36
:100710004B73104A40329268120E8A730D4A40326F
:10072000D268CA730B4A4032D2681204130E0B749B
:10073000084A4032D2681202130E4B74054A403206
:10074000D268120E8A74044A126920231A43024B9B
:100750001A6170478065004000640040002181718B
:10076000C171017241728172C1728170C1700321C5
:1007700001710221417101210180704710B50146CC
:1007800000203F4A926801239B061A409A4200D1FA
:1007900012E03B4A92680123DB061A409A4201D1DB
:1007A000012009E0364A926801231B071A409A4249
:1007B00001D1022000E00420042860D00201314B66
:1007C000D2181278D207D20F03012E4C1B191A60CF
:1007D0000A7A002A0BD10A8852054B7A1A43030180
:1007E0001B191B681A4303011B191A600DE04A68A4
:1007F000D2000B7A1A434B7A1A430301214C1B197E
:100800001B681A4303011B191A608A7A1207120F18
:100810008A7202011B4BD21852681209120103019D
:10082000184C1B195A6002012346D21852688B7A61
:100830001A4303011B195A608A7B12064B7B1B0467
:100840001A430B7B1B021A43CB7A1A4303011B1971
:100850009A608A7C12064B7C1B041A430B7C1B0299
:100860001A43CB7B1A4303011B19DA6002012346AA
:10087000D218126801231A4303011B191A6010BD14
:100880000064004080650040002000BF00E0401C84
:1008900001498842FBD37047FFFF0F0010B50024C9
:1008A0000DA112A000F05AFE00BF12E0032C04DAE2
:1008B00010490020FFF7ACFE03E00E490120FFF7CE
:1008C000A7FE0C48C27A611C0BA000F047FE601C1A
:1008D000C4B2062CEADB10BD5265636569766564B7
:1008E000206D657373616765000000000D0A2025A7
:1008F00073000000640000200D0A204D65737361D1
:100900006765207265636569766564204E756D253F
:10091000643D202564202020000000007CB50546B1
:1009200000240FA103C9019100900FA112A000F0B3
:1009300015FE00BF11E06846015D062068430818F7
:100940000F49C8720846FFF719FF0D48C27A611CAB
:100950000CA000F003FE601CC4B2062CEBDB7CBDD7
:10096000000102030405000053656E64206D657389
:10097000736167653A0000000D0A202573000000CE
:10098000500000200D0A2053656E64204D6573737E
:10099000616765204E756D2564202020203D20254F
:1009A0006420202020202020202020202000000063
:1009B0007047000010B5012002490870400300F0A4
:1009C00003F810BD01000020014948617047000094
:1009D00000040140002120498279002A35D00A46CE
:1009E000126803689A430B461A600A465268036805
:1009F0009A430B465A60027951180A6803681A43F1
:100A00000A60154A926803689A43134B9A601A4623
:100A1000D26803689A43104BDA604279102A0CD1ED
:100A20001A46926803681A430B4B9A601A46D268BA
:100A300003681A43084BDA600DE007494279511800
:100A40000A6803681A430A6005E0027951180A68C7
:100A500003689A430A60704700040140F0B5002221
:100A60000023002400BF5BE0012595402B460D6864
:100A70001D402C469C4252D10D79012D02D00D799A
:100A8000022D16D1856857000326BE40B543856008
:100A90004D795600B5408668354385604568012626
:100AA0009640B543456045688E799640B6B2354369
:100AB0004560056857000326BE40B54305600D79C3
:100AC0005600B540066835430560C56857000326E3
:100AD000BE40B543C560CD795600B540C6683543C4
:100AE000C5600D7A012D04D1056B0E683543056391
:100AF00003E0056B0E68B54305634D79042D0AD1FB
:100B0000856857000326BE4035438560456B0E68F7
:100B10003543456303E0456B0E68B5434563521C9E
:100B2000102AA1D3F0BDF0B5002300244D07EE0E2E
:100B30001546B5402B46CD10012D0BD1456A4E0709
:100B4000F70E0F26BE40B5434562456A1D432C464D
:100B500044620AE0056A4E07F70E0F26BE40B54311
:100B60000562056A1D432C460462F0BDFEB50446CD
:100B70000D46A100254A5158A200254B9A58114311
:100B80000846012100F0EEF8A100224A5058012148
:100B900000F018F9204B1A5D204B195DA300204E80
:100BA000F058FFF7C0FF1F4B1A5D1F4B195DA300E4
:100BB0001E4EF058FFF7B7FF60001D49085A00901D
:100BC00002216846017101214171002181710121D9
:100BD000C171A100124A50586946FFF73FFF6000FB
:100BE0001449085A0090A100324650586946FFF750
:100BF00035FFA100104A5058294600F037FCA100EB
:100C00000D4A5058012100F01BFCFEBDC41800081D
:100C1000C8180008C0180008D2180008D01800082A
:100C200044000020D3180008D11800084800002014
:100C3000CC180008CE1800084000002030B587B05E
:100C400004460D46A100214A5058012100F08AF8BF
:100C50000121084600F0B6F8002168460175C1750B
:100C600060001B49085A0490A1001A4A505804A970
:100C7000FFF7F4FE012D27D1174A115D174A105DC9
:100C800000F086FA60001649085A02900020694672
:100C90000873002C04D0012C02D00820487302E015
:100CA0000C206946487301216846817302A8FFF74A
:100CB00091FE0C48015D68460171032141710121DB
:100CC000817101A800F014F807B030BD8018000849
:100CD0007018000824000020B1180008AA180008A5
:100CE0009C180008B818000800BFFEE77047000015
:100CF00000218278002A27D0184A03231B02D21829
:100D000003789B109B00D15802789207D30EFF22E4
:100D10009A400B469343194642789207120E037885
:100D20009B07DB0E9A4011430C4A03231B02D21887
:100D300003789B109B00D1500278D306DB0E012272
:100D40009A40064B1A6007E00278D306DB0E0122B8
:100D50009A40024B80331A607047000000E100E0C7
:100D600070470000002905D0054A52690243044B30
:100D70005A6104E0024A52698243014B5A6170474A
:100D800000100240002905D0054AD2690243044BF5
:100D9000DA6104E0024AD2698243014BDA617047AA
:100DA00000100240002905D0054A12690243044B95
:100DB0001A6104E0024A12698243014B1A617047CA
:100DC00000100240002905D0054A92690243044BF5
:100DD0009A6104E0024A92698243014B9A6170472A
:100DE00000100240F0B585B004460025002700261B
:100DF00000200390029001900090DC48806A8021DE
:100E00000840C709002F54D1D848C03840680C2189
:100E100008400546002D06D0042D07D0082D08D027
:100E20000C2D42D13EE0D248206041E0D048206005
:100E30003EE0CE48C03840680F218904084006468D
:100E4000CA48C03840680121090408400390B00C2A
:100E5000861C0398002803D1C6487043206020E018
:100E6000C248C038C06A0007000F02900298401CB8
:100E70000290BE48806AFF2101310840009000982E
:100E8000002807D1BA49714308460299FFF732F9A1
:100E9000206006E0B649714308460299FFF72AF937
:100EA000206005E0B448206002E0B148206000BF47
:100EB00027E0012F25D1AD48806A3821084005463A
:100EC000102D11D004DC002D07D0082D15D108E01D
:100ED000182D0CD0202D10D10CE00120C003206073
:100EE0000EE0A64820600BE0A348206008E0A4487C
:100EF000206005E09E48206002E09F48206000BF1F
:100F000000BF9A48C0384068F021084005462D09C6
:100F10009C48405D019021680198C1406160934800
:100F2000C038406807210902084005462D0A954847
:100F3000405D019061680198C140A1608B48C03854
:100F4000006B10210840102802D08948E06001E0C1
:100F50002068E0608548806A0321890608400028EF
:100F600002D1A068206120E08048806A03218906C0
:100F7000084001218906884202D17D48206114E0A1
:100F80007A48806A0321890608400121C9068842FF
:100F900002D12068206108E07448806A0321890634
:100FA0000840884201D1A06820617048C038006BB9
:100FB0008007800F002802D1A06860611CE06B48A8
:100FC000C038006B8007800F012802D12068606163
:100FD00012E06648C038006B8007800F022802D1FB
:100FE0008003606108E06148C038006B8007800FB3
:100FF000032801D15E4860615C48C038006B032162
:1010000009040840002802D1A068A06123E05748E5
:10101000C038006B032109040840012109048842FB
:1010200002D12068A06116E05048C038006B03214F
:101030000904084001214904884202D18010A061BE
:1010400009E04A48C038006B03210904084088427F
:1010500001D14748A0614548403040690321090457
:101060000840002802D1A068E06123E03F484030FA
:10107000406903210904084001210904884202D182
:101080002068E06116E039484030406903210904D6
:10109000084001214904884202D18010E06109E042
:1010A000324840304069032109040840884201D198
:1010B0002F48E0612D4840304069032189040840F1
:1010C000002802D1A068206223E02848403040690F
:1010D00003218904084001218904884202D1206843
:1010E000206216E02148403040690321890408400D
:1010F0000121C904884202D10011206209E01B4885
:1011000040304069032189040840884201D11848D1
:1011100020621648C038006A0321090208400028EE
:1011200021D01248C038006A0840FF2101318842AE
:1011300002D1C001606216E00C48C038006A032189
:101140000902084001214902884202D10B4860622D
:1011500009E00648C038006A0321090208408842B5
:1011600001D10948606205B0F0BD0000C010024026
:1011700000127A0000093D00007E56037E9A0000AE
:10118000809FD5000300002090D00300704700002E
:1011900030B500228B071C0F0F23A3401A468B107B
:1011A000002B06D0012B13D0022B20D0032B3CD1D7
:1011B0002CE01F4B9B6893431D4CA36023469B6808
:1011C0008C07250F0446AC402343194CA3602DE047
:1011D000174BDB689343164CE3602346DB688C07B0
:1011E000250F0446AC402343114CE3601EE0104B36
:1011F0001B6993430E4C236123461B698C07250F03
:101200000446AC4023430A4C23610FE0084B5B6962
:101210009343074C636123465B698C07250F0446A3
:10122000AC402343024C636100E000BF00BF30BD0F
:101230000000014010B500F001F810BD0CB5002011
:10124000019000902E48806A0121090408432C492E
:10125000886200BF2A48806A012149040840009042
:101260000198401C01900098002803D1254901985D
:101270008842EFD12248806A0121490408400028B1
:1012800002D00120009001E0002000900098012889
:1012900035D11D480068102108431B4908600846E5
:1012A0000068C008C00008600846006802210843C2
:1012B000154908601248C03840681149C039486073
:1012C00008464068091508430D49C03948600C4874
:1012D000806A802108430A4988620846806AC008FB
:1012E000C00088620846806A022108430449886277
:1012F00000BF0348806A382108401028F9D10CBD8E
:10130000C0100240FFFF00000020024070470000B4
:1013100010B541480068012108433F49086008466C
:1013200040683E4908403C494860084600683C49DE
:10133000084039490860084600680121890488434B
:10134000354908600846006B364908403249086351
:101350000846406B400840004863002088603249DE
:1013600008612D48C069490508432B49C8612F48C9
:101370002F49C8602F48C8600846006BFF2109024A
:1013800088432D49C96AFF221202114008432849A7
:1013900008630846006B000A00022749898DC9B21C
:1013A0000843234908630846406B000B00032249A9
:1013B000098D0905090D08431D4948630846006A5F
:1013C000000B00031C49898C0905090D08431849C5
:1013D00008620846806A000A00021749097F08432C
:1013E000134988620846C06A000A00021249C969A6
:1013F0001140090A08430E49C8620846406B491467
:1014000008430B4948630C48806B000C0B49C861CA
:10141000FFF710FF10BD0000001002400CF8FF00A5
:10142000FFFFF6FEECFFFCFF802002408519000064
:101430004070004029040000C0F7FF1F0011024067
:10144000002904D0026801231A43026003E0026805
:10145000520852000260704702460020D3690B40D8
:10146000002B01D0012000E000207047F0B58DB0C6
:1014700004460D46002700200C90002620684008F6
:101480004000206066680321090330468843064611
:10149000A8680643666026682A480640E9686868C6
:1014A00008432969084306432660A6680321090208
:1014B00030468843064668690643A66001A8FFF7E0
:1014C00091FC2148844202D106980C9007E01F4805
:1014D000844202D107980C9001E003980C90206898
:1014E0000121C903084000280CD029680C9A50003B
:1014F000FEF700FE074629680C9A5000FEF7FAFD39
:101500000E4609E029680C98FEF7F4FD07462968A5
:101510000C98FEF7EFFD0E4628684008B04200D850
:101520007F1C20680121C9030840002806D0380725
:10153000460F38460649084030430746B8B2E060D7
:101540000DB0F0BDF3E9FFFF00380140004400405A
:10155000F0FF0000CA05D20D826270470FB410B5CB
:1015600003A9044B044A029800F018F810BC08BC08
:1015700004B01847691700084C00002002E008C8B2
:10158000121F08C1002AFAD170477047002001E0FD
:1015900001C1121F002AFBD170470000FFB58DB0BA
:1015A0000F460546002606E025280AD0109A0F9916
:1015B00090476D1C761C28780028F5D1304611B074
:1015C000F0BD00240121674A009400E004436D1C33
:1015D0002B780846203B98401042F7D128782E28D7
:1015E00015D10420044368786D1C2A280AD101CF44
:1015F0006D1C00900BE000990A22514330394018CD
:101600006D1C00902878014630390929F3D92878D3
:10161000692843D006DC0028D0D063280BD064288A
:1016200004D13BE073280FD075284CD0109A0F9945
:101630009047761C94E0387869460872002048721A
:1016400002A80190012003E0386801900020C04307
:101650003F1D61070CD5002400E0641C00998C42FA
:101660000FDA8442F9DB0199095D0029F5D108E020
:10167000002400E0641C8442FCDB0199095D002920
:10168000F8D1361907E0019801990078491C0191B9
:10169000109A0F999047641EF5D261E00A200190DC
:1016A00001CF002802DA40422D2102E0210504D5B5
:1016B0002B216A461172012103E0E10701D02021AC
:1016C000F7E70C9104E00A20019001CF00210C9172
:1016D0000BA90B9108E00199FEF70CFD0A460B9946
:1016E0003032491E0B910A700028F4D10B9803A9DF
:1016F000081A20300190600701D5009801E0012010
:1017000000900199884203DD01460198081A00E023
:1017100000200024009006E002A8109A005D0F99B6
:101720009047641C761C0C988442F5DB04E0109A08
:1017300030200F999047761C0099481E0090002990
:10174000F5DC08E00B980B990078491C0B91109A76
:101750000F999047761C0199481E01900029F1DCF1
:101760006D1C28E709280100F8B505460F4600263C
:10177000E9B20848FFF7EEFE00BF80210548FFF7F9
:101780006BFE0446761C002C02D103488642F4D13D
:101790002846F8BD00380140FFFF000086B0E12078
:1017A00040020090002001900290039005900C20D0
:1017B000049069460020FFF7D9F901210020FFF7C6
:1017C0003DFA1848FFF7CAFE17A11EA0FFF7C6FE94
:1017D000FEF724FD00201D49087021E01B48007819
:1017E000002814D01A480078292802D1002018496E
:1017F000087017480078FFF791F815480078401CEA
:1018000013490870FFF740F800201049087011488C
:101810000078002804D0FFF741F800200D49087037
:10182000DCE70000D418000850726573732054413F
:101830004D5020746F2053656E64206D6573736125
:10184000676500000D0A20257300000001000020DC
:101850000200002000000020000400080010040026
:101860000000080000000800000008000000100050
:101870000020000100010002400080000100000083
:10188000000008000000040000000800000008003C
:101890000000080000000800000002000020000115
:1018A0000001000240008000010002010202020269
:1018B000000D0808090607000707070707070500C6
:1018C00000400000000002000000020000020004CE
:1018D000090A01010A0D20202A2A2A2A2A2A2A2A4C
:1018E0002A2A2A2A2A2A2A2A2A2A2A2A2A2A2A2062
:1018F00043414E204649464F457874656E73696F83
:101900006E204578616D706C65202A2A2A2A2A2A61
:101910002A2A2A2A2A2A2A2A2A2A2A2A2A2A2A2A27
:101920002A0A0D00441900080000002050000000A1
:101930007C150008941900085000002038040000AD
:101940008C150008000000000000000102030401E3
:1019500002030406070809000008004800080048C0
:1019600000080048000C0048000800480004004837
:101970000008004800080048000800480008004827
:101980000000004800380140000000480000004806
:041990000000000053
:04000005080000C12E
:00000001FF
