:020000040800F2
:1000000078040020D900000809060008B904000897
:1000100000000000000000000000000000000000E0
:100020000000000000000000000000007D0A000841
:1000300000000000000000000B060008590B00083B
:10004000EB000008EB000008EB000008EB000008E4
:10005000EB000008EB000008EB000008EB000008D4
:10006000EB000008EB000008EB000008EB000008C4
:10007000EB000008EB000008EB000008EB000008B4
:10008000EB000008EB000008EB000008EB000008A4
:10009000EB000008EB000008EB000008EB00000894
:1000A000EB000008EB000008EB000008EB00000884
:1000B000EB000008EB000008EB000008EB00000874
:1000C0000448854600F092F8004800479112000865
:1000D000C046C046780400200448804704480047D2
:1000E000FEE7FEE7FEE7FEE7FEE7FEE75D0B000842
:1000F000C100000830B50B46014600202022012433
:1001000009E00D46D5409D4205D31D469540491B4B
:100110002546954040191546521E002DF1DC30BD94
:1001200070B500242546002801DA01244042002948
:1001300001DA01254942FFF7DDFFAC4200D0404221
:10014000002C00D0494270BDF0B51FB40646002017
:1001500082B005464024019100901BE0019922469F
:100160000F46304600F030F8049A059B801A9941FA
:1001700010D310461946224600F016F8361A8F4161
:100180000197224601200021009F00F00DF8381849
:100190004D4100902046641E0028DFDC019B009842
:1001A0002946324607B0F0BD10B5202A04DB0146CF
:1001B000203A9140002010BD914020239C1A034614
:1001C000E3401943904010BD10B5202A04DB0846D7
:1001D000203AD040002110BD0B46D340D04020240F
:1001E000A21A91400843194610BD0000064C012593
:1001F000064E05E0E36807CC2B430C3C98471034CF
:10020000B442F7D3FFF760FFDC1C0008FC1C0008B9
:1002100010B5034607E018780C78A04201D0002002
:1002200010BD5B1C491C1046541EA2B20028F2D11E
:100230000120F5E710B586B0044600940020019037
:100240000290039005900C2004906946002000F075
:100250008BF806B010BDF0B500220023002400BFCB
:100260005BE0012595402B460D681D402C469C42C5
:1002700052D10D79012D02D00D79022D16D185684C
:1002800057000326BE40B54385604D795600B54002
:10029000866835438560456801269640B5434560CC
:1002A00045688E799640B6B235434560056857007B
:1002B0000326BE40B54305600D795600B54006687B
:1002C00035430560C56857000326BE40B543C56089
:1002D000CD795600B540C6683543C5600D7A012D0D
:1002E00004D1056B0E683543056303E0056B0E68AA
:1002F000B54305634D79042D0AD18568570003265F
:10030000BE4035438560456B0E683543456303E069
:10031000456B0E68B5434563521C102AA1D3F0BD4E
:10032000F0B5002300244D07EE0E1546B5402B46D0
:10033000CD10012D0BD1456A4E07F70E0F26BE409A
:10034000B5434562456A1D432C4644620AE0056A8E
:100350004E07F70E0F26BE40B5430562056A1D43E2
:100360002C460462F0BD0000FEB504460D46A10017
:10037000254A5158A200254B9A581143084601219D
:1003800000F044F9A100224A5058012100F06EF912
:10039000204B1A5D204B195DA300204EF058FFF74B
:1003A000BFFF1F4B1A5D1F4B195DA3001E4EF05877
:1003B000FFF7B6FF60001D49085A00900221684609
:1003C000017101214171002181710121C171A100DF
:1003D000124A50586946FFF73EFF60001449085A18
:1003E0000090A100324650586946FFF734FFA10043
:1003F000104A5058294600F05FFCA1000D4A5058A1
:10040000012100F043FCFEBDCC1C0008D01C0008FC
:10041000C81C0008DA1C0008D81C00085000002086
:10042000DB1C0008D91C000854000020D41C000864
:10043000D61C00084C0000203EB50446A1000F4A1F
:100440005058012100F0E2F860000D49085A009070
:1004500001216846017100218171C171032141713F
:10046000A100084A50586946FFF7F5FE60000449AC
:10047000085AA100034A515888613EBD681C000813
:10048000601C0008200000204100034A515A8200ED
:10049000024B9A5891617047601C000820000020B0
:1004A0004100034A515A8200024B9A5891627047A8
:1004B000601C00082000002000BFFEE7C1617047FB
:1004C000002904D0026801231A43026003E0026895
:1004D000520852000260704710B504460B4884422F
:1004E00009D10121480500F0B1F8002101204005A3
:1004F00000F0ACF808E00121880500F0A7F8002121
:100500000120800500F0A2F810BD0000005400405A
:10051000002905D0426801235B031A43426004E0CE
:10052000426801235B039A4342607047002905D06B
:10053000426801239B031A43426004E0426801239E
:100540009B039A434260704710B502460023002087
:1005500093691C460C402346002B01D0012000E08B
:10056000002010BD10B50A46002103685B085B003F
:1005700003600168144B19409468240253682343B4
:10058000194301600F2424061368A3430361036821
:1005900001242343036000218160C16014699369D1
:1005A0002343194683680124E4030C4323438360F7
:1005B000D16803680B4303604168044B19405369D9
:1005C0001943416010BD0000FFE0CF00FF7FFF072F
:1005D0000146486AC0B2704781627047F0B50C4668
:1005E00000214168074D2940A505AD0D1604FF27E0
:1005F0003F043E4035431D43059E3543294341603A
:10060000F0BD0000009800FC70477047002905D03D
:10061000054A52690243044B5A6104E0024A526996
:100620008243014B5A61704700100240002905D0F7
:10063000054AD2690243044BDA6104E0024AD269F6
:100640008243014BDA61704700100240002905D057
:10065000054A12690243044B1A6104E0024A126916
:100660008243014B1A61704700100240002905D0F7
:10067000054A92690243044B9A6104E0024A926976
:100680008243014B9A61704700100240F0B585B07B
:1006900004460025002700260020039002900190C8
:1006A0000090DC48806A80210840C709002F54D19F
:1006B000D848C03840680C2108400546002D06D0B7
:1006C000042D07D0082D08D00C2D42D13EE0D24891
:1006D000206041E0D04820603EE0CE48C03840680D
:1006E0000F21890408400646CA48C03840680121E5
:1006F000090408400390B00C861C0398002803D11D
:10070000C6487043206020E0C248C038C06A000775
:10071000000F02900298401C0290BE48806AFF21A0
:100720000131084000900098002807D1BA49714370
:1007300008460299FFF7DEFC206006E0B6497143E7
:1007400008460299FFF7D6FC206005E0B448206017
:1007500002E0B148206000BF27E0012F25D1AD485D
:10076000806A382108400546102D11D004DC002D88
:1007700007D0082D15D108E0182D0CD0202D10D150
:100780000CE00120C00320600EE0A64820600BE0D2
:10079000A348206008E0A448206005E09E4820604F
:1007A00002E09F48206000BF00BF9A48C038406800
:1007B000F021084005462D099C48405D01902168C4
:1007C0000198C14061609348C03840680721090220
:1007D000084005462D0A9548405D019061680198E2
:1007E000C140A1608B48C038006B10210840102820
:1007F00002D08948E06001E02068E0608548806AB6
:10080000032189060840002802D1A068206120E069
:100810008048806A032189060840012189068842B0
:1008200002D17D48206114E07A48806A032189065C
:1008300008400121C906884202D12068206108E0F1
:100840007448806A032189060840884201D1A06863
:1008500020617048C038006B8007800F002802D1EB
:10086000A06860611CE06B48C038006B8007800F97
:10087000012802D12068606112E06648C038006B30
:100880008007800F022802D18003606108E0614880
:10089000C038006B8007800F032801D15E4860617B
:1008A0005C48C038006B032109040840002802D1CD
:1008B000A068A06123E05748C038006B03210904F9
:1008C000084001210904884202D12068A06116E095
:1008D0005048C038006B0321090408400121490435
:1008E000884202D18010A06109E04A48C038006BFC
:1008F000032109040840884201D14748A0614548C6
:1009000040304069032109040840002802D1A06852
:10091000E06123E03F48403040690321090408407A
:1009200001210904884202D12068E06116E03948BB
:1009300040304069032109040840012149048842EC
:1009400002D18010E06109E0324840304069032163
:1009500009040840884201D12F48E0612D48403009
:100960004069032189040840002802D1A068206260
:1009700023E02848403040690321890408400121D0
:100980008904884202D12068206216E02148403064
:1009900040690321890408400121C904884202D129
:1009A0000011206209E01B4840304069032189049E
:1009B0000840884201D1184820621648C038006AB1
:1009C000032109020840002821D01248C038006ADB
:1009D0000840FF210131884202D1C001606216E067
:1009E0000C48C038006A032109020840012149026D
:1009F000884202D10B48606209E00648C038006AAC
:100A0000032109020840884201D10948606205B00B
:100A1000F0BD0000C010024000127A0000093D0045
:100A2000007E56037E9A0000809FD50010000020B3
:100A300090D0030010B5002100220F4B9B6A0124C7
:100A4000E403A3430C4CA3620209002A0CD10A4B15
:100A5000C03B196B10240B46A343194603011943ED
:100A6000054BC03B196306E0034B9B6A0124E4037A
:100A70002343014CA36210BDC0100240704710B563
:100A800000F002F810BD00000CB5002001900090AD
:100A90002E48806A0121090408432C49886200BF5E
:100AA0002A48806A01214904084000900198401CAE
:100AB00001900098002803D1254901988842EFD180
:100AC0002248806A012149040840002802D0012000
:100AD000009001E0002000900098012835D11D48C9
:100AE0000068102108431B49086008460068C008D8
:100AF000C0000860084600680221084315490860E4
:100B00001248C03840681149C039486008464068FA
:100B1000091508430D49C03948600C48806A802196
:100B200008430A4988620846806AC008C000886293
:100B30000846806A022108430449886200BF0348CE
:100B4000806A382108401028F9D10CBDC01002403D
:100B5000FFFF0000002002407047000010B5414830
:100B60000068012108433F490860084640683E4943
:100B700008403C494860084600683C4908403949FB
:100B800008600846006801218904884335490860E7
:100B90000846006B36490840324908630846406BF6
:100BA00040084000486300208860324908612D48B1
:100BB000C069490508432B49C8612F482F49C860BF
:100BC0002F48C8600846006BFF21090288432D4961
:100BD000C96AFF22120211400843284908630846E7
:100BE000006B000A00022749898DC9B208432349D6
:100BF00008630846406B000B00032249098D090574
:100C0000090D08431D4948630846006A000B0003AC
:100C10001C49898C0905090D0843184908620846D2
:100C2000806A000A00021749097F08431349886255
:100C30000846C06A000A00021249C9691140090A3F
:100C400008430E49C8620846406B491408430B49E3
:100C500048630C48806B000C0B49C861FFF70FFF1D
:100C600010BD0000001002400CF8FF00FFFFF6FE70
:100C7000ECFFFCFF8020024085190000407000401E
:100C800029040000C0F7FF1F00110240002904D012
:100C9000026801231A43026003E00268520852000E
:100CA0000260704702460020D3690B40002B01D040
:100CB000012000E000207047F0B58DB004460D46DD
:100CC000002700200C90002620684008400020608B
:100CD000666803210903304688430646A868064330
:100CE000666026682A480640E968686808432969FA
:100CF000084306432660A66803210902304688435C
:100D0000064668690643A66001A8FFF7BFFC2148B4
:100D1000844202D106980C9007E01F48844202D119
:100D200007980C9001E003980C9020680121C903FA
:100D3000084000280CD029680C9A5000FFF7DAF917
:100D4000074629680C9A5000FFF7D4F90E4609E0CF
:100D500029680C98FFF7CEF9074629680C98FFF729
:100D6000C9F90E4628684008B04200D87F1C2068A8
:100D70000121C9030840002806D03807460F38462D
:100D80000649084030430746B8B2E0600DB0F0BDF8
:100D9000F3E9FFFF0038014000440040F0FF00008D
:100DA000CA05D20D826270470FB410B503A9044B77
:100DB000044A029800F018F810BC08BC04B01847A8
:100DC0005D1200086400002002E008C8121F08C17C
:100DD000002AFAD170477047002001E001C1121FBC
:100DE000002AFBD170470000FFB591B00F460546C1
:100DF000002606E025280AD0149A139990476D1C06
:100E0000761C28780028F5D1304615B0F0BD0024B6
:100E100000940121F34A029400E004436D1C2B78F6
:100E20000846203B98401042F7D128782A280ED057
:100E30000222287801463039092915D800990A2359
:100E400059433039401814436D1C0090F1E701CF2D
:100E50000090002805DA0120400304430098404236
:100E60000090022004436D1C28782E2815D1042000
:100E7000044368786D1C2A280AD101CF6D1C0290AA
:100E80000BE002990A225143303940186D1C029040
:100E90002878014630390929F3D928786C2810D0F0
:100EA00006DC4C281AD068280ED06A2817D104E036
:100EB000742813D07A2812D110E001204005044391
:100EC0000CE00121090501E0032109050C436978C3
:100ED000814203D10120000524186D1C6D1C287867
:100EE0006E281ED00CDC632831D004DC00288BD0A7
:100EF000582811D1B2E064287BD069280CD178E061
:100F000073282DD004DC6F2870D0702804D1A7E09E
:100F100075286CD078286BD0149A13999047761C5A
:100F200062E06002400F022807D003280AD004289C
:100F300038680AD006603F1D56E03868F117066031
:100F40004160F8E738680680F5E70670F3E738781F
:100F5000694608740020487404A80390012003E047
:100F6000386803900020C0433F1D61070FD5002162
:100F700001E00199491C029A0191914213DA8142E0
:100F8000F7DB019A0399895C0029F2D10BE000217B
:100F900001E00199491C01918142FADB019A039910
:100FA000895C0029F5D101990098139A401A0090A4
:100FB0002146149B00F03CF901998019461807E07E
:100FC000039803990078491C0391149A1399904748
:100FD0000198401E0190401CF2D12146149B139AA7
:100FE000009800F015F986196D1C0AE741E033E01E
:100FF00034E00A200021049005916002410F02298B
:1010000005D001CFC2179446032905D007E0FF1D84
:10101000FF08FF0003CF06E000B2C2179446042980
:1010200002D140B2C1178C4600226146944506DACF
:101030000A460021404291418C462D2102E02105C3
:1010400004D52B216A461176012103E0E10701D086
:101050002021F7E7019155E00A200BE0102009E07C
:1010600010200490002104200443082005910290E0
:1010700003E008200021059104906002410F02293D
:1010800005D001CF00229446032906D006E0FF1DBB
:10109000FF08FF0003CF8C4603E080B2042900D193
:1010A000C0B20021019121072CD529780391702924
:1010B00006D0049A1021059B4A401A4305D00EE041
:1010C00040216A461176012108E06146014306D0BD
:1010D00030216A4611760399517602210191049AD2
:1010E0000821059B4A401A430CD16146014301D1B6
:1010F000610707D530216A461176012101910299D5
:10110000491E02912978582904D037A103910FA9CB
:101110000F910DE039A1F9E76146059B049AFFF7AD
:1011200013F8039B8C469B5C0F9A521E0F92137010
:1011300061460143F0D10F9807A9081A20300390A7
:10114000600704D5012000048443029801E00120D7
:1011500002900399884201DD401A00E00020411806
:101160000290019809180098401A0090E00306D4F4
:101170002146149B139A009800F05AF88619002013
:10118000049008E006A9085C149A13999047049803
:10119000401C761C049001998842F3DBE0030CD5D7
:1011A0002146149B139A009800F042F8861904E037
:1011B000149A302013999047761C0299481E029089
:1011C0000029F5DC08E00F980F990078491C0F9171
:1011D000149A13999047761C0399481E039000298E
:1011E000F1DCFAE609280100303132333435363784
:1011F0003839616263646566000000003031323363
:101200003435363738394142434445460000000002
:10121000F8B5044600251E461746880404D405E0A8
:1012200039462020B0476D1C641EF9D52846F8BD0C
:10123000FFB50446002581B01E46C80301D53027FE
:1012400000E02027880404D505E038460399B0471C
:101250006D1C641EF9D5284605B0F0BDF8B50546ED
:101260000F460026E9B20848FFF79AFD00BF80212B
:101270000548FFF717FD0446761C002C02D10348F1
:101280008642F4D12846F8BD00380140FFFF000037
:101290000020FFF7D1F80120FFF7CEF8E12040024F
:1012A000FEF7C8FF00F04AF93E223FA142A0FFF737
:1012B0007BFD4CA0FFF778FD052200214F4800F090
:1012C00059FB4FA0FFF770FD53A0FFF76DFD052000
:1012D000574908800A460021564800F09FF900242B
:1012E00006E05448015D54A0FFF75EFD601CC4B2E7
:1012F000052CF6DB052241494E48FEF789FF002800
:1013000009D04FA0FFF750FD0020FFF7C9F80120DA
:10131000FFF7C6F808E054A0FFF746FD0020FFF7EE
:10132000B3F80120FFF7B0F859A0FFF73DFD0922FF
:1013300001215E4800F01EFB5DA0FFF735FD63A0B4
:10134000FFF732FD09203A4908800A460121394851
:1013500000F064F9002406E03648015D36A0FFF78E
:1013600023FD601CC4B2092CF6DB09224F49314829
:10137000FEF74EFF002809D05AA0FFF715FD002008
:10138000FFF78EF80120FFF78BF808E05FA0FFF76A
:101390000BFD0020FFF778F80120FFF775F800F04B
:1013A000C9F800BFFEE700002E2E5C7372635C6D0F
:1013B00061696E2E630000005B25733A25645D0948
:1013C0004932435F454550524F4D206578616D70FD
:1013D0006C652069732072756E6E696E67210A0DE7
:1013E0000A00000046697273742077726974652080
:1013F000656570726F6D2E2E2E200A000000002091
:1014000046697273742077726974652065657072BD
:101410006F6D20456E6421000A46697273742072F4
:1014200065616420656570726F6D203A0A00000086
:101430000E000020680000202530327820000000D7
:101440000A4669727374204461746120766572691A
:101450006669636174696F6E2069732050415353EC
:101460004544210A000000000A4669727374204452
:1014700061746120766572696669636174696F6E13
:10148000206973204641494C4544210A0000000070
:101490005365636F6E64207772697465206565704B
:1014A000726F6D2E2E2E200A000000000500002015
:1014B0005365636F6E64207772697465206565702B
:1014C000726F6D20456E6421000000000A53656351
:1014D0006F6E64207265616420656570726F6D2047
:1014E0003A0A00000A5365636F6E642044617461B8
:1014F00020766572696669636174696F6E206973CD
:101500002050415353454421000000000A536563B5
:101510006F6E6420446174612076657269666963E8
:101520006174696F6E206973204641494C454421BE
:101530000000000010B500F021F810BD00B587B024
:1015400000F03EF800200390019002900490059076
:1015500006900748009069460648FFF703F8012106
:101560000448FEF7ADFFA8200349088007B000BD7E
:101570000705210000540040580000200EB500214E
:101580000D48FEF79DFF0C48FEF7A6FF0021012045
:101590004005FFF74BF8402000900021684601719C
:1015A000C17169460548FEF756FE802000906946E5
:1015B0000248FEF750FE0EBD0054004000040048F3
:1015C0000EB50020FFF736FA01218804FFF71EF858
:1015D00001214805FFF72AF8012206210E48FEF7EF
:1015E0009FFE012207210C48FEF79AFE4020009042
:1015F00002216846017100214171012181710021A0
:10160000C17169460448FEF726FE802000906946B5
:101610000148FEF720FE0EBD00040048F7B584B077
:1016200007461546002600200390002402902888D3
:10163000FF21FEF775FD03902888FF21FEF770FD5E
:101640000E46012040030023012200909C4801889F
:101650009C48FEF7C3FF052040039B49086008E053
:1016600099490868411E984A1160002801D100F08C
:101670002DF902219348FEF767FF0028F0D0059866
:10168000C1B29048FEF7A8FF052040038E490860CC
:1016900008E08D490868411E8B4A1160002801D17D
:1016A00000F014F940218748FEF74EFF0028F0D0E3
:1016B000039800287ED00120029074E00298002850
:1016C00013D1052040038049086008E07E4908687E
:1016D000411E7D4A1160002801D100F0F7F88021F9
:1016E0007848FEF731FF0028F0D0039801281BD17D
:1016F000002E19D1029800280BD009208002012366
:101700005B06FF2200906E4801886E48FEF766FF78
:1017100023E0002001235B06FF2200906848018837
:101720006848FEF75BFF18E0029800280BD00920FC
:10173000800201231B06FF22009061480188614856
:10174000FEF74CFF09E0002001231B06FF2200905A
:101750005B4801885B48FEF741FF002002900024AF
:101760001BE0052040035849086008E05649086816
:10177000411E554A1160002801D100F0A7F804214C
:101780005048FEF7E1FE0028F0D04E48FEF720FF5B
:101790003855641C2888401E2880FF2CE1D13F1951
:1017A0000398401E03900398002887D1002E6BD029
:1017B000052000E03DE040034349086008E042495D
:1017C0000868411E404A1160002801D100F07EF8EF
:1017D00080213C48FEF7B8FE0028F0D00020F2B28D
:1017E00001235B060090364801883648FEF7F6FE76
:1017F00000241BE0052040033349086008E032491B
:101800000868411E304A1160002801D100F05EF8DE
:1018100004212C48FEF798FE0028F0D02948FEF756
:10182000D7FE3855641C2888401E2880B442E1D178
:101830002AE009208002F2B201235B0600902048D2
:1018400001882048FEF7CAFE00241BE00520400363
:101850001D49086008E01C490868411E1A4A1160C9
:10186000002801D100F032F804211648FEF76CFE82
:101870000028F0D01348FEF7ABFE3855641C2888CA
:10188000401E2880B442E1D1052040030E49086083
:1018900008E00D490868411E0B4A1160002801D17B
:1018A00000F014F820210748FEF74EFE0028F0D083
:1018B00020210448FEF702FE002007B0F0BD000022
:1018C00058000020005400405C00002004A0FFF7F6
:1018D0006BFAFFF72FFEFFF731FE00BFFEE70000B7
:1018E000456E7465722054696D654F75745F436110
:1018F0006C6C6261636B210A000000001CB5002063
:10190000019001235B0602460090174801881748A2
:10191000FEF764FE00BF0120000315490860302176
:101920001248FEF7CBFD01211048FEF7F1FD00BF84
:101930000F490868411E0E4A11600028F8D101982D
:10194000411C0191FF212D31884201D1FFF7BEFFDB
:1019500010210648FEF7F8FD0028DCD120210348BD
:10196000FEF7ACFD00201CBD5800002000540040D4
:101970005C000020F7B582B00E46144600200190AE
:101980000027002500903046F117490F0918C910AB
:10199000C900711A89B2009108210098081A85B20D
:1019A0002046E117490F09184903090C0191E11775
:1019B000490F0918C910C900611A8FB20098002890
:1019C0002FD10198002809D14C48078002463146A2
:1019D000029800F097F8FFF791FF8CE00FE00820E5
:1019E000464908800A463146029800F08BF8FFF716
:1019F00085FF3046083086B2029808300290019880
:101A0000411E89B201910028E9D1002F73D03B48D3
:101A1000078002463146029800F074F8FFF76EFF27
:101A200069E00198002821D1AC4215DD33480580DA
:101A300002463146029800F065F8FFF75FFF601B31
:101A40002E490880721991B2029A50192B4A00F05F
:101A500059F8FFF753FF4EE0284807800246314609
:101A6000029800F04FF8FFF749FF44E0601B84B292
:101A70002046E117490F0918C9100191E117490FD4
:101A80000918C910C900611A8FB2002D0DD01B486A
:101A9000058002463146029800F034F8FFF72EFF29
:101AA000701986B202984019029013E00820134979
:101AB00008800A463146029800F024F805204003C9
:101AC0000F490860FFF71AFF3046083086B20298C7
:101AD000083002900198411E89B201910028E5D199
:101AE000002F08D00548078002463146029800F0D2
:101AF00009F8FFF703FF05B0F0BD0000600000200B
:101B00005C000020F8B506460F461446002501206B
:101B10004003C302012200904E4801884E48FEF760
:101B20005DFD052040034D49086008E04B49086809
:101B3000411E4A4A1160002801D1FFF7C7FE022169
:101B40004548FEF701FD0028F0D0F9B24248FEF703
:101B500043FD052040034149086008E03F4908680B
:101B6000411E3E4A1160002801D1FFF7AFFE8021DF
:101B70003948FEF7E9FC0028F0D0002000902278D8
:101B80000346344801883448FEF728FD18E0052054
:101B900040033249086008E030490868411E2F4A76
:101BA0001160002801D1FFF791FE02212A48FEF7BB
:101BB000CBFC0028F0D0715D2748FEF70DFD6D1CB1
:101BC0002078A842E3D1052040032449086008E0BA
:101BD00022490868411E214A1160002801D1FFF7FF
:101BE00075FE01211C48FEF7AFFC0028F0D005204F
:101BF00040031A49086008E018490868411E174A5E
:101C00001160002801D1FFF761FE40211248FEF764
:101C10009BFC0028F0D001210F48FEF787FC05202F
:101C200040030E49086008E00C490868411E0B4A51
:101C30001160002801D1FFF749FE20210648FEF778
:101C400083FC0028F0D020210348FEF737FC002059
:101C5000F8BD000058000020005400405C00002047
:101C60000004000800100400000008000000080044
:101C70000000080000001000002000010001000228
:101C80004000800001000000000008000000040087
:101C90000000080000000800000008000000080024
:101CA000000002000020000100010002400080004E
:101CB0000100020102020202000D080809060700E5
:101CC00007070707070705000040000000000200A3
:101CD0000000020000020004090A0101FC1C0008C7
:101CE0000000002068000000C80D0008641D000806
:101CF0006800002010040000D80D0008050403024D
:101D000001010203040506070809000000000000A5
:101D10000102030401020304060708090008004841
:101D20000008004800080048000C0048000800486F
:101D30000004004800080048000800480008004867
:101D4000000800480000004800380140000000483A
:101D5000000000480000000000A00000000000009B
:041D6000000000007F
:04000005080000C12E
:00000001FF
